S00F00002E2E2F526F626F742E73313954
S32D0000C00000000020050301006106010061060100610601006106010061060100000000000000000000000000E1
S32D0000C02800000000610601006106010000000000610601006106010061060100610601006106010061060100AA
S32D0000C05061060100610601006106010061060100610601006106010061060100610601006106010061060100B2
S32D0000C078610601006106010061060100610601006106010061060100610601006106010061060100610601008A
S32D0000C0A06106010061060100610601006106010061060100610601006106010061060100610601006106010062
S32D0000C0C8610601006106010061060100610601006106010061060100610601006106010061060100610601003A
S32D0000C0F061060100C973010061060100610601006106010061060100610601006106010061060100610601003D
S32D0000C11861060100610601006106010061060100610601006106010061060100610601006106010061060100E9
S32D0000C14061060100610601006106010061060100253E01006106010061060100610601006106010061060100C5
S32D0000C1686106010061060100610601006106010061060100610601006106010061060100610601006106010099
S32D0000C19061060100610601006106010085380100D9360100AD370100B10601005D390100610601006106010077
S32D0000C1B86106010061060100610601006106010061060100610601006106010061060100610601006106010049
S32D0000C41081F0004102E000BF83F0004330B54FEA41044FEA430594EA050F08BF90EA020F1FBF54EA000C55EAC6
S32D0000C438020C7FEA645C7FEA655C00F0E2804FEA5454D4EB5555B8BF6D420CDD2C4480EA020281EA030382EA0F
S32D0000C460000083EA010180EA020281EA0303362D88BF30BD11F0004F4FEA01314FF4801C4CEA113102D0404263
S32D0000C48861EB410113F0004F4FEA03334CEA133302D0524263EB430394EA050F00F0A780A4F10104D5F1200E8A
S32D0000C4B00DDB02FA0EFC22FA05F2801841F1000103FA0EF2801843FA05F359410EE0A5F120050EF1200E012A2D
S32D0000C4D803FA0EFC28BF4CF0020C43FA05F3C01851EBE37101F0004507D54FF0000EDCF1000C7EEB00006EEB67
S32D0000C5000101B1F5801F1BD3B1F5001F0CD349085FEA30004FEA3C0C04F101044FEA445212F5800F80F09A8000
S32D0000C528BCF1004F08BF5FEA500C50F1000041EB045141EA050130BD5FEA4C0C404141EB010111F4801FA4F114
S32D0000C5500104E9D191F0000F04BF01460020B1FA81F308BF2033A3F10B03B3F120020CDA0C3208DD02F1140C87
S32D0000C578C2F10C0201FA0CF021FA02F10CE002F11402D8BFC2F1200C01FA02F120FA0CFCDCBF41EA0C019040B1
S32D0000C5A0E41AA2BF01EB0451294330BD6FEA04041F3C1CDA0C340EDC04F11404C4F1200220FA04F001FA02F3B6
S32D0000C5C840EA030021FA04F345EA030130BDC4F10C04C4F1200220FA02F001FA04F340EA0300294630BD21FAA8
S32D0000C5F004F0294630BD94F0000F83F4801306BF81F480110134013D4EE77FEA645C18BF7FEA655C29D094EA1C
S32D0000C618050F08BF90EA020F05D054EA000C04BF1946104630BD91EA030F1EBF0021002030BD5FEA545C05D1A3
S32D0000C6404000494128BF41F0004130BD14F580043CBF01F5801130BD01F0004545F0FE4141F470014FF0000031
S32D0000C66830BD7FEA645C1ABF194610467FEA655C1CBF0B46024650EA013406BF52EA033591EA030F41F40021D7
S32D0000C69030BD00BF90F0000F04BF0021704730B54FF4806404F132044FF000054FF0000150E700BF90F0000F66
S32D0000C6B804BF0021704730B54FF4806404F1320410F0004548BF40424FF000013EE700BF42004FEAE2014FEAF9
S32D0000C6E031014FEA02701FBF12F07F4393F07F4F81F06051704792F0000F14BF93F07F4F704730B54FF460741B
S32D0000C70801F0004521F0004120E700BF50EA010208BF704730B54FF000050AE050EA010208BF704730B511F046
S32D0000C730004502D5404261EB41014FF4806404F132045FEA915C3FF4DCAE4FF003025FEADC0C18BF03325FEAA0
S32D0000C758DC0C18BF033202EBDC02C2F1200300FA03FC20FA02F001FA03FE40EA0E0021FA02F11444C1E600BF19
S32D0000C78070B54FF0FF0C4CF4E06C1CEA11541DBF1CEA135594EA0C0F95EA0C0F00F0DEF82C4481EA030621EAF3
S32D0000C7A84C5123EA4C5350EA013518BF52EA033541F4801143F4801338D0A0FB02CE4FF00005E1FB02E506F05F
S32D0000C7D00042E0FB03E54FF00006E1FB03569CF0000F18BF4EF0010EA4F1FF04B6F5007F64F5407404D25FEA0F
S32D0000C7F84E0E6D4146EB060642EAC62141EA55514FEAC52040EA5E504FEACE2EB4F1FD0C88BFBCF5E06F1ED8D2
S32D0000C820BEF1004F08BF5FEA500E50F1000041EB045170BD06F0004646EA010140EA020081EA0301B4EB5C0487
S32D0000C848C2BFD4EB0C0541EA045170BD41F480114FF0000E013C00F3AB8014F1360FDEBF002001F0004170BDF0
S32D0000C870C4F10004203C35DA0C341BDC04F11404C4F1200500FA05F320FA04F001FA05F240EA020001F0004207
S32D0000C89821F0004110EBD37021FA04F642EB06015EEA430E08BF20EAD37070BDC4F10C04C4F1200500FA04F32F
S32D0000C8C020FA05F001FA04F240EA020001F0004110EBD37041F100015EEA430E08BF20EAD37070BDC4F12005C7
S32D0000C8E800FA05F24EEA020E20FA04F301FA05F243EA020321FA04F001F0004121FA04F220EA020000EBD37028
S32D0000C9105EEA430E08BF20EAD37070BD94F0000F0FD101F00046400041EB010111F4801F08BF013CF7D041EA6D
S32D0000C938060195F0000F18BF704703F00046520043EB030313F4801F08BF013DF7D043EA0603704794EA0C0FF1
S32D0000C9600CEA135518BF95EA0C0F0CD050EA410618BF52EA4306D1D181EA030101F000414FF0000070BD50EA38
S32D0000C988410606BF1046194652EA430619D094EA0C0F02D150EA013613D195EA0C0F05D152EA03361CBF10467B
S32D0000C9B019460AD181EA030101F0004141F0FE4141F470014FF0000070BD41F0FE4141F4780170BD70B54FF04D
S32D0000C9D8FF0C4CF4E06C1CEA11541DBF1CEA135594EA0C0F95EA0C0F00F0A7F8A4EB050481EA030E52EA03359B
S32D0000CA004FEA013100F088804FEA03334FF0805545EA131343EA12634FEA022245EA111545EA10654FEA002676
S32D0000CA280EF000419D4208BF964244F1FD0404F5407402D25B084FEA3202B61A65EB03055B084FEA32024FF461
S32D0000CA5080104FF4002CB6EB020E75EB030E22BFB61A754640EA0C005B084FEA3202B6EB020E75EB030E22BF22
S32D0000CA78B61A754640EA5C005B084FEA3202B6EB020E75EB030E22BFB61A754640EA9C005B084FEA3202B6EBEA
S32D0000CAA0020E75EB030E22BFB61A754640EADC0055EA060E18D04FEA051545EA16754FEA06164FEAC30343EAAC
S32D0000CAC852734FEAC2025FEA1C1CC0D111F4801F0BD141EA00014FF000004FF0004CB6E711F4801F04BF0143AE
S32D0000CAF00020B4F1FD0C88BFBCF5E06F3FF6AFAEB5EB030C04BFB6EB020C5FEA500C50F1000041EB045170BDBC
S32D0000CB180EF0004E4EEA113114EB5C04C2BFD4EB0C0541EA045170BD41F480114FF0000E013C90E645EA060EC3
S32D0000CB408DE60CEA135594EA0C0F08BF95EA0C0F3FF43BAF94EA0C0F0AD150EA01347FF434AF95EA0C0F7FF499
S32D0000CB6825AF104619462CE795EA0C0F06D152EA03353FF4FDAE1046194622E750EA410618BF52EA43067FF432
S32D0000CB90C5AE50EA41047FF40DAF52EA43057FF4EBAE12E74FF0FF3C06E000BF4FF0010C02E000BF4FF0010C75
S32D0000CBB84DF804CD4FEA410C7FEA6C5C4FEA430C18BF7FEA6C5C1BD001B050EA410C0CBF52EA430C91EA030FEC
S32D0000CBE002BF90EA020F0020704710F1000F91EA030F58BF994208BF90422CBFD8176FEAE37040F0010070476E
S32D0000CC084FEA410C7FEA6C5C02D150EA013C07D14FEA430C7FEA6C5CD6D152EA033CD3D05DF8040B704700BFCD
S32D0000CC308446104662468C461946634600E000BF01B5FFF7B7FF002848BF10F1000F01BD4DF808EDFFF7F4FF13
S32D0000CC580CBF012000205DF808FB00BF4DF808EDFFF7EAFF34BF012000205DF808FB00BF4DF808EDFFF7E0FF18
S32D0000CC8094BF012000205DF808FB00BF4DF808EDFFF7CEFF94BF012000205DF808FB00BF4DF808EDFFF7C4FF40
S32D0000CCA834BF012000205DF808FB00BF4FEA410212F5001215D211D56FF47873B3EB625212D94FEAC12343F0D6
S32D0000CCD0004343EA505311F0004F23FA02F018BF404270474FF00000704750EA013005D111F0004008BF6FF016
S32D0000CCF8004070474FF00000704700BF4A0011D212F5001211D20DD56FF47873B3EB62520ED44FEAC12343F085
S32D0000CD20004343EA505323FA02F070474FF00000704750EA013002D14FF0FF3070474FF0000070474FEA410241
S32D0000CD48B2F1E04324BFB3F5001CDCF1FE5C0DD901F0004C4FEAC0024CEA5070B2F1004F40EB830008BF20F09E
S32D0000CD700100704711F0804F21D113F13872BCBF01F00040704741F480114FEA5252C2F11802C2F1200C10FAB1
S32D0000CD980CF320FA02F018BF40F001004FEAC1234FEAD32303FA0CFC40EA0C0023FA02F34FEA4303CCE77FEA26
S32D0000CDC0625307D150EA01331EBF4FF0FE4040F44000704701F0004040F0FE4040F40000704700BF80F00040CC
S32D0000CDE802E000BF81F0004142001FBF5FEA410392EA030F7FEA226C7FEA236C6AD04FEA1262D2EB1363C1BF06
S32D0000CE10D218414048404140B8BF5B42192B88BF704710F0004F40F4000020F07F4018BF404211F0004F41F4FA
S32D0000CE38000121F07F4118BF494292EA030F3FD0A2F1010241FA03FC10EB0C00C3F1200301FA03F100F000432B
S32D0000CE6002D5494260EB4000B0F5000F13D3B0F1807F06D340084FEA310102F10102FE2A51D2B1F1004F40EB94
S32D0000CE88C25008BF20F0010040EA03007047490040EB000010F4000FA2F10102EDD1B0FA80FCACF1080CB2EB5F
S32D0000CEB00C0200FA0CF0AABF00EBC25052421843BCBFD0401843704792F0000F81F4000106BF80F400000132EB
S32D0000CED8013BB5E74FEA41037FEA226C18BF7FEA236C21D092EA030F04D092F0000F08BF0846704790EA010FD7
S32D0000CF001CBF0020704712F07F4F04D1400028BF40F00040704712F100723CBF00F50000704700F0004343F0DC
S32D0000CF28FE4040F4000070477FEA226216BF08467FEA23630146420206BF5FEA412390EA010F40F480007047C1
S32D0000CF504FF0000304E000BF10F0004348BF40425FEA000C08BF704743F0964301464FF000001CE050EA010264
S32D0000CF7808BF70474FF000030AE000BF50EA010208BF704711F0004302D5404261EB41015FEA010C02BF84465B
S32D0000CFA00146002043F0B64308BFA3F18053A3F50003BCFA8CF2083AA3EBC25310DB01FA02FC634400FA02FC6B
S32D0000CFC8C2F12002BCF1004F20FA02F243EB020008BF20F00100704702F1200201FA02FCC2F1200250EA4C0034
S32D0000CFF021FA02F243EB020008BF20EADC7070474FF0FF0C1CEAD0521EBF1CEAD15392EA0C0F93EA0C0F6FD019
S32D0000D0181A4480EA010C400218BF5FEA41211ED04FF0006343EA501043EA5111A0FB01310CF00040B1F5000FE7
S32D0000D0403EBF490041EAD3715B0040EA010062F17F02FD2A1DD8B3F1004F40EBC25008BF20F00100704790F058
S32D0000D068000F0CF0004C08BF49024CEA502040EA51207F3AC2BFD2F1FF0340EAC250704740F400004FF0000388
S32D0000D090013A5DDC12F1190FDCBF00F000407047C2F10002410021FA02F1C2F1200200FA02FC5FEA310040F1D5
S32D0000D0B8000053EA4C0308BF20EADC70704792F0000F00F0004C02BF400010F4000F013AF9D040EA0C0093F04C
S32D0000D0E0000F01F0004C02BF490011F4000F013BF9D041EA0C018FE70CEAD15392EA0C0F18BF93EA0C0F0AD00B
S32D0000D10830F0004C18BF31F0004CD8D180EA010000F00040704790F0000F17BF90F0004F084691F0000F91F0BB
S32D0000D130004F14D092EA0C0F01D142020FD193EA0C0F03D14B0218BF084608D180EA010000F0004040F0FE4051
S32D0000D15840F40000704740F0FE4040F4400070474FF0FF0C1CEAD0521EBF1CEAD15392EA0C0F93EA0C0F69D044
S32D0000D180A2EB030280EA010C49024FEA402037D04FF0805343EA111143EA10130CF000408B4238BF5B0042F14E
S32D0000D1A87D024FF4000C8B4224BF5B1A40EA0C00B3EB510F24BFA3EB510340EA5C00B3EB910F24BFA3EB9103A4
S32D0000D1D040EA9C00B3EBD10F24BFA3EBD10340EADC001B0118BF5FEA1C1CE0D1FD2A3FF650AF8B4240EBC25018
S32D0000D1F808BF20F0010070470CF0004C4CEA50207F32C2BFD2F1FF0340EAC250704740F400004FF00003013AF1
S32D0000D22037E792F0000F00F0004C02BF400010F4000F013AF9D040EA0C0093F0000F01F0004C02BF490011F4C9
S32D0000D248000F013BF9D041EA0C0195E70CEAD15392EA0C0F08D142027FF47DAF93EA0C0F7FF470AF084676E7AE
S32D0000D27093EA0C0F04D14B023FF44CAF08466EE730F0004C18BF31F0004CCAD130F000427FF45CAF31F0004376
S32D0000D2987FF43CAF5FE700BF4FF0FF3C06E000BF4FF0010C02E000BF4FF0010C4DF804CD4FEA40024FEA41039F
S32D0000D2C07FEA226C18BF7FEA236C11D001B052EA530C18BF90EA010F58BFB2EB030088BFC81738BF6FEAE1706E
S32D0000D2E818BF40F0010070477FEA226C02D15FEA402C05D17FEA236CE4D15FEA412CE1D05DF8040B704700BF16
S32D0000D310844608466146FFE70FB5FFF7C9FF002848BF10F1000F0FBD4DF808EDFFF7F4FF0CBF012000205DF839
S32D0000D33808FB00BF4DF808EDFFF7EAFF34BF012000205DF808FB00BF4DF808EDFFF7E0FF94BF012000205DF8A9
S32D0000D36008FB00BF4DF808EDFFF7D2FF94BF012000205DF808FB00BF4DF808EDFFF7C8FF34BF012000205DF8B1
S32D0000D38808FB00BF4FEA4002B2F1FE4F0FD34FF09E03B3EB12620DD94FEA002343F0004310F0004F23FA02F060
S32D0000D3B018BF404270474FF00000704712F1610F01D1420205D110F0004008BF6FF0004070474FF00000704797
S32D0000D3D8036803B11B181846704700BF03685A004CBF43F0004323F00043C018704700BF2DE9F84F0446914699
S32D0000D40041B301F1FF3BDA46002707EB0A0101EBD1756D1004EBC5063046FFF7E3FF8046681CAB4504EBC000FA
S32D0000D4280DD0FFF7DBFF0138C84504D9BD4209D005F1FF3AE5E7484505D26F1CE1E74FF0FF30F1E7002630469A
S32D0000D450BDE8F88F0E463046BDE8F88F30B52B4B83B004468D1E002B49D0284601A9AFF300800346002822D028
S32D0000D4782A4618460199FFF7BBFF054600281DD0FFF7ACFF6B68A064012B10D0281D002B22DBFFF7A3FF002164
S32D0000D4A0E06421650368002B0FDBFFF79BFF2061002003B030BD002323610520F9E720610920F6E72061092066
S32D0000D4C8F3E7C3F3036058B101280CD002280ED0002020610920E8E70122E0642265DDE7094B2361E1E7094AEF
S32D0000D4F000202261DDE7084900202161D9E7074B0749C81AC2100192B6E700BF0000000029DA000025DA0000AD
S32D0000D51821DA00008CCE010084D00100036810B50446D80706D4990704F1480009D500F00DFD23685A0709D588
S32D0000D54018070ED5D90613D510BD00F0FBFC23685A07F5D404F1D00000F004FD23681807F0D404F5D87000F036
S32D0000D56805FD2368D906EBD404F50C70BDE8104000F040BD2DE9F0470F1D054691460FCFADF5916D02AC261D09
S32D0000D5900FC60FCF0FC60FCF0FC697E80F00D5F80C80D5F818A0002786E80F00216C27602846FFF753FF06460C
S32D0000D5B8B94514BF4FF00A094FF00909FEB1A16B49F01009616401208DE8100449462A462B46C04700282BD1BA
S32D0000D5E0002E2AD1204692A94FF410720CF082F9082F28D1216C2846FFF730FF06464FF00909002EDFD1206CC0
S32D0000D60821464FF41072686192A80CF06FF92F69294692AA4846B847A09B0746636401208DE8100449462A4699
S32D0000D6302B46C0470028D3D00926304622B00DF5806DBDE8F087072FF6D1201D00F06EFC38B504460D46296C54
S32D0000D6582046FFF7FFFE50B92A6C23696261012021462A4698470828F1D0072801D00EF087FA281D00F056FC8F
S32D0000D68011B933B10220704704298CBF0220012070470F2A01D90220704700EB820118464A68009B1A6070474D
S32D0000D6A810B50A4684B000210B4603AC0094FFF7E3FF039804B010BD11B933B10220704704298CBF0220012020
S32D0000D6D070470F2A01D902207047009900EB8202096818465160704710B584B004AB0C4643F8042D0021009330
S32D0000D6F822460B46FFF7E0FF04B010BD2DE9F04FCD6C8BB00C4655F8041B174600F008021E46039200F0030823
S32D0000D7200795002B40F0CF8009020691216D8DF821300323B8F1020F8DF8203008BFA56B11F0010340F0D3807B
S32D0000D748019304F158030293D5F80090B9F1000F00F0CB80022E00F0AE80B5F80090B5F802A00435A26C0F2198
S32D0000D7702AF0010B38469344FFF796FF834518D829F0010CE3440AF0010A09F00103584543EA4A092CBF002056
S32D0000D7980120B9F1010F12D032D2B8F1000F02D0002840F01D810435CEE70AF0010A09F0010343EA4A09002092
S32D0000D7C0B9F1010FECD1B8F1000F40F0B680C8B16B68D5F800909A1C19D0029A013309920DD0281DFFF7F8FDE6
S32D0000D7E84FEAD972014609AB20460DF02FFA002800F0F280099A002A40F0BA800835A3E7B9F1020F03D00920C9
S32D0000D8100BB0BDE8F08F2B6823F000420092B8F1000F71D1002843D00398002840F0A1800098002800F0A08078
S32D0000D838009BDDF80C90DB0705F1040A40F1B480CDF810800596A846029E12E000998D4200F0D9800996FFF7B5
S32D0000D860BBFD5A46014609AB20460DF0F3F9A946B0B90AF1040A05F1010950460996FFF7ABFD09AB01460022A7
S32D0000D88820460DF0E3F90AF1040A834609F101055046BBF1000FD9D04546059EDDF81080009A4A4564D02B68E4
S32D0000D8B0002B7BDB0099481C05EB800548E7D5F804A0083552E70B04C1F30740216D06930222B8F1020F05EB42
S32D0000D8D8800508BFA56B8DF8210011F001038DF820203FF42DAF00200190384606A900F019FC002887D1019A49
S32D0000D900002A43D1082083E70D213846D4F82090FFF7CAFE8145CAD1A26A9542C7D10098291D00220423A0623E
S32D0000D928E26223636163286800286EDB01220192BCE70D213846D4F82090FFF7B1FE81457FF45CAFA16A8D42FE
S32D0000D9507FF458AF2846FFF745FD0F2102463846FFF7C2FE384600212246FFF7BDFE07204EE7009900299BD19B
S32D0000D97838460D21FFF794FE099B20626362A562062041E70F213846FFF78AFE0E2102463846FFF7A5FE3846D5
S32D0000D9A00F211E4AFFF7A0FE072031E7043581E7029950460991FFF70FFD039A014609AB20460DF047F900281D
S32D0000D9C87FF46EAFCDF8108005960AF1040A4FF00109A846029E4CE7CDF824800835B3E62846FFF7FBFC0435CB
S32D0000D9F00646A56320460DF0A3F900283FF407AF38460F213246FFF76FFE072000E74546B2E7009B591C05EBEA
S32D0000DA1881009CE7A9AE010002236FE601236DE600236BE62DE9F0470446E8B004290CD8DFE801F038039193C8
S32D0000DA400F00150C012B96B200F07881052B00F0C780022068B0BDE8F087002BF9D1102AF7D82368D90600F115
S32D0000DA68738164A8019200F0CFFA019AA36BD00744BF53F8040B6490910744BF53F8041B6591500744BF53F8D3
S32D0000DA90041B6691110748BF53F8042B64A8A36348BF679200F0AAFA0020D3E7002BD0D1A36BD00791B244BF42
S32D0000DAB853F8042B62608A0744BF53F8042BA260480744BF53F8042BE2600A0744BF53F8042B2261C80644BF04
S32D0000DAE053F8042B62618A0644BF53F8042BA261480644BF53F8042BE2610A0644BF53F8042B2262C80544BFDC
S32D0000DB0853F8042B62628A0544BF53F8042BA262480544BF53F8042BE2620A0544BF53F8042B2263C80444BFB3
S32D0000DB3053F8042B626311F400501CBF53F8042BA2634A0444BF53F8042BE2630A0444BF53F8042B2264002890
S32D0000DB5840D1A3637AE7012078E7032B7FF475AF160C95B2AA19102A3FF66FAF2368180700F10B8144A800F026
S32D0000DB801BFAA76B4FEA450E3B460DB344A90EF1FF3C01EBC60653F8040B62460CF0010146F8040B92B129B13A
S32D0000DBA853F8041B013A46F8041B0BD01846314650F8045B41F8045B5D68031D75600E1D023AF3D107EB8E03F6
S32D0000DBD044A8A36300F0CEF900203BE7002039E777192022BA42FFF434AF012B00F0A9800F2D40F2A9803746FF
S32D0000DBF8F6B1052B7FF429AF0F2D11D82268D0070ED522F00101052B2160204600F0DA8022F0030240F8482B3D
S32D0000DC20019300F093F9019B1FB12268510700F1B880012B00F0BF800F2D75D9002F40F0A080D4F83890002E29
S32D0000DC48C8462EDD49460DF1080A4FEA46080AEBC50251F8046B08F1FF3000F0010A42F8046BA8F1020CD0B107
S32D0000DC70BAF1000F08D051F8040B0CF1FF3CBCF1FF3F42F8040B0ED00E46104656F804AB40F804AB4968ACF176
S32D0000DC98020C5160311D021DBCF1FF3FF0D109EB8808A7B3102D2CBF2E4610260DF5D079414609EBC60CACF59D
S32D0000DCC0C8724FEA470951F8046B09F1FF3000F0010A42F8046BA9F1020CD0B1BAF1000F08D051F8040B0CF1DE
S32D0000DCE8FF3CBCF1FF3F42F8040B0ED00E46104656F804AB40F804AB4968ACF1020C5160311D021DBCF1FF3FCE
S32D0000DD10F0D108EB8908012B2BD00F2DC4F8388008D9FFB9384695E602A8019300F016F9019B83E702A800F05A
S32D0000DD380DF9F2E77719102250E70F2D3FF685AE102F10D9103F54E723F01003236004F50C70019200F058F99D
S32D0000DD60019A82E624A800F0FDF8002072E6002746E708F1040302A8A36300F0E3F8002068E624A80193C5F116
S32D0000DD88100600F0EFF8019B57E723F0080704F5D870276000F00CF9ECE6204622F0040140F8D01B019300F0D1
S32D0000DDB0DDF8019B3DE702A8019300F0C7F8019B002F3FF43EAFC5F110063AE741F0020140F8481B019300F098
S32D0000DDD8C1F8019B24E700BF406C7047F0B50D460F1DC96B296404460FCFADF5117D01AE0FC60FCF0FC60FCF49
S32D0000DE000FC697E80F0086E80F004FF0FF33009310992046FFF722FB58B9266921466A46B04708280646F3D001
S32D0000DE286846FFF77BFB062E03D009200DF5117DF0BD20462946FFF707FC00BF10B4DC6BC16082611946002228
S32D0000DE501C6410BCFFF792BB38B54269C3680A6404460D4623B10122FFF788FB0DF08CFE0369214602202A46EB
S32D0000DE789847072803D0082804D00DF081FE281D00F050F820462946FFF7DEFBC36823B1CA6B0A640022FFF740
S32D0000DEA06DBB9FE7704700BF08B5836801460BB10120984708BD00BFF0B5D46B171D146405460C460FCFADF554
S32D0000DEC8277D01AE0FC60FCF0FC60FCF0FC697E80F0086E80F004FF0FF330093109990A8FFF7B8FA034690AA83
S32D0000DEF068460C21BBB9FFF7F7FB21466846A847064690A908206A466EB9949B98470528064601D00928E5D106
S32D0000DF186846FFF703FB30460DF5277DF0BD0926F6E700BF00F1340191E838009C46A6464CF8045D90E8FF0FD5
S32D0000DF40E54600BD90EC210B704700BF80EC210B704700BF90EC200B704700BF80EC200B704700BFD0EC200B8E
S32D0000DF68704700BFC0EC200B704700BFF0EC0201F0EC0211F0EC0221F0EC0231F0EC0241F0EC0251F0EC02615F
S32D0000DF90F0EC0271F0EC0281F0EC0291F0EC02A1F0EC02B1F0EC02C1F0EC02D1F0EC02E1F0EC02F1704700BFE6
S32D0000DFB8E0EC0201E0EC0211E0EC0221E0EC0231E0EC0241E0EC0251E0EC0261E0EC0271E0EC0281E0EC029155
S32D0000DFE0E0EC02A1E0EC02B1E0EC02C1E0EC02D1E0EC02E1E0EC02F1704700BFB0FC0181B0FC0191B0FC01A159
S32D0000E008B0FC01B1704700BFA0FC0181A0FC0191A0FC01A1A0FC01B1704700BFEC4600B52DE900502DE9FF1F47
S32D0000E0304FF000032DE90C0001A9FFF7D3FEDDF840E012B0704700BFEC4600B52DE900502DE9FF1F4FF00003FD
S32D0000E0582DE90C0001A9FFF7FBFEDDF840E012B0704700BFEC4600B52DE900502DE9FF1F4FF000032DE90C00CD
S32D0000E08001A9FFF707FFDDF840E012B0704700BFEC4600B52DE900502DE9FF1F4FF000032DE90C0001ABFFF718
S32D0000E0A8CDFEDDF840E012B0704700BFEC4600B52DE900502DE9FF1F4FF000032DE90C0001AAFFF7F5FEDDF804
S32D0000E0D040E012B0704700BF027A03461AB9427A42B9B02070470068013A01021A72000E196070474168501E6D
S32D0000E0F8587251F8040B0322596001021A72000E1960704710B5002184B00C220DEB02040B460094FFF7B0FA62
S32D0000E120039804B010BD00BFF0E700BF2DE9F043064685B00D464FF000094FF47F672846FFF7CAFFB028044683
S32D0000E14800F0B08010F0800120D000F0F003802B74D0902B37D0A02B45D0B02B56D0C02B00F0858000F0F800DB
S32D0000E170D0280BD104F00702511C41F40022304601210523FFF752FC0028D8D0092005B0BDE8F0834FEA800267
S32D0000E19803A85FFA82F800900D220B463046FFF76BFA039B600608F104084CBFC8EB0303434403AC03930094CD
S32D0000E1C0002130460D220B46FFF77AFAB7E700F00F020D2ADAD00F2AD8D0002103AC009430460B4603ACFFF77F
S32D0000E1E84BFA0094E8E7C24302F0070C47FA0CF0210700F47F6248BF42F48042002130460B46FFF70FFC00280D
S32D0000E210BCD194E7B1285DD0B2286ED0B32800F0958000F0FC02B42A46D000F00702531C43F40022012130469F
S32D0000E2380B46FFF7F7FB0028A4D17CE72846FFF747FF210240EA0104B4F5004F9AD0230500211A0C30460B46EB
S32D0000E2602401FFF7E3FB002890D114F4004F18BF4FF0010963E7C62873D0C72800F0848000F0F802C02A00F075
S32D0000E2889280C82800F0A680C9287FF47BAF2846FFF71EFF00F00F0300F0F0015A1C42EA013268E7B9F1000F81
S32D0000E2B000F0838000206AE700F00301481C022140F480220B463046FFF7B0FB00287FF45DAF34E72846FFF7FD
S32D0000E2D8FFFE024600283FF455AF10F0F0017FF451AF30460B46FFF79DFB00287FF44AAF21E700210D220B467E
S32D0000E30003AC30460094FFF7BBF92846FFF7E4FE022402060DD5039B00F07F0000FA04FE03EB0E01284603912E
S32D0000E328FFF7D6FE07340306F1D4039B00F07F0103AA03F5017C01FA04F400920CEB0402039239E72846FFF729
S32D0000E350C3FE00F00F03591C00F0F00041EA003268E72846FFF7B8FE00F00F03591C00F0F00041EA00320321E9
S32D0000E37830460B46FFF756FB00287FF403AFDAE62846FFF7A5FE024600283FF4FBAE10F0F0037FF4F7AE304688
S32D0000E3A00421FFF743FB00287FF4F0AEC7E600F00F01481C40F42022DDE703AC49460E224B4630460094FFF773
S32D0000E3C85BF9304649460F224B460094FFF774F94846D8E62846FFF77BFE00F0F00200F00F001032431C43EA3D
S32D0000E3F00232C4E610B5C26C84B0032054688DF80C00D37924020832084601A9019402928DF80D30FFF78AFE7D
S32D0000E41804B010BD08B5FFF783FE806C08BD00BF08B5FFF77DFEC16CC87901EB800303F1080008BD08B50DF02B
S32D0000E440A3FB00BF08B50DF09FFB00BF80B483B000AF78607B68044A1A607B68184607F10C07BD4680BC704763
S32D0000E46850C0010080B582B000AF78607B681846FFF7E8FF7B68064A1A607B684FF47F025A607B68184607F122
S32D0000E4900807BD4680BD00BF38C0010090B585B000AF78603960386801F0F2F90346002B04D07B684FF00002D5
S32D0000E4B85A6003E07B684FF001025A6007F10C03184601F02DFD7B685B68012B11D14FF01C000CF0B5FA044636
S32D0000E4E020461049104A00F03BF907F10C0318463968224601F024FD10E04FF01C000CF0A3FA0446204609496B
S32D0000E508074A00F029F907F10C0318463968224601F012FD07F11407BD4690BD333363410000C8410000D84086
S32D0000E53080B483B000AF786039604FF00103184607F10C07BD4680BC704700BF80B483B000AF7860396007F156
S32D0000E5580C07BD4680BC704780B483B000AF78604FF00003184607F10C07BD4680BC704780B584B000AFF8608D
S32D0000E580B9607A60FB681846FFF760FFFB68074A1A60FB68BA685A60FB687A689A60FB68184607F11007BD46E5
S32D0000E5A880BD00BF98C0010080B483B000AF7860396007F10C07BD4680BC704780B582B000AF786039607B68FE
S32D0000E5D05A687B689B68386811461A4600F0A0FE4FF00103184607F10807BD4680BD00BF80B483B000AF7860FB
S32D0000E5F8396007F10C07BD4680BC704780B483B000AF78604FF00003184607F10C07BD4680BC704780B584B063
S32D0000E62000AFF860B9607A60FB681846FFF70EFFFB68074A1A60FB68BA685A60FB687A689A60FB68184607F1A9
S32D0000E6481007BD4680BD00BFD0C0010080B483B000AF7860396007F10C07BD4680BC704780B582B000AF786087
S32D0000E67039607B685A687B689B68386811461A4600F03EFF4FF00103184607F10807BD4680BD00BF80B483B0C6
S32D0000E69800AF7860396007F10C07BD4680BC704780B483B000AF78604FF00003184607F10C07BD4680BC7047A4
S32D0000E6C080B582B000AF78607B681846FFF7BEFE7B68044A1A607B68184607F10807BD4680BD00BF00C1010097
S32D0000E6E880B483B000AF7860396007F10C07BD4680BC704780B483B000AF786039604FF00103184607F10C0749
S32D0000E710BD4680BC704700BF80B483B000AF7860396007F10C07BD4680BC704780B483B000AF78604FF001036D
S32D0000E738184607F10C07BD4680BC704780B483B000AF78607B6823F00043184607F10C07BD4680BC704700BF0F
S32D0000E76080B584B000AFF860B9607A60FB681846FFF76CFEFB680E4A1A60FB68BA685A60FB687A689A60FB68F1
S32D0000E7884FF000021A76FB684FF000025A76FB68064A1A61FB68064A5A61FB68184607F11007BD4680BD00BFB3
S32D0000E7B030C10100000070410000000090B585B000AF7860396007F10803184601F0ACFB7B685C68386801F0CD
S32D0000E7D879F8034620461946FEF704FB0346FB607B689B681846F968FEF706FC03464FF001021446184636499E
S32D0000E800FEF79CFD0346002B02D14FF000031C46E3B2002B14D07B684FF001021A764FF014000CF011F9044675
S32D0000E82820462B4900F00AFB07F1080318463968224601F081FB0FE04FF014000CF000F904462046234900F0D9
S32D0000E850F9FA07F1080318463968224601F070FB7B689B684FF00102144618461A49FEF765FD0346002B02D100
S32D0000E8784FF000031C46E3B2002B06D07B681B7E83F00103DAB27B681A767B681B7E002B05D07B689B6883F071
S32D0000E8A000427B689A607B685C68386801F00EF8034620461946FEF799FA03461A467B685A61386801F00EF879
S32D0000E8C802467B68DA6007F11407BD4690BD00BF0000000000003443B0B584B000AF786039607B685C68386824
S32D0000E8F000F0ECFF034620461946FEF777FA0346FB60F868FFF71EFF03464FF00102144618464549FEF730FDA1
S32D0000E9180346002B02D14FF000031C46E3B2002B18D07B684FF000025A76F8683D49FEF763FB034618463C49E5
S32D0000E940FEF712FC03461A467B689B68386811461A4600F0E5FC4FF0000358E0F868FFF7F1FE03461846FDF795
S32D0000E968B7FE02460B464FF001010C461046194627A3D3E90023FEF78FF90346002B02D14FF000031C46E3B245
S32D0000E990002B2AD0F8682549FEF732FB034618462349FEF7E1FB03461C467B689B6818462049FEF725FB0346AA
S32D0000E9B81D467B689B681846FFF7C0FE034628461946FEF7CDFB0346386821461A4600F0A3FC11A1D1E9000157
S32D0000E9E004F056FA4FF0000311E07B685B7E002B02D04FF001030AE009A1D1E9000104F047FA7B684FF00102ED
S32D0000EA085A764FF00003184607F11007BD46B0BD9A9999999999C93F9A9999999999B93F0000E0400000404023
S32D0000EA300000A0400000504180B582B000AF786039603B68184601F0BFFE3B6803F10803184601F0B9FE3868C9
S32D0000EA5800F06AFF386800F035FF034641F24C40C1F6FF70194606F043FC07F10807BD4680BD00BF80B483B044
S32D0000EA8000AF78604FF00003184607F10C07BD4680BC704780B584B000AFF860B9607A60FB681846FFF7D2FC58
S32D0000EAA8FB680C4A1A60FB68BA685A60FB687A689A60FB684FF000021A76FB684FF000025A76FB68044A1A61BB
S32D0000EAD0FB68184607F11007BD4680BD60C101000000704190B585B000AF7860396007F10803184601F018FA37
S32D0000EAF87B685C68386800F0F1FE034620461946FEF770F90346FB607B689B681846F968FEF772FA03464FF02C
S32D0000EB200102144618463649FEF708FC0346002B02D14FF000031C46E3B2002B14D04FF014000BF081FF0446ED
S32D0000EB4820462E4900F07AF907F1080318463968224601F0F1F97B684FF001021A760FE04FF014000BF06CFFBD
S32D0000EB7004462046244900F065F907F1080318463968224601F0DCF97B689B684FF00102144618461A49FEF7A4
S32D0000EB98D1FB0346002B02D14FF000031C46E3B2002B06D07B681B7E83F00103DAB27B681A767B681B7E002B69
S32D0000EBC005D07B689B6883F000427B689A607B685C68386800F086FE034620461946FEF705F903461A467B6892
S32D0000EBE85A61386800F06EFE02467B68DA6007F11407BD4690BD00BF000000000000B442000087430000000001
S32D0000EC10B0B584B000AF786039607B685C68386800F060FE034620461946FEF7DFF80346FB60F868FFF786FD31
S32D0000EC3803464FF00102144618464549FEF798FB0346002B02D14FF000031C46E3B2002B18D07B684FF000029E
S32D0000EC605A76F8683D49FEF7CBF9034618463C49FEF77AFA03461A467B689B68386811461A4600F04DFB4FF025
S32D0000EC88000358E0F868FFF759FD03461846FDF71FFD02460B464FF001010C461046194627A3D3E90023FDF742
S32D0000ECB0F7FF0346002B02D14FF000031C46E3B2002B2AD0F8682549FEF79AF9034618462349FEF749FA0346B1
S32D0000ECD81C467B689B6818462049FEF78DF903461D467B689B681846FFF728FD034628461946FEF735FA0346F6
S32D0000ED00386821461A4600F00BFB11A1D1E9000104F0BEF84FF0000311E07B685B7E002B02D04FF001030AE058
S32D0000ED2809A1D1E9000104F0AFF87B684FF001025A764FF00003184607F11007BD46B0BD9A9999999999C93F0A
S32D0000ED509A9999999999B93F0000E040000040400000A0400000504180B582B000AF786039603B68184601F07C
S32D0000ED7827FD3B6803F10803184601F021FD07F10807BD4680BD00BF80B483B000AF78604FF00003184607F1AE
S32D0000EDA00C07BD4680BC704780B582B000AF786039607B681846FFF749FB7B68054A1A607B683A685A607B686C
S32D0000EDC8184607F10807BD4680BD00BF90C1010080B483B000AF7860396007F10C07BD4680BC704780B582B078
S32D0000EDF000AF786039603B6803F110027B685B681046194605F014FA4FF00103184607F10807BD4680BD00BF27
S32D0000EE1880B483B000AF7860396007F10C07BD4680BC704780B483B000AF78604FF00003184607F10C07BD46A8
S32D0000EE4080BC704780B582B000AF786039607B681846FFF7FBFA7B68074A1A607B683A685A607B684FF00002ED
S32D0000EE681A747B68184607F10807BD4680BD00BFC0C1010080B483B000AF7860396007F10C07BD4680BC70479D
S32D0000EE9090B585B000AF786039607B685B68FB604FF001031C46F8686949FEF751FA0346002B02D14FF0000339
S32D0000EEB81C46E3B2002B05D0F8686449FDF794FF0346FB60386800F015FD0346F8681946FDF788FF0346BB6074
S32D0000EEE04FF001031C46B8685B49FEF745FA0346002B02D14FF000031C46E3B2002B05D0B8685449FDF772FFC5
S32D0000EF080346BB604FF001031C46B8684E49FEF71BFA0346002B02D14FF000031C46E3B2002B05D0B8684949DF
S32D0000EF30FDF75EFF0346BB604FF001031C46B8684649FEF7FBF90346002B02D14FF000031C46E3B2002B24D022
S32D0000EF584FF001031C46B8683F49FEF709FA0346002B02D14FF000031C46E3B2002B0AD038683A493A4A00F02A
S32D0000EF809BFB2FA1D1E9000103F082FF51E038683649374A00F090FB7B684FF000021A7447E04FF001031C4604
S32D0000EFA8B8683249FEF7E4F90346002B02D14FF000031C46E3B2002B24D04FF001031C46B8682949FEF7B6F954
S32D0000EFD00346002B02D14FF000031C46E3B2002B0AD038682449204A00F066FB14A1D1E9000103F04DFF1CE01B
S32D0000EFF8386820491C4A00F05BFB7B684FF000021A7412E07B681B7C002B02D04FF001030DE07B684FF00102C6
S32D0000F0201A7409A1D1E9000103F032FF4FF0000301E04FF00003184607F11407BD4690BD9A9999999999B93FF6
S32D0000F0489A9999999999C93F000034C30000B44300003443000080BF0000A0C1000000BF00009041000000C0A6
S32D0000F0700000A0410000803F0000003F0000004080B582B000AF786039603B68184601F09BFB3B6803F10803A2
S32D0000F098184601F095FB386800F02CFC034641F24C40C1F6FF70194606F022F907F10807BD4680BD80B483B067
S32D0000F0C000AF78604FF00003184607F10C07BD4680BC704780B582B000AF78607B681846FFF7B4F97B68044AF7
S32D0000F0E81A607B68184607F10807BD4680BD00BFF0C1010080B483B000AF7860396007F10C07BD4680BC7047FF
S32D0000F11090B583B000AF78603960386800F0FAFB034641F24C40C1F6FF70194606F0E4F8386800F0EFFB034692
S32D0000F1384FF00102144618461849FEF7FBF80346002B02D14FF000031C46E3B2002B0FD038684FF0010100F00B
S32D0000F160A5FB41F24C40C1F6FF704BF63051C0F2010106F0ADF80EE038684FF0000100F095FB41F24C40C1F627
S32D0000F188FF704BF63451C0F2010106F09DF84FF00103184607F10C07BD4690BD0000803F80B483B000AF78603C
S32D0000F1B0396007F10C07BD4680BC704780B483B000AF78604FF00003184607F10C07BD4680BC704780B582B0A1
S32D0000F1D800AF7860786809F0A9FC0346184607F10807BD4680BD00BF80B582B000AF7860786809F0E7FC034664
S32D0000F200184607F10807BD4680BD00BF80B582B000AF78607B6818464FF001013F4A01F07BFA7B6803F108033B
S32D0000F22818464FF000013B4A01F072FA7B6803F1100318464FF0050104F0D6FF7B6803F11C0318464FF000014E
S32D0000F25004F034F87B6803F11D0318464FF0020104F02CF87B6803F11E0318464FF00E0104F004FC7B6803F152
S32D0000F2781F0318464FF00C0104F0FCFB7B6803F1200318464FF00A0104F0F4FB7B6803F1210318464FF009018A
S32D0000F2A004F0ECFB7B6803F1220318464FF0100103F03CFE7B6803F1230318464FF0120103F034FE7B6803F1E5
S32D0000F2C8240318464FF0140103F02CFE7B6803F1250318464FF0160103F024FE7B6803F1260318464FF01801A4
S32D0000F2F003F01CFE7B6803F1270318464FF01A0103F014FE7B684FF0010283F838207B68184607F10807BD46E2
S32D0000F31880BD00BF0000404190B58BB000AFF860B9607A607B6883F000437B604FF001031C46B8686E49FDF7EC
S32D0000F340FDFF0346002B02D14FF000031C46E3B2002B07D0BB6883F00043BB607B6883F000437B60FB6803F162
S32D0000F3681C03184604F072FBFB6803F11D03184604F06CFBB868FDF7ABF902460B461046194655A3D3E900238C
S32D0000F390FDF7F6F902460B4610461946FDF78AFC03467B61FB6803F11C03184604F03EFB03467B62FB6803F101
S32D0000F3B81D03184604F036FB03461846FDF776F902460B461046194645A3D3E90023FDF7D3F902460B461046B6
S32D0000F3E01946FDF767FC03463B625DE0FB6803F11C03184604F01AFB03467B62FB6803F11D03184604F012FB4D
S32D0000F40803461846FDF752F902460B461046194633A3D3E90023FDF7AFF902460B4610461946FDF743FC034687
S32D0000F4303B627B68FB617B68BB617A6A3B6A9A4206DAB8692D49FDF7DBFD0346BB6109E03A6A7B6A9A4205DA99
S32D0000F458F8692849FDF7D0FD0346FB61FA68FB6983F000431046194601F0FAF9FB6803F10804B869FDF72CF99C
S32D0000F48002460B461046194619A3D3E90023FDF777F902460B4610461946FDF753FC03462046194601F0E0F9A8
S32D0000F4A87A6A3B6AD2187B694FEA43039A42ACBF00230123DBB2002B94D1FB68184601F07FF9FB6803F1080329
S32D0000F4D0184601F079F907F12C07BD4690BD00BF0C24EB1AD4DE4040295C8FC2F528F03F9A9999999999F13FC3
S32D0000F4F8000000000000403F90B58BB000AFF860B9607A607B6883F000437B60FB6803F11C03184604F09AFA1D
S32D0000F520FB6803F11D03184604F094FAFB6803F11C03184604F07AFA0346BB61FB6803F11D03184604F072FA90
S32D0000F54803461846FDF7B2F802460B46104619464DA3D3E90023FDF70FF902460B4610461946FDF7A3FB03460E
S32D0000F5707B614D4B7B6268E0FB6803F11C03184604F054FA0346BB61FB6803F11D03184604F04CFA03461846A3
S32D0000F598FDF78CF802460B46104619463AA3D3E90023FDF7E9F802460B4610461946FDF77DFB03467B617B682C
S32D0000F5C03B627B68FB61BA697B699A4206DAF8693649FDF715FD0346FB6109E07A69BB699A4205DA386A31492C
S32D0000F5E8FDF70AFD03463B62FA683B6A83F000431046194601F034F9FB6803F10804F869FDF766F802460B46D5
S32D0000F6101046194620A3D3E90023FDF7B1F802460B4610461946FDF78DFB03462046194601F01AF9786A1E49B3
S32D0000F638FDF7DAFB03467B6217A1D1E9000103F023FCB8681949FDF7D7FC03464FF0010214461846796AFDF7CD
S32D0000F6608BFE0346002B02D14FF000031C46E3B2002B81D1FB68184601F0A6F8FB6803F10803184601F0A0F85D
S32D0000F68807F12C07BD4690BD295C8FC2F528F03F9A9999999999F13F9A9999999999B93F000000000000403FE2
S32D0000F6B00000803F0000204190B58BB000AFF860B9607A604FF001031C46B8686E49FDF735FE0346002B02D1A8
S32D0000F6D84FF000031C46E3B2002B07D0BB6883F00043BB607B6883F000437B60FB6803F11C03184604F0AAF9F6
S32D0000F700FB6803F11D03184604F0A4F9B868FCF7E3FF02460B461046194655A3D3E90023FDF72EF802460B46A8
S32D0000F72810461946FDF7C2FA03467B61FB6803F11C03184604F076F903467B62FB6803F11D03184604F06EF99C
S32D0000F75003461846FCF7AEFF02460B461046194645A3D3E90023FDF70BF802460B4610461946FDF79FFA034614
S32D0000F7783B625DE0FB6803F11C03184604F052F903467B62FB6803F11D03184604F04AF903461846FCF78AFF21
S32D0000F7A002460B461046194633A3D3E90023FCF7E7FF02460B4610461946FDF77BFA03463B627B68FB617B68A0
S32D0000F7C8BB617A6A3B6A9A4206DAB8692D49FDF713FC0346BB6109E03A6A7B6A9A4205DAF8692849FDF708FCBC
S32D0000F7F00346FB61FA68FB6983F000431046194601F032F8FB6803F10804B869FCF764FF02460B4610461946D2
S32D0000F81819A3D3E90023FCF7AFFF02460B4610461946FDF78BFA03462046194601F018F87A6A3B6AD2187B6959
S32D0000F8404FEA43039A42ACBF00230123DBB2002B94D1FB68184600F0B7FFFB6803F10803184600F0B1FF07F1B1
S32D0000F8682C07BD4690BD00BF7CCFEC3075B90040295C8FC2F528F03F9A9999999999F1BF000000000000403F73
S32D0000F89080B483B000AF78607B6893F83830184607F10C07BD4680BC704700BF80B483B000AF78600B46FB70BE
S32D0000F8B87B68FA7883F8382007F10C07BD4680BC704700BF80B483B000AF78607B689B6A184607F10C07BD46F8
S32D0000F8E080BC704780B483B000AF78607B68DB6A184607F10C07BD4680BC704780B483B000AF78607B681B6B3B
S32D0000F908184607F10C07BD4680BC704780B483B000AF78607B685B6B184607F10C07BD4680BC7047000000007C
S32D0000F930B0B586B000AF786041F2B440C1F6FF7008F090FF02467B689A6241F2B440C1F6FF7008F097FF024669
S32D0000F9587B68DA6241F2B440C1F6FF7008F09EFF02467B681A6341F2B440C1F6FF7008F095FF03461846FCF765
S32D0000F980ABFE02460B46104619463BA3D3E90023FCF7F6FE02460B461046194638A3D3E90023FDF717F802466B
S32D0000F9A80B4610461946FDF7C9F903467B617869FFF70CFC03463B617869FFF715FC0346FB607B689B6A1846BA
S32D0000F9D0FCF782FE04460D463869FCF77DFE02460B46104619464FF000024FF0804303F5D013FCF7C5FE024680
S32D0000F9F80B4620462946FCF70BFD02460B4610461946FDF79BF902467B689A627B68DB6A1846FCF75DFE0446A5
S32D0000FA200D46F868FCF758FE02460B46104619464FF000024FF0804303F5D013FCF7A0FE02460B462046294651
S32D0000FA48FCF7E6FC02460B4610461946FDF776F902467B68DA627B6803F11E03184604F01BF802467B685A635E
S32D0000FA7007F11807BD46B0BDF1D4C853FB210940000000000080664090B5ABB000AF41F2B440C1F6FF7008F0E2
S32D0000FA9815FA41F24C40C1F6FF7005F051F94FF008000AF0CDFF04462046EB49FFF778F97C604FF014000AF08C
S32D0000FAC0C3FF044620464BF63C51C0F2010100F075FBBC604FF00C000AF0B6FF0446204600F0D0FAFC604FF0A9
S32D0000FAE81C000AF0ADFF04462046DC49DC4AFEF7CDFF3C614FF01C000AF0A2FF04462046D849D94AFEF728FED0
S32D0000FB107C614FF004000AF097FF04462046FFF7D9FABC614FF01C000AF08EFF04462046CD49CD4AFEF714FEBB
S32D0000FB38FC614FF014000AF083FF04462046CB49FFF77CF93C624FF00C000AF079FF04462046C749C74AFEF723
S32D0000FB605DFD7C624FF01C000AF06EFF04462046C349BF4AFEF7F4FDBC624FF014000AF063FF04462046BF494D
S32D0000FB88FFF75CF9FC624FF00C000AF059FF04462046B349BA4AFEF7EBFC3C634FF01C000AF04EFF044620468C
S32D0000FBB0B649AF4AFEF76EFF7C634FF014000AF043FF04462046A649FFF73CF9BC634FF00C000AF039FF0446AF
S32D0000FBD82046AD49AD4AFEF71DFDFC634FF008000AF02EFF04462046A949FFF7D9F83C644FF00C000AF024FF5F
S32D0000FC0004462046A249A54AFEF7B6FC7C644FF014000AF019FF04462046A149FFF712F9BC644FF00C000AF060
S32D0000FC280FFF044620469D499A4AFEF7A1FCFC644FF004000AF004FF0446204600F0B8F93C654FF00C000AF0BD
S32D0000FC50FBFE044620469449904AFEF78DFC7C654FF008000AF0F0FE044620467C49FFF79BF8BC654FF0140026
S32D0000FC780AF0E6FE044620468049FFF7DFF8FC654FF00C000AF0DCFE044620467549764AFEF7C0FC3C664FF0FA
S32D0000FCA01C000AF0D1FE0446204680496E4AFEF7F1FE7C664FF01C000AF0C6FE044620467B49694AFEF74CFDDC
S32D0000FCC8BC664FF01C000AF0BBFE044620467749634AFEF7DBFEFC664FF008000AF0B0FE04462046FEF7BEFB44
S32D0000FCF03C674FF014000AF0A7FE044620466149FFF7A0F87C674FF00C000AF09DFE044620465F49684AFEF7A7
S32D0000FD1881FCBC674FF008000AF092FE044620465B49FFF73DF8FC674FF00C000AF088FE044620465F49604A9D
S32D0000FD40FEF76CFCC7F880404FF00C000AF07CFE044620465B495C4AFEF70EFCC7F884404FF008000AF070FECF
S32D0000FD68044620463C49FFF71BF8C7F888404FF01C000AF065FE044620464D493D4AFEF785FEC7F88C404FF0E1
S32D0000FD901C000AF059FE044620464C49324AFEF7DFFCC7F890404FF014000AF04DFE044620463449FFF746F8BF
S32D0000FDB8C7F894404FF00C000AF042FE044620464149424AFEF726FCC7F898404FF010000AF036FE0446204664
S32D0000FDE0FEF76EFCC7F89C407B68C7F8A4304FF00003C7F8A0301CE0D7F8A0304FEA830307F1A802D31853F882
S32D0000FE08A43CC7F8A43041F26410C1F6FF7041F22811C1F6FF71D7F8A42000F08DF8D7F8A03003F10103C7F89B
S32D0000FE30A030D7F8A4301B6803F10C031B68D7F8A4009847034683F00103DBB2002BD3D14FF00003184607F122
S32D0000FE58AC07BD4690BD00BF00003443CDCC7C410000C8410000E0400000C8C100001D43000000400000F0416A
S32D0000FE80000094410000B442000034C20000364200004040000070C100008C420000A04100808E4300003841F1
S32D0000FEA80000A0C1000034420000884100009041000070410000803F000000000000E0C0000020420000804089
S32D0000FED00000204100000CC280B582B000AF786039607B68012B10D13A684FF6FF739A420BD141F22810C1F62B
S32D0000FEF8FF70FFF787F941F26410C1F6FF7000F00FF807F10807BD4680BD00BF80B500AF4FF001004FF6FF7154
S32D0000FF20FFF7DAFF80BD00BF80B483B000AF78607B68184607F10C07BD4680BC704700BF80B584B000AFF86089
S32D0000FF48B9607A60B868FFF7EFFC7B681B6803F104031B687868B9689847B868FFF7E4FC02E0B868FFF7E0FC09
S32D0000FF707B681B681B687868B9689847034683F00103DBB2002BF0D1B868FFF7D1FC7B681B6803F108031B6896
S32D0000FF987868B968984704A1D1E9000102F074FF07F11007BD4680BD9A9999999999C93F80B582B000AF7860BA
S32D0000FFC07B681846FEF742FA7B68044A1A607B68184607F10807BD4680BD00BF20C2010080B582B000AF7860DE
S32D0000FFE839603B6803F108031846104900F038FC3B6818460E4900F033FC00BF3B6803F12603184603F0B2F8E4
S32D000100100346002BF6D13B6803F10803184600F0D3FB3B68184600F0CFFB07F10807BD4680BD00BF000020C225
S32D000100380000A04180B483B000AF786039604FF00103184607F10C07BD4680BC704700BF80B483B000AF7860E2
S32D00010060396007F10C07BD4680BC704780B483B000AF78604FF00003184607F10C07BD4680BC704780B582B0E1
S32D0001008800AF78607B681846FEF7DCF97B68074A1A607B68064A5A607B684FF000029A607B68184607F10807B6
S32D000100B0BD4680BD50C201000000000080B582B000AF786039603868FFF724FC02467B685A607B684FF0000288
S32D000100D89A6007F10807BD4680BD00BF0000000090B585B000AF7860396023A1D1E9000102F0CAFE7B689B6840
S32D000101004B2B22DC7B685C683868FFF703FC034620461946FCF76AFE03461846FCF7DCFA02460B464FF001016D
S32D000101280C461046194616A3D3E90023FCF7B4FD0346002B02D14FF000031C46E3B2002B02D04FF0010301E0C4
S32D000101504FF00003FB733868FFF7DCFB02467B685A607B689B6803F101027B689A60FB7B184607F11407BD46DA
S32D0001017890BD00BFAFF300809A9999999999C93F333333333333D33F80B483B000AF7860396007F10C07BD46B2
S32D000101A080BC704780B483B000AF78604FF00003184607F10C07BD4680BC704780B582B000AF786039607B6844
S32D000101C81846FEF73FF97B68074A1A607B684FF000021A717B683A681A617B68184607F10807BD4680BD00BFD9
S32D000101F088C2010080B582B000AF786039607B681B6941F24C40C1F6FF70194605F060F807F10807BD4680BDCF
S32D0001021880B582B000AF786039607B681B79002B16D07B6803F108027B6803F10C0341F24C40C1F6FF701146A5
S32D000102401A4604F05DFE034683F00103DBB2002B17D04FF0010316E07B6803F108027B6803F10C0341F24C40C2
S32D00010268C1F6FF7011461A4604F046FE0346002B03D07B684FF001021A714FF00003184607F10807BD4680BD74
S32D0001029080B582B000AF7860396041F24C40C1F6FF704BF65851C0F2010105F011F807F10807BD4680BD00BF31
S32D000102B880B483B000AF78604FF00003184607F10C07BD4680BC704780B500AF41F65072C1F6FF7241F2281315
S32D000102E0C1F6FF73D31A194641F22813C1F6FF731A460B4610464FF000011A4609F003FB80BD00BF0AF084FBD0
S32D0001030800F0B0F9FFF7E0FF0AF056FB0AF0F2FA0AF08AFB00F00CF84FF0000041F26811C1F6FF71FFF7ACFB05
S32D000103300346184609F0C2FA80B500AF4FF4E043C4F204034FF4E042C4F2040202F5805202F13802126842F474
S32D00010358785203F5805303F138031A6000F02EF900F094F841F29833C1F6FF734FF058021A6041F29833C1F6B6
S32D00010380FF731B684FF47A7202FB03F241F29433C1F6FF731A6041F29433C1F6FF731B681A464FF4E043C4F279
S32D000103A8040303F5825303F104031B6803F070634FEA136303F10103B2FBF3F31A4641F29C33C1F6FF731A60CF
S32D000103D04FF4E043C4F204034FF4E042C4F2040202F5805202F13C02126842F0225203F5805303F13C031A6028
S32D000103F84FF4E043C4F204034FF4E042C4F2040202F5805202F13002126842F0006203F5805303F130031A602A
S32D000104204FF45043C4F203034FF480721A614FF0640002F0A5FB4FF45043C4F203034FF45042C4F20302526959
S32D0001044822F010025A614FF45043C4F203034FF000021A604FF45043C4F203034FF010025A6103F04BFC03F08E
S32D00010470F3FC41F29030C1F6FF7002F005FC41F24C40C1F6FF7004F097FA41F2883002F0E3FC80BD80B400AF1C
S32D000104984FF48043C4F206034FF000025A704FF48043C4F206034FF098021A704FF48043C4F206039B79DBB2D7
S32D000104C003F01003002B0CBF00230123DBB2002BF0D14FF48043C4F206039B79DBB203F00C034FEA9303022BED
S32D000104E80CBF00230123DBB2002BEED14FF48043C4F206034FF018021A714FF48043C4F206034FF000025A71E2
S32D000105104FF4E043C4F2040303F5825303F104034FF00002C0F213121A604FF48043C4F206034FF054025A711A
S32D0001053800BF4FF48043C4F206039B79DBB203F02003002B14BF00230123DBB2002BF0D100BF4FF48043C4F220
S32D0001056006039B79DBB203F04003002B14BF00230123DBB2002BF0D14FF48043C4F206034FF48042C4F2060246
S32D000105881278D2B202F03F02D2B21A704FF48043C4F206039B79DBB203F00C034FEA9303032B0CBF002301237E
S32D000105B0DBB2002BEED14FF000031846BD4680BC704700BF80B400AF4FF44043C4F204034FF480725A634FF2B7
S32D000105D8C003C4F20F034FF2C002C4F20F02526942F400525A614FF2C003C4F20F034FF2C002C4F20F02126891
S32D0001060042F400521A604FF44043C4F2040340F20312C0F20A021A634FF46143CEF200034FF46142CEF2000272
S32D00010628D2F8882142F08062C3F888214FF46143CEF200034FF46142CEF20002926842F080629A60BD4680BC1F
S32D00010650704700BF80B483B000AF7860FEE700BF80B400AF00BEBD4680BC704780B400AF4FF0E0224CF2000377
S32D00010678C0F20003C2F8083D4FF40053C4F205034CF22052DA814FF40053C4F205034DF62812DA814FF400537E
S32D000106A0C4F205034FF0D2021A80BD4680BC704780B500AF4FF44043C4F20403D3F8A03003F48053002B0CBF08
S32D000106C800230123DBB2002B1FD04FF44043C4F204034FF44042C4F20402D2F8A02022F48052C3F8A02041F2F1
S32D000106F0D440C1F6FF7008F0DFF94FF2C003C4F20F034FF2C002C4F20F02126822F400521A6080BD00000000A2
S32D0001071890B585B000AFF8600B467A60FB72FB68FA7A1A71FB684FF000025A714FF001031C4678682049FCF7E7
S32D000107401BFE0346002B02D14FF000031C46E3B2002B02D01A4B7B6011E04FF001031C4678681849FCF7F4FDF9
S32D000107680346002B02D14FF000031C46E3B2002B01D0124B7B607868FBF7AAFF02460B46104619460AA3D3E97C
S32D000107900023FBF7F5FF02460B4610461946FCF7D1FA0246FB681A60FB68184607F11407BD4690BDAFF30080BA
S32D000107B8ABAAAAAAAAAA2040000040410000803F80B582B000AF78607B685B79002B10D07B684FF000025A71D6
S32D000107E07B681B7941F29030C1F6FF7019464FF000024FF01E0302F091FA07F10807BD4680BD00BF80B584B06E
S32D0001080800AF786039603B687F2B03DD4FF07F03FB7309E03B6813F1800F03DA4FF08003FB7301E03B68FB7327
S32D000108307B685B79FA7B9A420FD07B68FA7B5A717B681A79FB7B41F29030C1F6FF7011461A464FF01E0302F081
S32D0001085861FA07F11007BD4680BD00BF00000000B0B584B000AF786039604FF001031C4638684D49FCF75EFD26
S32D000108800346002B02D14FF000031C46E3B2002B02D0474B3B6011E04FF001031C4638684449FCF769FD03463A
S32D000108A8002B02D14FF000031C46E3B2002B01D03E4B3B603868FBF70BFF04460D467B681B681846FBF704FFD8
S32D000108D002460B46104619464FF000024FF0804303F5B203FCF776F802460B4620462946FBF746FF02460B461C
S32D000108F810461946FCF722FA03463B604FF001031C4638682A49FCF729FD0346002B02D14FF000031C46E3B2D8
S32D00010920002B14D03868FBF7D7FE02460B46104619461DA3D3E90023FBF722FF02460B4610461946FCF7B6F942
S32D000109480346FB6022E03868FBF7C2FE02460B46104619464FF000024FF0804303F5C003FBF70AFF02460B46A8
S32D00010970104619464FF000024FF0804303F5B203FCF728F802460B4610461946FCF792F90346FB607868F968EF
S32D00010998FFF734FF07F11007BD46B0BDAFF3008052B81E85EB51F43F0000C8C20000C84200000000AFF3008094
S32D000109C080B485B000AF02460B46FA71BB71BB79002B07D141F26C13C1F6FF734FF000021A7006E041F26C134B
S32D000109E8C1F6FF734FF001021A704FF03803FB7341F26C13C1F6FF731A78FB7B1343FB734FF4C043C4F2060357
S32D00010A104FF4C042C4F206029278D2B242F01002D2B29A704FF4C043C4F206034FF4C042C4F206029278D2B2BE
S32D00010A3842F02002D2B29A704FF4C043C4F20603FA7B1A7107F11407BD4680BC704700BF80B483B000AF4FF08B
S32D00010A6001037B6004E000BF7B6803F101037B607B68312BCCBF00230123DBB2002BF2D107F10C07BD4680BC59
S32D00010A88704700BF80B582B000AF02460B46FA71BB7141F26D13C1F6FF731B7818464FF00001FFF789FF4FF4B5
S32D00010AB0C043C4F20603DB78DBB203F00203002B14BF00230123DBB2002BF0D14FF4C043C4F206034FF4C04275
S32D00010AD8C4F20602D278D2B242F00202D2B2DA704FF4C043C4F20603FA791A714FF4C043C4F20603DB78DBB277
S32D00010B0003F00203002B14BF00230123DBB2002BF0D14FF4C043C4F206034FF4C042C4F20602D278D2B242F008
S32D00010B280202D2B2DA704FF4C043C4F20603BA791A714FF4C043C4F20603DB78DBB203F00203002B14BF00230B
S32D00010B500123DBB2002BF0D14FF4C043C4F206034FF4C042C4F20602D278D2B242F00202D2B2DA704FF4C043B9
S32D00010B78C4F206034FF4C042C4F206029278D2B222F02002D2B29A704FF4C043C4F206034FF4C042C4F2060234
S32D00010BA09278D2B222F01002D2B29A70FFF754FF07F10807BD4680BD80B582B000AF0346FB71FB79184600F0C9
S32D00010BC86BF807F10807BD4680BD00BF80B582B000AF02460B46FA71BB7100F039F8FB794FEA4303DBB2184650
S32D00010BF0FFF7E2FFBB791846FFF7DEFF00F03EF807F10807BD4680BD80B500AF4FF0FF0000F046F80346184636
S32D00010C1880BD00BF80B584B000AF0346FB7100F017F8FB794FEA4303DBB243F00103DBB2DBB21846FFF7BCFF05
S32D00010C40FFF7E2FF0346FB7300F018F8FB7B184607F11007BD4680BD80B400AF4FF24003C4F20F034FF2400222
S32D00010C68C4F20F02926842F480129A60BD4680BC704700BF80B400AF4FF24003C4F20F034FF24002C4F20F02AC
S32D00010C90526842F480125A60BD4680BC704700BF80B485B000AF0346FB714FF00003BB7303E0FB7B03F10103B6
S32D00010CB8FB734FF44043C4F20A03DB6A4FF00003002BF2D14FF44043C4F20A034FF44042C4F20A02D26A42F023
S32D00010CE00042DA624FF44043C4F20A03FA795A6300BF4FF44043C4F20A03DB6A03F40033002B14BF00230123B2
S32D00010D08DBB2002BF1D14FF44043C4F20A039B6BBB73BB7B184607F11407BD4680BC704780B582B000AF4FF48F
S32D00010D30E043C4F204034FF4E042C4F2040202F5805202F13002126842F4805203F5805303F130031A604FF474
S32D00010D582043C4F204034FF480721A654FF24003C4F20F034FF24002C4F20F02526942F480125A61FFF77EFF51
S32D00010D804FF42043C4F204034FF400725A654FF42043C4F204034FF400729A654FF42043C4F204034FF400723E
S32D00010DA8DA654FF44043C4F20A034FF44062C8F200021A604FF44043C4F20A034FF00502C3F60062DA604FF0D6
S32D00010DD000037B6007E04FF0FF00FFF7EDFE7B6803F101037B607B68092BCCBF00230123DBB2002BEFD104A154
S32D00010DF8D1E9000102F048F807F10807BD4680BD9A9999999999B93F90B486B000AFF860B9607A60FA684FF4F0
S32D00010E202043C4F206039A4214D14FF4E043C4F204034FF4E042C4F2040202F5805202F13402126842F48062F8
S32D00010E4803F5805303F134031A6083E0FA684FF43043C4F206039A4214D14FF4E043C4F204034FF4E042C4F2D2
S32D00010E70040202F5805202F13402126842F4006203F5805303F134031A6067E0FA684FF44043C4F206039A42CF
S32D00010E9814D14FF4E043C4F204034FF4E042C4F2040202F5805202F13402126842F4805203F5805303F1340398
S32D00010EC01A604BE0FA684FF45043C4F206039A4214D14FF4E043C4F204034FF4E042C4F2040202F5805202F1A6
S32D00010EE83402126842F4005203F5805303F134031A602FE0FA684FF42043C4F20E039A4214D14FF4E043C4F278
S32D00010F1004034FF4E042C4F2040202F5805202F12802126842F4806203F5805303F128031A6013E04FF4E04355
S32D00010F38C4F204034FF4E042C4F2040202F5805202F12802126842F4006203F5805303F128031A60FB68DB789A
S32D00010F60DBB223F00C03DAB2FB68DA70FB684FF000029A70BB684FF47A7202FB03F27B684FEA031392FBF3F3E3
S32D00010F889CB2FB681B78DBB223F01F03FB75234603F4F8534FEA2323DBB203F01F03DAB2FB7D1343DAB2FB68AF
S32D00010FB01A70E2B2FB685A70BB684FF4FA4202FB03F27B684FEA031392FBF3F39AB2234619464FEAC121CB1A7A
S32D00010FD84FEA43139BB2D3189CB2FB689B7ADBB223F01F03FB75E3B203F01F03DAB2FB7D1343DAB2FB689A722C
S32D00011000FB68DB78DBB243F00C03DAB2FB68DA7007F11807BD4690BC704700BF80B483B000AF786000BF7B6897
S32D000110281B79DBB203F02003002B14BF00230123DBB2002BF3D17B68DB79DBB2184607F10C07BD4680BC70477E
S32D0001105080B483B000AF78600B46FB7000BF7B681B79DBB2DBB26FEA0303DBB24FEAD313DBB2002BF3D17B680D
S32D00011078FA78DA7107F10C07BD4680BC704700BF80B487B000AFF860B9607A60FB687B6107E0BB68DAB27B69AE
S32D000110A01A707B6903F101037B617B68002B0CBF00230123DBB27A6802F1FF327A60002BEBD107F11C07BD464D
S32D000110C880BC704780B584B000AF786039607B681B6BFB60FA683B689A4264D07B681B79002B43D07B685A783A
S32D000110F07B6803F1340310461946FA684FF0010301F0ACFB0346002B0CBF00230123DBB2002B02D04FF001037E
S32D000111184BE07B684FF000021A717B685A6A7B681B6AD218FB689A4220D97B68DB78FB7214E07B681B6AFA683C
S32D00011140D318FB607B685A787B6803F1340310461946FA684FF0010301F080FBFB7A03F1FF33FB72FB7A012B08
S32D0001116894BF00230123DBB2002BE2D13B68002B19D07B685A787B6803F13403104619463A684FF0010301F04E
S32D0001119057FA0346002B0CBF00230123DBB2002B02D04FF0010304E07B683A681A634FF00003184607F11007F7
S32D000111B8BD4680BD80B584B000AF786078684FF00001FFF77FFF0346FB73FB7B002B40F0AE807B681B78032BEA
S32D000111E040F095807B685B79002B00F090807B684FF000021A637B6803F1340318464FF000014FF40072FFF7C1
S32D000112083FFF7B684FF0550283F832227B684FF0AA0283F833227B684FF0520283F834207B684FF0520283F85D
S32D0001123035207B684FF0610283F836207B684FF0410283F837207B684FF0720283F818227B684FF0720283F851
S32D0001125819227B684FF0410283F81A227B684FF0610283F81B227B681B69DAB27B6883F81C227B681B699BB290
S32D000112804FEA2323DAB27B6883F81D227B681B694FEA1343DAB27B6883F81E227B681B694FEA1363DAB27B68F2
S32D000112A883F81F227B68DB68DAB27B6883F820227B68DB689BB24FEA2323DAB27B6883F821227B68DB684FEA8B
S32D000112D01343DAB27B6883F822227B68DB684FEA1363DAB27B6883F823227B6859787B6803F134027B685B69FF
S32D000112F8084611461A464FF0010301F0ABFA7B684FF000025A717B685B7818464FF000014FF0000201F084FBF5
S32D000113200346002B0CBF00230123DBB2002B02D04FF00103FB73FB7B184607F11007BD4680BD00BF80B582B094
S32D0001134800AF78600B467B807B68002B08D07B681B78002B04D07B68DB887A889A4202D04FF009030FE07B6835
S32D000113705B78184601F0ECFB034603F00103DBB2002B02D04FF0030301E04FF00003184607F10807BD4680BD6E
S32D0001139880B586B000AF78607B681A687B689B8810461946FFF7CAFF0346FB75FB7D002B40F0C8807B689B798A
S32D000113C003F02003002B00F0C1807B689B7903F04003002B20D07B681B6859787B6803F128027B689B690846D7
S32D000113E811461A464FF0010301F034FA0346002B0CBF00230123DBB2002B02D04FF00103A1E07B689B7923F0DF
S32D000114104003DAB27B689A717B681A687B68DB6910461946FFF752FE0346FB75FB7D002B40F08C807B681B6A69
S32D000114383B613B6903F10B033A6902F10B02127842F02002D2B21A703B6903F11C037A68D268D2B21A703B692F
S32D0001146003F11D037A68D26892B24FEA2222D2B21A703B6903F11E037A68D2684FEA1242D2B21A703B6903F156
S32D000114881F037A68D2684FEA1262D2B21A703B6903F11A037A681269D2B21A703B6903F11B037A68126992B2C5
S32D000114B04FEA2222D2B21A703B6903F114037A6812694FEA1242D2B21A703B6903F115037A6812694FEA124241
S32D000114D892B24FEA2222D2B21A704FF00003FB603B6903F11603FA68D2B21A703B6903F11703FA6892B24FEAC7
S32D000115002222D2B21A703B6903F11803FA684FEA1242D2B21A703B6903F11903FA684FEA1262D2B21A707B6806
S32D000115289B7923F02003DAB27B689A717B681B684FF001021A717B681B681846FFF73AFE0346FB75FB7D18461C
S32D0001155007F11807BD4680BD80B584B000AF78607868FFF719FF0346FB73FB7B002B03D17B684FF000021A606D
S32D00011578FB7B184607F11007BD4680BD80B588B000AF786039604FF080033B614FF00F03FB604FF0FF337B613D
S32D000115A04FF00203FB612AE04FF00103BB611AE0FB69BA6902FB03F33A6802FB03F27B68D31ABB60BB68002BD2
S32D000115C809DBBA687B699A4205D2BB687B61FB693B61BB69FB60BB6903F10103BB61BB69102B8CBF00230123B0
S32D000115F0DBB2002BDCD1FB694FEA4303FB61FB69B3F5807F8CBF00230123DBB2002BCBD14FF48053C4F20B035D
S32D000116184FF48052C4F20B02D26A22F00802DA624FF48053C4F20B03DB6A1A464FF00F03CFF6F0731340BB61D0
S32D000116404FF48053C4F20B033A694FEA52024FEA02224FEA02424FEA1242F96801F1FF314FEA0111C9B211436D
S32D00011668BA690A4342F46022DA6203E04FF00A0001F0EEFB4FF48053C4F20B035B6A03F00803002B14BF00232B
S32D000116900123DBB2002BEDD14FF48053C4F20B034FF48052C4F20B02D26A42F00802DA624FF48053C4F20B0351
S32D000116B84FF48052C4F20B02126B42F480121A6307F12007BD4680BD80B582B000AF786039607B684FF000025F
S32D000116E01A604FF48053C4F20B034FF40042C0F20012DA624FF48053C4F20B03DB6A03F08073002B0CBF0023E4
S32D000117080123DBB2002BF1D14FF48053C4F20B034FF00002C3F8C0204FF48053C4F20B034FF481325A604FF491
S32D000117308053C4F20B034FF028029A624FF48053C4F20B034FF001125A643B689B6818464CF66041C0F2050105
S32D00011758FFF714FF4FF48053C4F20B035B6A03F00303002B0CBF00230123DBB2002BF1D14FF45043C4F2040377
S32D0001178040F243421A604FF45043C4F2040340F243425A604FF45043C4F204034FF488629A604FF45043C4F2BF
S32D000117A8040340F24342DA604FF45043C4F2040340F243421A614FF45043C4F2040340F243425A614FF4E043EA
S32D000117D0C4F204034FF4E042C4F2040202F5805202F13002126842F4003203F5805303F130031A604FF48053BA
S32D000117F8C4F20B034FF6FF721A634FF48053C4F20B034FF0B302C0F27F025A634FF48053C4F20B034FF480521E
S32D00011820C4F20B02D26A42F00062DA624FF48053C4F20B03DB6A03F00063002B0CBF00230123DBB2002BF1D19E
S32D000118484FF48053C4F20B035B6A03F48033002B0CBF00230123DBB2002B03D07B684FF001021A604FF48053AB
S32D00011870C4F20B034FF48052C4F20B02126B42F080021A634FF00003184607F10807BD4680BD00BF80B400AF76
S32D000118984FF48053C4F20B035B6A1A4640F207331340002B0CBF00230123DBB21846BD4680BC704780B485B0DC
S32D000118C000AF78604FF48053C4F20B031B6B1A467B681340FB60FB68002B14BF00230123DBB2002BEED1FB689F
S32D000118E8184607F11407BD4680BC704780B584B000AF78607B681B7803F03F024CF2C023C0F2010353F822305C
S32D00011910FB60FB68002B06D17B681B78002B02D04FF0010330E14FF48053C4F20B034FF48052C4F20B02126BF2
S32D0001193842F080021A634FF48053C4F20B035B6A03F00103DBB2002BF5D14FF48053C4F20B037A6852689A60CB
S32D00011960FB6823F44003FB607B685B784FEA835303F44003FA681343FB607B685B78022B03D1FB6843F40013CA
S32D00011988FB607B685B78042B16D1FB6803F44033B3F5003F08D1FB6823F44033FB60FB6843F44033FB6007E0E5
S32D000119B0FB6823F44033FB60FB6843F40033FB604FF48053C4F20B034FF48052C4F20B0252684FEA02424FEA76
S32D000119D812425A607B68DB68002B32D0FB6803F44033B3F5403F03D0FB6843F40013FB607B681B7A002B03D03A
S32D00011A00FB6843F01003FB607B68DB68012B03D9FB6843F02003FB607B68DB68B3F1FF3F13D04FF48053C4F2BA
S32D00011A280B034FF48052C4F20B02526811467A68D2684FEA02420A435A60FB6843F00203FB604FF48053C4F236
S32D00011A500B034FF000021A604FF48053C4F20B03FA68DA604FF00100C0F20E00FFF726FF0346012B0CBF0023AA
S32D00011A780123DBB2002B10D04FF48053C4F20B034FF48052C4F20B02126B42F4702242F001021A634FF0010397
S32D00011AA072E04FF48053C4F20B031B6B03F08003002B0CBF00230123DBB2002B0ED04FF48053C4F20B034FF4FF
S32D00011AC88052C4F20B02126B42F001121A634FF0010355E04FF48053C4F20B031B6B03F48033002B0CBF002380
S32D00011AF00123DBB2002B0ED04FF48053C4F20B034FF48052C4F20B02126B42F001121A634FF0FF3338E0FB6830
S32D00011B1803F44033002B25D04FF48053C4F20B031B691A467B681A61FB6803F44033B3F5803F17D14FF48053C6
S32D00011B40C4F20B035B691A467B685A614FF48053C4F20B039B691A467B689A614FF48053C4F20B03DB691A4656
S32D00011B687B68DA614FF48053C4F20B034FF48052C4F20B02126B42F001021A634FF00003184607F11007BD469D
S32D00011B9080BD00BF80B592B000AF786039604FF00003FB633B68BB6341F28413C1F6FF737B637B6B002B03D17C
S32D00011BB840F6012300F0A0BC41F28833C1F6FF733B633B6B002B03D140F60B2300F094BC3B6B1B68FB62FB6A6F
S32D00011BE0002B03D140F60B2300F08ABC7B6841F20432934200F0388241F2043293421BD841F20132934238D0FE
S32D00011C0841F20132934207D8032B00F03D84092B00F0298400F066BC41F20232934200F0128241F203329342D4
S32D00011C3000F0BE8300F05ABC41F20732934200F04B8341F2073293420BD841F20532934200F0348241F20632DB
S32D00011C58934200F0108300F045BC41F20832934200F0B68241F20932934200F0C48200F039BC786B4CF2B42156
S32D00011C80C0F20101FFF724FD0346FB63FB6B002B40F030844FF0000387F847304FF0000387F82B304FF00003B8
S32D00011CA887F82A304FF0000387F829304FF0000387F846304FF0000387F828304FF000033B724FF000037B72AC
S32D00011CD04FF00003FB604FF000033B744FF000037B6107F108031846FFF704FE0346002B0CBF00230123DBB2CD
S32D00011CF8002B03D04FF00103FB63FCE340F24C4001F0A6F84FF008033B724FF000037B724FF4D573FB604FF0A7
S32D00011D2000033B744FF000037B6107F108031846FFF7E0FD03463B643B6C002B0BD1BA69FB689A4203D04FF086
S32D00011D480103FB63D7E34FF0010387F846304FF0010387F8283097F82830002B00F0C6804FF037033B724FF051
S32D00011D7000037B724FF00003FB604FF000033B744FF000037B6107F108031846FFF7B2FD03463B643B6C002BE8
S32D00011D9803D04FF00103FB63ADE34FF069033B724FF000037B724FF00003FB604FF000033B744FF000037B61E5
S32D00011DC007F108031846FFF795FD0346002B0CBF00230123DBB2002B03D04FF00103FB638DE3BB6903F440137B
S32D00011DE8002B00F083804FF000033B644FF00A0001F02EF83B6C03F101033B644FF037033B724FF000037B72DA
S32D00011E104FF00003FB604FF000033B744FF000037B6107F108031846FFF764FD0346002B0CBF00230123DBB22C
S32D00011E38002B03D04FF00103FB6336E04FF069033B724FF000037B7297F84630002B05D04FF00003C4F230030F
S32D00011E60FB6002E04FF44013FB604FF000033B744FF000037B6107F108031846FFF73AFD0346002B0CBF002326
S32D00011E880123DBB2002B03D04FF00103FB630CE0BB69002B05DB3B6C632B02D84FF0010301E04FF00003002B20
S32D00011EB0A0D1FB6B002B40F01F833B6C632B04D94FF0000387F8463014E04FF0010387F8473097F84630002B89
S32D00011ED80CD04FF0000387F84630BB6903F08043002B03D04FF0010387F8463097F82A30002B03D07B6B4FF0AC
S32D00011F0007021A6097F82930002B03D07B6B4FF008021A6097F82B30002B03D07B6B4FF004021A6097F847300D
S32D00011F28002B0BD07B6B4FF002021A6097F84630002B03D07B6B4FF003021A6097F82B30002B0FD097F8473040
S32D00011F50002B0BD07B6B4FF005021A6097F84630002B03D07B6B4FF006021A604FF45043C4F204034FF0000238
S32D00011F781A604FF45043C4F204034FF000025A604FF45043C4F204034FF000029A604FF45043C4F204034FF092
S32D00011FA00002DA604FF45043C4F204034FF000021A614FF45043C4F204034FF000025A61FB6A9A68FB6A5B6869
S32D00011FC810461946FFF7DAFA4FF45043C4F2040340F243421A604FF45043C4F2040340F243425A604FF45043CD
S32D00011FF0C4F204034FF488629A604FF45043C4F2040340F24342DA604FF45043C4F2040340F243421A614FF452
S32D000120185043C4F2040340F243425A614FF4E043C4F204034FF4E042C4F2040202F5805202F13002126842F4F5
S32D00012040003203F5805303F130031A6057E2B86BFFF750FC03463B643B6C002B00F04E824FF00203FB6349E2EE
S32D00012068BB6B002B03D14FF00C03FB6343E24FF48053C4F20B03DB6A03F47F434FEA13234FEA43033B644FF4AB
S32D000120908053C4F20B03DB6A03F0F0034FEA131303F101023B6C02FB03F33B64FB6A9A683B6CB2FBF3F2BB6B0A
S32D000120B81A6020E2BB6B002B03D14FF00C03FB6319E2BB6B1B68002B03D14FF00C03FB6311E2FFF7DBFB034655
S32D000120E0002B14BF00230123DBB2002B70D04FF45043C4F204034FF000021A604FF45043C4F204034FF0000272
S32D000121085A604FF45043C4F204034FF000029A604FF45043C4F204034FF00002DA604FF45043C4F204034FF040
S32D0001213000021A614FF45043C4F204034FF000025A61FB6A9A68BB6B1B6810461946FFF719FA4FF45043C4F21A
S32D00012158040340F243421A604FF45043C4F2040340F243425A604FF45043C4F204034FF488629A604FF450438C
S32D00012180C4F2040340F24342DA604FF45043C4F2040340F243421A614FF45043C4F2040340F243425A614FF475
S32D000121A8E043C4F204034FF4E042C4F2040202F5805202F13002126842F4003203F5805303F130031A6096E154
S32D000121D040F60A23FB6392E1BB6B002B03D14FF00C03FB638BE14FF48053C4F20B035B684FEAC3434FEAD34344
S32D000121F8BA6B13607FE1BB6B002B03D14FF00C03FB6378E1FFF742FB0346002B14BF00230123DBB2002B2AD023
S32D00012220BB6B1A6840F6FF739A4203D94FF00C03FB6364E14FF48053C4F20B034FF48052C4F20B02526822F414
S32D00012248FE5222F03F025A604FF48053C4F20B034FF48052C4F20B0252681146BA6B12684FEAC2424FEAD2421E
S32D000122700A435A6043E140F60A23FB633FE1BB6B002B03D14FF00C03FB6338E14FF48053C4F20B039B6A03F077
S32D0001229806034FEA53033B643B6C002B04D1BB6B4FF000021A6026E13B6C012B04D1BB6B4FF001021A601EE1C8
S32D000122C03B6C102B04D1BB6B4FF002021A6016E14FF00503FB6312E1BB6B002B03D14FF00C03FB630BE1FFF713
S32D000122E8D5FA0346002B14BF00230123DBB2002B56D0BB6B1B68002B16D14FF48053C4F20B034FF48052C4F22C
S32D000123100B02926A22F006029A624FF48053C4F20B034FF48052C4F20B02926A9A62E6E0BB6B1B68012B18D151
S32D000123384FF48053C4F20B034FF48052C4F20B02926A22F006029A624FF48053C4F20B034FF48052C4F20B0200
S32D00012360926A42F002029A62C9E0BB6B1B68022B16D14FF48053C4F20B034FF48052C4F20B02926A22F00602F2
S32D000123889A624FF48053C4F20B034FF48052C4F20B02926A9A62AEE04FF00503FB63AAE040F60A23FB63A6E07C
S32D000123B0BB6B002B03D14FF00C03FB639FE04FF48053C4F20B034FF48052C4F20B02D26A42F00062DA624FF4AD
S32D000123D88053C4F20B03DB6A03F00063002B0CBF00230123DBB2002BF1D14FF48053C4F20B031B6B03F0800317
S32D00012400002B0CBF00230123DBB2002B0FD04FF48053C4F20B034FF48052C4F20B02126B42F080021A637B6B93
S32D000124284FF000021A604FF48053C4F20B035B6A03F48033002B0CBF00230123DBB2002B08D07B6B1B68002B20
S32D0001245008D17B6B4FF001021A6003E07B6B4FF000021A607B6B1A68BB6B1A6047E0BB6B4FF01C021A60BB6B0C
S32D0001247803F104034FF004021A60BB6B03F108034FF41E721A6036E04FF00200FFF712FA4FF48053C4F20B03D6
S32D000124A01B6B03F4E003002B0CBF00230123DBB2002B0ED04FF48053C4F20B034FF48052C4F20B02126B42F475
S32D000124C8E0021A634FF00403FB634FF48053C4F20B034FF48052C4F20B02126B42F032021A6308E040F6092386
S32D000124F0FB6304E000BF02E000BF00E000BFFB6B184607F14807BD4680BD00BF80B489B000AF786039607B6802
S32D000125187B6141F28413C1F6FF733B613B69002B02D14FF0000381E03B691B68022B0BD03B691B68032B07D089
S32D000125403B691B68072B03D03B691B68082B0DD14FF48053C4F20B035B6A03F00403002B0CBF00230123DBB2A5
S32D00012568002BF1D13B68FB6156E0FB69B3F5007F28BF4FF40073FB60FB6803F103034FEA9303BB613CE04FF4F8
S32D000125908053C4F20B031B6B03F4E003002B0CBF00230123DBB2002B10D04FF48053C4F20B034FF48052C4F2AB
S32D000125B80B02126B42F4E00242F020021A634FF0000333E04FF48053C4F20B035B6A03F40063002B14BF002312
S32D000125E00123DBB2002BF1D14FF48053C4F20B031B6A1A467B691A607B6903F104037B61BB6903F1FF33BB61F0
S32D00012608BB69002B0CBF00230123DBB2002BBAD1FA69FB68D31AFB61FB69002B0CBF00230123DBB2002BA0D126
S32D000126304FF00103184607F12407BD4680BC704780B58EB000AFB9607A600246FA73BB7341F27013C1F6FF73EA
S32D000126587B63FB7B002B02D1BB7B002B02D14FF0040381E040F20043C1F6FF731B78DBB203F00103DBB2002BB9
S32D0001268002D04FF0030373E0BB68002B02D14FF000036DE07B6B1B7B002B03D17B684FEA43237B60BB7B012BD7
S32D000126A82CD14FF011033B754FF000037B757B68BB614FF001033B77BB7B3B6207F1140341F202301946FFF741
S32D000126D061FA0346002B14BF00230123DBB2002B3ED0B8684FF40071FFF710FF0346002B0CBF00230123DBB240
S32D000126F8002B31D04FF00003BB732DE04FF012033B754FF000037B757B68BB614FF001033B77BB7B3B6207F115
S32D00012720140341F202301946FFF734FA0346002B14BF00230123DBB2002B11D0BB7B4FEA4323B8681946FFF71A
S32D00012748E1FE0346002B0CBF00230123DBB2002B02D04FF00003BB73BB7B002B02D04FF0010301E04FF000036A
S32D00012770184607F13807BD4680BD00BF80B487B000AF786039607B68FB603B687B6155E07B69B3F5007F28BF37
S32D000127984FF400733B617A693B69D31A7B613B6903F103034FEA93033B613BE04FF48053C4F20B031B6B03F4F5
S32D000127C0E003002B0CBF00230123DBB2002B10D04FF48053C4F20B034FF48052C4F20B02126B42F4E00242F0B9
S32D000127E810021A634FF0FF332EE04FF48053C4F20B035B6A03F48063002B14BF00230123DBB2002BF1D14FF439
S32D000128108053C4F20B03FA6812681A62FB6803F10403FB603B6903F1FF333B613B69002B0CBF00230123DBB21D
S32D00012838002BBBD17B69002B0CBF00230123DBB2002BA1D14FF00103184607F11C07BD4680BC704780B58EB04A
S32D0001286000AFB9607A600246FA73BB7341F27013C1F6FF737B63FB7B002B02D1BB7B002B02D14FF00403CAE06F
S32D0001288840F20043C1F6FF731B78DBB203F00103DBB2002B02D04FF00303BCE040F20043C1F6FF731B78DBB243
S32D000128B003F00403002B0CBF00230123DBB2002B02D04FF00203AAE0BB68002B02D14FF00003A4E07B6B1B7B07
S32D000128D8002B03D17B684FEA43237B60BB7B012B2CD14FF018033B754FF000037B757B68BB614FF000033B77E7
S32D00012900BB7B3B6207F1140341F202301946FFF741F90346002B14BF00230123DBB2002B3ED0B8684FF40071AA
S32D00012928FFF728FF0346002B0CBF00230123DBB2002B31D04FF00003BB732DE04FF019033B754FF000037B756A
S32D000129507B68BB614FF000033B77BB7B3B6207F1140341F202301946FFF714F90346002B14BF00230123DBB2A1
S32D00012978002B11D0BB7B4FEA4323B8681946FFF7F9FE0346002B0CBF00230123DBB2002B02D04FF00003BB7363
S32D000129A04FF00D033B754FF000037B757B6B1B69BB614FF000033B774FF000033B6207F1140341F202301946AB
S32D000129C8FFF7E4F80346002B0CBF00230123DBB2002B02D04FF001031DE07A6A48F20803CFF6D9731340002B06
S32D000129F002D04FF0010312E07B6A03F4F853B3F5106F0CBF00230123DBB2002BC8D1BB7B002B02D04FF001038A
S32D00012A1801E04FF00003184607F13807BD4680BD80B58CB000AF0B463A600246FA71BB7141F27013C1F6FF73CE
S32D00012A40BB62FB79002B02D04FF004037AE04FF0010387F82F3040F20043C1F6FF731B78DBB203F00103DBB2D6
S32D00012A68002B02D04FF0030368E0BB79032B5FD801A252F823F000BF912A01009B2A0100AD2A0100BF2A010019
S32D00012A904FF0000387F82F3052E0BB6A9A683B681A604FF0000387F82F3049E03B684FF400721A804FF0000304
S32D00012AB887F82F3040E04FF009033B724FF000037B72BB6A1B69FB604FF000033B744FF000037B6107F10803B4
S32D00012AE041F202301946FFF755F80346002B0CBF00230123DBB2002B02D04FF0010321E07B6A03F44003002B22
S32D00012B0811D13B6A4FEA934303F07F0303F101027B6A4FEA132303F0030303F1FF3302FA03F23B681A604FF0DC
S32D00012B30000387F82F3003E04FF0040387F82F3097F82F30184607F13007BD4680BD00BF80B483B000AF0346B5
