S00F00002E2E2F526F626F742E73313954
S32D0000C000000000207D060100D9090100D9090100D9090100D9090100D9090100000000000000000000000000FF
S32D0000C02800000000D9090100D909010000000000D9090100D9090100D9090100D9090100D9090100D9090100D2
S32D0000C050D9090100D9090100D9090100D9090100D9090100D9090100D9090100D9090100D9090100D9090100E4
S32D0000C078D9090100D9090100D9090100D9090100D9090100D9090100D9090100D9090100D9090100D9090100BC
S32D0000C0A0D9090100D9090100D9090100D9090100D9090100D9090100D9090100D9090100D9090100D909010094
S32D0000C0C8D9090100D9090100D9090100D9090100D9090100D9090100D9090100D9090100D9090100D90901006C
S32D0000C0F0D909010005A30100D9090100D9090100D9090100D9090100D9090100D9090100D9090100D90901007E
S32D0000C118D9090100D9090100D9090100D9090100D9090100D9090100D9090100D9090100D9090100D90901001B
S32D0000C140D9090100D9090100D9090100D90901002D6D0100D9090100D9090100D9090100D9090100D90901003B
S32D0000C168D9090100D9090100D9090100D9090100D9090100D9090100D9090100D9090100D9090100D9090100CB
S32D0000C190D9090100D9090100D90901008D670100E1650100B5660100290A010065680100D9090100D9090100B8
S32D0000C1B8D9090100D9090100D9090100D9090100D9090100D9090100D9090100D9090100D9090100D90901007B
S32D0000C41081F0004102E000BF83F0004330B54FEA41044FEA430594EA050F08BF90EA020F1FBF54EA000C55EAC6
S32D0000C438020C7FEA645C7FEA655C00F0E2804FEA5454D4EB5555B8BF6D420CDD2C4480EA020281EA030382EA0F
S32D0000C460000083EA010180EA020281EA0303362D88BF30BD11F0004F4FEA01314FF4801C4CEA113102D0404263
S32D0000C48861EB410113F0004F4FEA03334CEA133302D0524263EB430394EA050F00F0A780A4F10104D5F1200E8A
S32D0000C4B00DDB02FA0EFC22FA05F2801841F1000103FA0EF2801843FA05F359410EE0A5F120050EF1200E012A2D
S32D0000C4D803FA0EFC28BF4CF0020C43FA05F3C01851EBE37101F0004507D54FF0000EDCF1000C7EEB00006EEB67
S32D0000C5000101B1F5801F1BD3B1F5001F0CD349085FEA30004FEA3C0C04F101044FEA445212F5800F80F09A8000
S32D0000C528BCF1004F08BF5FEA500C50F1000041EB045141EA050130BD5FEA4C0C404141EB010111F4801FA4F114
S32D0000C5500104E9D191F0000F04BF01460020B1FA81F308BF2033A3F10B03B3F120020CDA0C3208DD02F1140C87
S32D0000C578C2F10C0201FA0CF021FA02F10CE002F11402D8BFC2F1200C01FA02F120FA0CFCDCBF41EA0C019040B1
S32D0000C5A0E41AA2BF01EB0451294330BD6FEA04041F3C1CDA0C340EDC04F11404C4F1200220FA04F001FA02F3B6
S32D0000C5C840EA030021FA04F345EA030130BDC4F10C04C4F1200220FA02F001FA04F340EA0300294630BD21FAA8
S32D0000C5F004F0294630BD94F0000F83F4801306BF81F480110134013D4EE77FEA645C18BF7FEA655C29D094EA1C
S32D0000C618050F08BF90EA020F05D054EA000C04BF1946104630BD91EA030F1EBF0021002030BD5FEA545C05D1A3
S32D0000C6404000494128BF41F0004130BD14F580043CBF01F5801130BD01F0004545F0FE4141F470014FF0000031
S32D0000C66830BD7FEA645C1ABF194610467FEA655C1CBF0B46024650EA013406BF52EA033591EA030F41F40021D7
S32D0000C69030BD00BF90F0000F04BF0021704730B54FF4806404F132044FF000054FF0000150E700BF90F0000F66
S32D0000C6B804BF0021704730B54FF4806404F1320410F0004548BF40424FF000013EE700BF42004FEAE2014FEAF9
S32D0000C6E031014FEA02701FBF12F07F4393F07F4F81F06051704792F0000F14BF93F07F4F704730B54FF460741B
S32D0000C70801F0004521F0004120E700BF50EA010208BF704730B54FF000050AE050EA010208BF704730B511F046
S32D0000C730004502D5404261EB41014FF4806404F132045FEA915C3FF4DCAE4FF003025FEADC0C18BF03325FEAA0
S32D0000C758DC0C18BF033202EBDC02C2F1200300FA03FC20FA02F001FA03FE40EA0E0021FA02F11444C1E600BF19
S32D0000C78070B54FF0FF0C4CF4E06C1CEA11541DBF1CEA135594EA0C0F95EA0C0F00F0DEF82C4481EA030621EAF3
S32D0000C7A84C5123EA4C5350EA013518BF52EA033541F4801143F4801338D0A0FB02CE4FF00005E1FB02E506F05F
S32D0000C7D00042E0FB03E54FF00006E1FB03569CF0000F18BF4EF0010EA4F1FF04B6F5007F64F5407404D25FEA0F
S32D0000C7F84E0E6D4146EB060642EAC62141EA55514FEAC52040EA5E504FEACE2EB4F1FD0C88BFBCF5E06F1ED8D2
S32D0000C820BEF1004F08BF5FEA500E50F1000041EB045170BD06F0004646EA010140EA020081EA0301B4EB5C0487
S32D0000C848C2BFD4EB0C0541EA045170BD41F480114FF0000E013C00F3AB8014F1360FDEBF002001F0004170BDF0
S32D0000C870C4F10004203C35DA0C341BDC04F11404C4F1200500FA05F320FA04F001FA05F240EA020001F0004207
S32D0000C89821F0004110EBD37021FA04F642EB06015EEA430E08BF20EAD37070BDC4F10C04C4F1200500FA04F32F
S32D0000C8C020FA05F001FA04F240EA020001F0004110EBD37041F100015EEA430E08BF20EAD37070BDC4F12005C7
S32D0000C8E800FA05F24EEA020E20FA04F301FA05F243EA020321FA04F001F0004121FA04F220EA020000EBD37028
S32D0000C9105EEA430E08BF20EAD37070BD94F0000F0FD101F00046400041EB010111F4801F08BF013CF7D041EA6D
S32D0000C938060195F0000F18BF704703F00046520043EB030313F4801F08BF013DF7D043EA0603704794EA0C0FF1
S32D0000C9600CEA135518BF95EA0C0F0CD050EA410618BF52EA4306D1D181EA030101F000414FF0000070BD50EA38
S32D0000C988410606BF1046194652EA430619D094EA0C0F02D150EA013613D195EA0C0F05D152EA03361CBF10467B
S32D0000C9B019460AD181EA030101F0004141F0FE4141F470014FF0000070BD41F0FE4141F4780170BD70B54FF04D
S32D0000C9D8FF0C4CF4E06C1CEA11541DBF1CEA135594EA0C0F95EA0C0F00F0A7F8A4EB050481EA030E52EA03359B
S32D0000CA004FEA013100F088804FEA03334FF0805545EA131343EA12634FEA022245EA111545EA10654FEA002676
S32D0000CA280EF000419D4208BF964244F1FD0404F5407402D25B084FEA3202B61A65EB03055B084FEA32024FF461
S32D0000CA5080104FF4002CB6EB020E75EB030E22BFB61A754640EA0C005B084FEA3202B6EB020E75EB030E22BF22
S32D0000CA78B61A754640EA5C005B084FEA3202B6EB020E75EB030E22BFB61A754640EA9C005B084FEA3202B6EBEA
S32D0000CAA0020E75EB030E22BFB61A754640EADC0055EA060E18D04FEA051545EA16754FEA06164FEAC30343EAAC
S32D0000CAC852734FEAC2025FEA1C1CC0D111F4801F0BD141EA00014FF000004FF0004CB6E711F4801F04BF0143AE
S32D0000CAF00020B4F1FD0C88BFBCF5E06F3FF6AFAEB5EB030C04BFB6EB020C5FEA500C50F1000041EB045170BDBC
S32D0000CB180EF0004E4EEA113114EB5C04C2BFD4EB0C0541EA045170BD41F480114FF0000E013C90E645EA060EC3
S32D0000CB408DE60CEA135594EA0C0F08BF95EA0C0F3FF43BAF94EA0C0F0AD150EA01347FF434AF95EA0C0F7FF499
S32D0000CB6825AF104619462CE795EA0C0F06D152EA03353FF4FDAE1046194622E750EA410618BF52EA43067FF432
S32D0000CB90C5AE50EA41047FF40DAF52EA43057FF4EBAE12E74FF0FF3C06E000BF4FF0010C02E000BF4FF0010C75
S32D0000CBB84DF804CD4FEA410C7FEA6C5C4FEA430C18BF7FEA6C5C1BD001B050EA410C0CBF52EA430C91EA030FEC
S32D0000CBE002BF90EA020F0020704710F1000F91EA030F58BF994208BF90422CBFD8176FEAE37040F0010070476E
S32D0000CC084FEA410C7FEA6C5C02D150EA013C07D14FEA430C7FEA6C5CD6D152EA033CD3D05DF8040B704700BFCD
S32D0000CC308446104662468C461946634600E000BF01B5FFF7B7FF002848BF10F1000F01BD4DF808EDFFF7F4FF13
S32D0000CC580CBF012000205DF808FB00BF4DF808EDFFF7EAFF34BF012000205DF808FB00BF4DF808EDFFF7E0FF18
S32D0000CC8094BF012000205DF808FB00BF4DF808EDFFF7CEFF94BF012000205DF808FB00BF4DF808EDFFF7C4FF40
S32D0000CCA834BF012000205DF808FB00BF4FEA410212F5001215D211D56FF47873B3EB625212D94FEAC12343F0D6
S32D0000CCD0004343EA505311F0004F23FA02F018BF404270474FF00000704750EA013005D111F0004008BF6FF016
S32D0000CCF8004070474FF00000704700BF4A0011D212F5001211D20DD56FF47873B3EB62520ED44FEAC12343F085
S32D0000CD20004343EA505323FA02F070474FF00000704750EA013002D14FF0FF3070474FF0000070474FEA410241
S32D0000CD48B2F1E04324BFB3F5001CDCF1FE5C0DD901F0004C4FEAC0024CEA5070B2F1004F40EB830008BF20F09E
S32D0000CD700100704711F0804F21D113F13872BCBF01F00040704741F480114FEA5252C2F11802C2F1200C10FAB1
S32D0000CD980CF320FA02F018BF40F001004FEAC1234FEAD32303FA0CFC40EA0C0023FA02F34FEA4303CCE77FEA26
S32D0000CDC0625307D150EA01331EBF4FF0FE4040F44000704701F0004040F0FE4040F40000704700BF80F00040CC
S32D0000CDE802E000BF81F0004142001FBF5FEA410392EA030F7FEA226C7FEA236C6AD04FEA1262D2EB1363C1BF06
S32D0000CE10D218414048404140B8BF5B42192B88BF704710F0004F40F4000020F07F4018BF404211F0004F41F4FA
S32D0000CE38000121F07F4118BF494292EA030F3FD0A2F1010241FA03FC10EB0C00C3F1200301FA03F100F000432B
S32D0000CE6002D5494260EB4000B0F5000F13D3B0F1807F06D340084FEA310102F10102FE2A51D2B1F1004F40EB94
S32D0000CE88C25008BF20F0010040EA03007047490040EB000010F4000FA2F10102EDD1B0FA80FCACF1080CB2EB5F
S32D0000CEB00C0200FA0CF0AABF00EBC25052421843BCBFD0401843704792F0000F81F4000106BF80F400000132EB
S32D0000CED8013BB5E74FEA41037FEA226C18BF7FEA236C21D092EA030F04D092F0000F08BF0846704790EA010FD7
S32D0000CF001CBF0020704712F07F4F04D1400028BF40F00040704712F100723CBF00F50000704700F0004343F0DC
S32D0000CF28FE4040F4000070477FEA226216BF08467FEA23630146420206BF5FEA412390EA010F40F480007047C1
S32D0000CF504FF0000304E000BF10F0004348BF40425FEA000C08BF704743F0964301464FF000001CE050EA010264
S32D0000CF7808BF70474FF000030AE000BF50EA010208BF704711F0004302D5404261EB41015FEA010C02BF84465B
S32D0000CFA00146002043F0B64308BFA3F18053A3F50003BCFA8CF2083AA3EBC25310DB01FA02FC634400FA02FC6B
S32D0000CFC8C2F12002BCF1004F20FA02F243EB020008BF20F00100704702F1200201FA02FCC2F1200250EA4C0034
S32D0000CFF021FA02F243EB020008BF20EADC7070474FF0FF0C1CEAD0521EBF1CEAD15392EA0C0F93EA0C0F6FD019
S32D0000D0181A4480EA010C400218BF5FEA41211ED04FF0006343EA501043EA5111A0FB01310CF00040B1F5000FE7
S32D0000D0403EBF490041EAD3715B0040EA010062F17F02FD2A1DD8B3F1004F40EBC25008BF20F00100704790F058
S32D0000D068000F0CF0004C08BF49024CEA502040EA51207F3AC2BFD2F1FF0340EAC250704740F400004FF0000388
S32D0000D090013A5DDC12F1190FDCBF00F000407047C2F10002410021FA02F1C2F1200200FA02FC5FEA310040F1D5
S32D0000D0B8000053EA4C0308BF20EADC70704792F0000F00F0004C02BF400010F4000F013AF9D040EA0C0093F04C
S32D0000D0E0000F01F0004C02BF490011F4000F013BF9D041EA0C018FE70CEAD15392EA0C0F18BF93EA0C0F0AD00B
S32D0000D10830F0004C18BF31F0004CD8D180EA010000F00040704790F0000F17BF90F0004F084691F0000F91F0BB
S32D0000D130004F14D092EA0C0F01D142020FD193EA0C0F03D14B0218BF084608D180EA010000F0004040F0FE4051
S32D0000D15840F40000704740F0FE4040F4400070474FF0FF0C1CEAD0521EBF1CEAD15392EA0C0F93EA0C0F69D044
S32D0000D180A2EB030280EA010C49024FEA402037D04FF0805343EA111143EA10130CF000408B4238BF5B0042F14E
S32D0000D1A87D024FF4000C8B4224BF5B1A40EA0C00B3EB510F24BFA3EB510340EA5C00B3EB910F24BFA3EB9103A4
S32D0000D1D040EA9C00B3EBD10F24BFA3EBD10340EADC001B0118BF5FEA1C1CE0D1FD2A3FF650AF8B4240EBC25018
S32D0000D1F808BF20F0010070470CF0004C4CEA50207F32C2BFD2F1FF0340EAC250704740F400004FF00003013AF1
S32D0000D22037E792F0000F00F0004C02BF400010F4000F013AF9D040EA0C0093F0000F01F0004C02BF490011F4C9
S32D0000D248000F013BF9D041EA0C0195E70CEAD15392EA0C0F08D142027FF47DAF93EA0C0F7FF470AF084676E7AE
S32D0000D27093EA0C0F04D14B023FF44CAF08466EE730F0004C18BF31F0004CCAD130F000427FF45CAF31F0004376
S32D0000D2987FF43CAF5FE700BF4FF0FF3C06E000BF4FF0010C02E000BF4FF0010C4DF804CD4FEA40024FEA41039F
S32D0000D2C07FEA226C18BF7FEA236C11D001B052EA530C18BF90EA010F58BFB2EB030088BFC81738BF6FEAE1706E
S32D0000D2E818BF40F0010070477FEA226C02D15FEA402C05D17FEA236CE4D15FEA412CE1D05DF8040B704700BF16
S32D0000D310844608466146FFE70FB5FFF7C9FF002848BF10F1000F0FBD4DF808EDFFF7F4FF0CBF012000205DF839
S32D0000D33808FB00BF4DF808EDFFF7EAFF34BF012000205DF808FB00BF4DF808EDFFF7E0FF94BF012000205DF8A9
S32D0000D36008FB00BF4DF808EDFFF7D2FF94BF012000205DF808FB00BF4DF808EDFFF7C8FF34BF012000205DF8B1
S32D0000D38808FB00BF4FEA4002B2F1FE4F0FD34FF09E03B3EB12620DD94FEA002343F0004310F0004F23FA02F060
S32D0000D3B018BF404270474FF00000704712F1610F01D1420205D110F0004008BF6FF0004070474FF00000704797
S32D0000D3D8036803B11B181846704700BF03685A004CBF43F0004323F00043C018704700BF2DE9F84F0446914699
S32D0000D40041B301F1FF3BDA46002707EB0A0101EBD1756D1004EBC5063046FFF7E3FF8046681CAB4504EBC000FA
S32D0000D4280DD0FFF7DBFF0138C84504D9BD4209D005F1FF3AE5E7484505D26F1CE1E74FF0FF30F1E7002630469A
S32D0000D450BDE8F88F0E463046BDE8F88F30B52B4B83B004468D1E002B49D0284601A9AFF300800346002822D028
S32D0000D4782A4618460199FFF7BBFF054600281DD0FFF7ACFF6B68A064012B10D0281D002B22DBFFF7A3FF002164
S32D0000D4A0E06421650368002B0FDBFFF79BFF2061002003B030BD002323610520F9E720610920F6E72061092066
S32D0000D4C8F3E7C3F3036058B101280CD002280ED0002020610920E8E70122E0642265DDE7094B2361E1E7094AEF
S32D0000D4F000202261DDE7084900202161D9E7074B0749C81AC2100192B6E700BF0000000029DA000025DA0000AD
S32D0000D51821DA00007C02020074040200036810B50446D80706D4990704F1480009D500F00DFD23685A0709D53E
S32D0000D54018070ED5D90613D510BD00F0FBFC23685A07F5D404F1D00000F004FD23681807F0D404F5D87000F036
S32D0000D56805FD2368D906EBD404F50C70BDE8104000F040BD2DE9F0470F1D054691460FCFADF5916D02AC261D09
S32D0000D5900FC60FCF0FC60FCF0FC697E80F00D5F80C80D5F818A0002786E80F00216C27602846FFF753FF06460C
S32D0000D5B8B94514BF4FF00A094FF00909FEB1A16B49F01009616401208DE8100449462A462B46C04700282BD1BA
S32D0000D5E0002E2AD1204692A94FF410720FF096FA082F28D1216C2846FFF730FF06464FF00909002EDFD1206CA8
S32D0000D60821464FF41072686192A80FF083FA2F69294692AA4846B847A09B0746636401208DE8100449462A4681
S32D0000D6302B46C0470028D3D00926304622B00DF5806DBDE8F087072FF6D1201D00F06EFC38B504460D46296C54
S32D0000D6582046FFF7FFFE50B92A6C23696261012021462A4698470828F1D0072801D011F09BFB281D00F056FC77
S32D0000D68011B933B10220704704298CBF0220012070470F2A01D90220704700EB820118464A68009B1A6070474D
S32D0000D6A810B50A4684B000210B4603AC0094FFF7E3FF039804B010BD11B933B10220704704298CBF0220012020
S32D0000D6D070470F2A01D902207047009900EB8202096818465160704710B584B004AB0C4643F8042D0021009330
S32D0000D6F822460B46FFF7E0FF04B010BD2DE9F04FCD6C8BB00C4655F8041B174600F008021E46039200F0030823
S32D0000D7200795002B40F0CF8009020691216D8DF821300323B8F1020F8DF8203008BFA56B11F0010340F0D3807B
S32D0000D748019304F158030293D5F80090B9F1000F00F0CB80022E00F0AE80B5F80090B5F802A00435A26C0F2198
S32D0000D7702AF0010B38469344FFF796FF834518D829F0010CE3440AF0010A09F00103584543EA4A092CBF002056
S32D0000D7980120B9F1010F12D032D2B8F1000F02D0002840F01D810435CEE70AF0010A09F0010343EA4A09002092
S32D0000D7C0B9F1010FECD1B8F1000F40F0B680C8B16B68D5F800909A1C19D0029A013309920DD0281DFFF7F8FDE6
S32D0000D7E84FEAD972014609AB204610F043FB002800F0F280099A002A40F0BA800835A3E7B9F1020F03D00920B1
S32D0000D8100BB0BDE8F08F2B6823F000420092B8F1000F71D1002843D00398002840F0A1800098002800F0A08078
S32D0000D838009BDDF80C90DB0705F1040A40F1B480CDF810800596A846029E12E000998D4200F0D9800996FFF7B5
S32D0000D860BBFD5A46014609AB204610F007FBA946B0B90AF1040A05F1010950460996FFF7ABFD09AB014600228E
S32D0000D888204610F0F7FA0AF1040A834609F101055046BBF1000FD9D04546059EDDF81080009A4A4564D02B68CC
S32D0000D8B0002B7BDB0099481C05EB800548E7D5F804A0083552E70B04C1F30740216D06930222B8F1020F05EB42
S32D0000D8D8800508BFA56B8DF8210011F001038DF820203FF42DAF00200190384606A900F019FC002887D1019A49
S32D0000D900002A43D1082083E70D213846D4F82090FFF7CAFE8145CAD1A26A9542C7D10098291D00220423A0623E
S32D0000D928E26223636163286800286EDB01220192BCE70D213846D4F82090FFF7B1FE81457FF45CAFA16A8D42FE
S32D0000D9507FF458AF2846FFF745FD0F2102463846FFF7C2FE384600212246FFF7BDFE07204EE7009900299BD19B
S32D0000D97838460D21FFF794FE099B20626362A562062041E70F213846FFF78AFE0E2102463846FFF7A5FE3846D5
S32D0000D9A00F211E4AFFF7A0FE072031E7043581E7029950460991FFF70FFD039A014609AB204610F05BFA002805
S32D0000D9C87FF46EAFCDF8108005960AF1040A4FF00109A846029E4CE7CDF824800835B3E62846FFF7FBFC0435CB
S32D0000D9F00646A563204610F0B7FA00283FF407AF38460F213246FFF76FFE072000E74546B2E7009B591C05EBD2
S32D0000DA1881009CE7D1E0010002236FE601236DE600236BE62DE9F0470446E8B004290CD8DFE801F0380391936E
S32D0000DA400F00150C012B96B200F07881052B00F0C780022068B0BDE8F087002BF9D1102AF7D82368D90600F115
S32D0000DA68738164A8019200F0CFFA019AA36BD00744BF53F8040B6490910744BF53F8041B6591500744BF53F8D3
S32D0000DA90041B6691110748BF53F8042B64A8A36348BF679200F0AAFA0020D3E7002BD0D1A36BD00791B244BF42
S32D0000DAB853F8042B62608A0744BF53F8042BA260480744BF53F8042BE2600A0744BF53F8042B2261C80644BF04
S32D0000DAE053F8042B62618A0644BF53F8042BA261480644BF53F8042BE2610A0644BF53F8042B2262C80544BFDC
S32D0000DB0853F8042B62628A0544BF53F8042BA262480544BF53F8042BE2620A0544BF53F8042B2263C80444BFB3
S32D0000DB3053F8042B626311F400501CBF53F8042BA2634A0444BF53F8042BE2630A0444BF53F8042B2264002890
S32D0000DB5840D1A3637AE7012078E7032B7FF475AF160C95B2AA19102A3FF66FAF2368180700F10B8144A800F026
S32D0000DB801BFAA76B4FEA450E3B460DB344A90EF1FF3C01EBC60653F8040B62460CF0010146F8040B92B129B13A
S32D0000DBA853F8041B013A46F8041B0BD01846314650F8045B41F8045B5D68031D75600E1D023AF3D107EB8E03F6
S32D0000DBD044A8A36300F0CEF900203BE7002039E777192022BA42FFF434AF012B00F0A9800F2D40F2A9803746FF
S32D0000DBF8F6B1052B7FF429AF0F2D11D82268D0070ED522F00101052B2160204600F0DA8022F0030240F8482B3D
S32D0000DC20019300F093F9019B1FB12268510700F1B880012B00F0BF800F2D75D9002F40F0A080D4F83890002E29
S32D0000DC48C8462EDD49460DF1080A4FEA46080AEBC50251F8046B08F1FF3000F0010A42F8046BA8F1020CD0B107
S32D0000DC70BAF1000F08D051F8040B0CF1FF3CBCF1FF3F42F8040B0ED00E46104656F804AB40F804AB4968ACF176
S32D0000DC98020C5160311D021DBCF1FF3FF0D109EB8808A7B3102D2CBF2E4610260DF5D079414609EBC60CACF59D
S32D0000DCC0C8724FEA470951F8046B09F1FF3000F0010A42F8046BA9F1020CD0B1BAF1000F08D051F8040B0CF1DE
S32D0000DCE8FF3CBCF1FF3F42F8040B0ED00E46104656F804AB40F804AB4968ACF1020C5160311D021DBCF1FF3FCE
S32D0000DD10F0D108EB8908012B2BD00F2DC4F8388008D9FFB9384695E602A8019300F016F9019B83E702A800F05A
S32D0000DD380DF9F2E77719102250E70F2D3FF685AE102F10D9103F54E723F01003236004F50C70019200F058F99D
S32D0000DD60019A82E624A800F0FDF8002072E6002746E708F1040302A8A36300F0E3F8002068E624A80193C5F116
S32D0000DD88100600F0EFF8019B57E723F0080704F5D870276000F00CF9ECE6204622F0040140F8D01B019300F0D1
S32D0000DDB0DDF8019B3DE702A8019300F0C7F8019B002F3FF43EAFC5F110063AE741F0020140F8481B019300F098
S32D0000DDD8C1F8019B24E700BF406C7047F0B50D460F1DC96B296404460FCFADF5117D01AE0FC60FCF0FC60FCF49
S32D0000DE000FC697E80F0086E80F004FF0FF33009310992046FFF722FB58B9266921466A46B04708280646F3D001
S32D0000DE286846FFF77BFB062E03D009200DF5117DF0BD20462946FFF707FC00BF10B4DC6BC16082611946002228
S32D0000DE501C6410BCFFF792BB38B54269C3680A6404460D4623B10122FFF788FB10F0A0FF0369214602202A46D3
S32D0000DE789847072803D0082804D010F095FF281D00F050F820462946FFF7DEFBC36823B1CA6B0A640022FFF728
S32D0000DEA06DBB9FE7704700BF08B5836801460BB10120984708BD00BFF0B5D46B171D146405460C460FCFADF554
S32D0000DEC8277D01AE0FC60FCF0FC60FCF0FC697E80F0086E80F004FF0FF330093109990A8FFF7B8FA034690AA83
S32D0000DEF068460C21BBB9FFF7F7FB21466846A847064690A908206A466EB9949B98470528064601D00928E5D106
S32D0000DF186846FFF703FB30460DF5277DF0BD0926F6E700BF00F1340191E838009C46A6464CF8045D90E8FF0FD5
S32D0000DF40E54600BD90EC210B704700BF80EC210B704700BF90EC200B704700BF80EC200B704700BFD0EC200B8E
S32D0000DF68704700BFC0EC200B704700BFF0EC0201F0EC0211F0EC0221F0EC0231F0EC0241F0EC0251F0EC02615F
S32D0000DF90F0EC0271F0EC0281F0EC0291F0EC02A1F0EC02B1F0EC02C1F0EC02D1F0EC02E1F0EC02F1704700BFE6
S32D0000DFB8E0EC0201E0EC0211E0EC0221E0EC0231E0EC0241E0EC0251E0EC0261E0EC0271E0EC0281E0EC029155
S32D0000DFE0E0EC02A1E0EC02B1E0EC02C1E0EC02D1E0EC02E1E0EC02F1704700BFB0FC0181B0FC0191B0FC01A159
S32D0000E008B0FC01B1704700BFA0FC0181A0FC0191A0FC01A1A0FC01B1704700BFEC4600B52DE900502DE9FF1F47
S32D0000E0304FF000032DE90C0001A9FFF7D3FEDDF840E012B0704700BFEC4600B52DE900502DE9FF1F4FF00003FD
S32D0000E0582DE90C0001A9FFF7FBFEDDF840E012B0704700BFEC4600B52DE900502DE9FF1F4FF000032DE90C00CD
S32D0000E08001A9FFF707FFDDF840E012B0704700BFEC4600B52DE900502DE9FF1F4FF000032DE90C0001ABFFF718
S32D0000E0A8CDFEDDF840E012B0704700BFEC4600B52DE900502DE9FF1F4FF000032DE90C0001AAFFF7F5FEDDF804
S32D0000E0D040E012B0704700BF027A03461AB9427A42B9B02070470068013A01021A72000E196070474168501E6D
S32D0000E0F8587251F8040B0322596001021A72000E1960704710B5002184B00C220DEB02040B460094FFF7B0FA62
S32D0000E120039804B010BD00BFF0E700BF2DE9F043064685B00D464FF000094FF47F672846FFF7CAFFB028044683
S32D0000E14800F0B08010F0800120D000F0F003802B74D0902B37D0A02B45D0B02B56D0C02B00F0858000F0F800DB
S32D0000E170D0280BD104F00702511C41F40022304601210523FFF752FC0028D8D0092005B0BDE8F0834FEA800267
S32D0000E19803A85FFA82F800900D220B463046FFF76BFA039B600608F104084CBFC8EB0303434403AC03930094CD
S32D0000E1C0002130460D220B46FFF77AFAB7E700F00F020D2ADAD00F2AD8D0002103AC009430460B4603ACFFF77F
S32D0000E1E84BFA0094E8E7C24302F0070C47FA0CF0210700F47F6248BF42F48042002130460B46FFF70FFC00280D
S32D0000E210BCD194E7B1285DD0B2286ED0B32800F0958000F0FC02B42A46D000F00702531C43F40022012130469F
S32D0000E2380B46FFF7F7FB0028A4D17CE72846FFF747FF210240EA0104B4F5004F9AD0230500211A0C30460B46EB
S32D0000E2602401FFF7E3FB002890D114F4004F18BF4FF0010963E7C62873D0C72800F0848000F0F802C02A00F075
S32D0000E2889280C82800F0A680C9287FF47BAF2846FFF71EFF00F00F0300F0F0015A1C42EA013268E7B9F1000F81
S32D0000E2B000F0838000206AE700F00301481C022140F480220B463046FFF7B0FB00287FF45DAF34E72846FFF7FD
S32D0000E2D8FFFE024600283FF455AF10F0F0017FF451AF30460B46FFF79DFB00287FF44AAF21E700210D220B467E
S32D0000E30003AC30460094FFF7BBF92846FFF7E4FE022402060DD5039B00F07F0000FA04FE03EB0E01284603912E
S32D0000E328FFF7D6FE07340306F1D4039B00F07F0103AA03F5017C01FA04F400920CEB0402039239E72846FFF729
S32D0000E350C3FE00F00F03591C00F0F00041EA003268E72846FFF7B8FE00F00F03591C00F0F00041EA00320321E9
S32D0000E37830460B46FFF756FB00287FF403AFDAE62846FFF7A5FE024600283FF4FBAE10F0F0037FF4F7AE304688
S32D0000E3A00421FFF743FB00287FF4F0AEC7E600F00F01481C40F42022DDE703AC49460E224B4630460094FFF773
S32D0000E3C85BF9304649460F224B460094FFF774F94846D8E62846FFF77BFE00F0F00200F00F001032431C43EA3D
S32D0000E3F00232C4E610B5C26C84B0032054688DF80C00D37924020832084601A9019402928DF80D30FFF78AFE7D
S32D0000E41804B010BD08B5FFF783FE806C08BD00BF08B5FFF77DFEC16CC87901EB800303F1080008BD08B510F028
S32D0000E440B7FC00BF08B510F0B3FC00BF80B483B000AF78607B68044A1A607B68184607F10C07BD4680BC704736
S32D0000E468C0F3010080B582B000AF78607B681846FFF7E8FF7B68064A1A607B684FF47F025A607B68184607F17F
S32D0000E4900807BD4680BD00BFA8F3010090B585B000AF78603960386801F02EFB0346002B04D07B684FF00002F4
S32D0000E4B85A6003E07B684FF001025A6007F10C03184601F0E3FE7B685B68012B11D14FF020000FF0C9FB044663
S32D0000E4E020461049104A00F03BF907F10C0318463968224601F0DAFE10E04FF020000FF0B7FB04462046094998
S32D0000E508074A00F029F907F10C0318463968224601F0C8FE07F11407BD4690BD333363410000C8413333D3406E
S32D0000E53080B483B000AF786039604FF00103184607F10C07BD4680BC704700BF80B483B000AF7860396007F156
S32D0000E5580C07BD4680BC704780B483B000AF78604FF00003184607F10C07BD4680BC704780B584B000AFF8608D
S32D0000E580B9607A60FB681846FFF760FFFB68074A1A60FB68BA685A60FB687A689A60FB68184607F11007BD46E5
S32D0000E5A880BD00BF08F4010080B483B000AF7860396007F10C07BD4680BC704780B582B000AF786039607B685A
S32D0000E5D05A687B689B68386811461A4600F0BCFF4FF00103184607F10807BD4680BD00BF80B483B000AF7860DE
S32D0000E5F8396007F10C07BD4680BC704780B483B000AF78604FF00003184607F10C07BD4680BC704780B584B063
S32D0000E62000AFF860B9607A60FB681846FFF70EFFFB68074A1A60FB68BA685A60FB687A689A60FB68184607F1A9
S32D0000E6481007BD4680BD00BF40F4010080B483B000AF7860396007F10C07BD4680BC704780B582B000AF7860E3
S32D0000E67039607B685A687B689B68386811461A4601F062F84FF00103184607F10807BD4680BD00BF80B483B0A8
S32D0000E69800AF7860396007F10C07BD4680BC704780B483B000AF78604FF00003184607F10C07BD4680BC7047A4
S32D0000E6C080B582B000AF78607B681846FFF7BEFE7B68044A1A607B68184607F10807BD4680BD00BF70F40100F4
S32D0000E6E880B483B000AF7860396007F10C07BD4680BC704780B483B000AF786039604FF00103184607F10C0749
S32D0000E710BD4680BC704700BF80B483B000AF7860396007F10C07BD4680BC704780B483B000AF78604FF001036D
S32D0000E738184607F10C07BD4680BC704780B483B000AF78607B6823F00043184607F10C07BD4680BC704700BF0F
S32D0000E76080B584B000AFF860B9607A60FB681846FFF76CFEFB680F4A1A60FB68BA685A60FB687A689A60FB68F0
S32D0000E7884FF000021A77FB684FF000025A77FB68074A1A61FB68074A5A61FB68064A9A61FB68184607F1100700
S32D0000E7B0BD4680BDA0F401000000704100000000CDCCCC3E80B584B000AFF860B9607A603B60FB681846FFF75D
S32D0000E7D839FEFB680F4A1A60FB68BA685A60FB687A689A60FB684FF000021A77FB684FF000025A77FB68084AC9
S32D0000E8001A61FB68074A5A61FB683A689A61FB68184607F11007BD4680BD00BFA0F401000000704100000000EB
S32D0000E82890B585B000AF7860396007F10803184601F02CFD7B685C68386801F07FF9034620461946FEF7CEFA32
S32D0000E8500346FB607B689B681846F968FEF7D0FB03464FF00102144618463649FEF766FD0346002B02D14FF0F1
S32D0000E87800031C46E3B2002B14D07B684FF001021A774FF014000FF0EFF9044620462B4900F02CFB07F108033B
S32D0000E8A018463968224601F001FD0FE04FF014000FF0DEF904462046234900F01BFB07F1080318463968224650
S32D0000E8C801F0F0FC7B689B684FF00102144618461A49FEF72FFD0346002B02D14FF000031C46E3B2002B06D060
S32D0000E8F07B681B7F83F00103DAB27B681A777B681B7F002B05D07B689B6883F000427B689A607B685C683868CA
S32D0000E91801F014F9034620461946FEF763FA03461A467B685A61386801F014F902467B68DA6007F11407BD4613
S32D0000E94090BD00BF000000000000344300000000B0B584B000AF786039607B685C68386801F0F0F8034620469E
S32D0000E9681946FEF73FFA0346FB60F868FFF7E6FE03464FF00102144618464149FEF7F8FC0346002B02D14FF0DA
S32D0000E99000031C46E3B2002B19D07B684FF000025A77FB6818461946FEF722FA034618463649FEF7D9FB0346ED
S32D0000E9B81A467B689B68386811461A4600F0C8FD4FF0000353E0F868FFF7B8FE02467B689B694FF001010C469C
S32D0000E9E010461946FEF7C8FC0346002B02D14FF000031C46E3B2002B2BD0FB6818461946FEF7F6F9034618464A
S32D0000EA082049FEF7ADFB03461C467B689B6818461D49FEF7F1FA03461D467B689B681846FFF78CFE034628467E
S32D0000EA301946FEF799FB0346386821461A4600F08BFD0FA1D1E9000107F06EF94FF0000311E07B685B7F002BC4
S32D0000EA5802D04FF001030AE007A1D1E9000107F05FF97B684FF001025A774FF00003184607F11007BD46B0BDCA
S32D0000EA809A9999999999B93F0000E0400000A04000005041AFF3008080B582B000AF786039603B68184602F0AC
S32D0000EAA84BF83B6803F10803184602F045F8386801F076F8386801F041F8034641F21C40C1F6FF70194609F0AF
S32D0000EAD0B1FB07F10807BD4680BD00BF80B483B000AF78604FF00003184607F10C07BD4680BC704780B584B06E
S32D0000EAF800AFF860B9607A60FB681846FFF7A2FCFB680E4A1A60FB68BA685A60FB687A689A60FB684FF000024A
S32D0000EB201A77FB684FF000025A77FB68064A1A61FB68064A9A61FB68184607F11007BD4680BD00BFD0F4010051
S32D0000EB4800007041CDCCCC3E80B584B000AFF860B9607A603B60FB681846FFF773FCFB680D4A1A60FB68BA686E
S32D0000EB705A60FB687A689A60FB684FF000021A77FB684FF000025A77FB68064A1A61FB683A689A61FB681846E5
S32D0000EB9807F11007BD4680BDD0F401000000704190B585B000AF7860396007F10803184601F06CFB7B685C6890
S32D0000EBC0386800F0CBFF034620461946FEF70EF90346FB607B689B681846F968FEF710FA03464FF00102144696
S32D0000EBE818463649FEF7A6FB0346002B02D14FF000031C46E3B2002B14D04FF014000FF033F8044620462E4959
S32D0000EC1000F070F907F1080318463968224601F045FB7B684FF001021A770FE04FF014000FF01EF80446204625
S32D0000EC38244900F05BF907F1080318463968224601F030FB7B689B684FF00102144618461A49FEF76FFB03468C
S32D0000EC60002B02D14FF000031C46E3B2002B06D07B681B7F83F00103DAB27B681A777B681B7F002B05D07B68FA
S32D0000EC889B6883F000427B689A607B685C68386800F060FF034620461946FEF7A3F803461A467B685A613868AE
S32D0000ECB000F048FF02467B68DA6007F11407BD4690BD00BF000000000000B44200008743B0B584B000AF786098
S32D0000ECD839607B685C68386800F03CFF034620461946FEF77FF80346FB60F868FFF726FD03464FF00102144687
S32D0000ED0018464149FEF738FB0346002B02D14FF000031C46E3B2002B19D07B684FF000025A77FB68184619462C
S32D0000ED28FEF762F8034618463649FEF719FA03461A467B689B68386811461A4600F008FC4FF0000353E0F86891
S32D0000ED50FFF7F8FC02467B689B694FF001010C4610461946FEF708FB0346002B02D14FF000031C46E3B2002B91
S32D0000ED782BD0FB6818461946FEF736F8034618462049FEF7EDF903461C467B689B6818461D49FEF731F9034687
S32D0000EDA01D467B689B681846FFF7CCFC034628461946FEF7D9F90346386821461A4600F0CBFB0FA1D1E9000132
S32D0000EDC806F0AEFF4FF0000311E07B685B7F002B02D04FF001030AE007A1D1E9000106F09FFF7B684FF0010244
S32D0000EDF05A774FF00003184607F11007BD46B0BD9A9999999999B93F0000E0400000A04000005041AFF30080C3
S32D0000EE1880B582B000AF786039603B68184601F08BFE3B6803F10803184601F085FE07F10807BD4680BD00BF50
S32D0000EE4080B483B000AF78604FF00003184607F10C07BD4680BC704780B582B000AF786039607B681846FFF757
S32D0000EE68F1FA7B68054A1A607B683A685A607B68184607F10807BD4680BD00BF00F5010080B483B000AF78607B
S32D0000EE90396007F10C07BD4680BC704780B582B000AF786039603B6803F110027B685B681046194608F040F9FE
S32D0000EEB84FF00103184607F10807BD4680BD00BF80B483B000AF7860396007F10C07BD4680BC704780B483B096
S32D0000EEE000AF78604FF00003184607F10C07BD4680BC704780B582B000AF786039607B681846FFF7A3FA7B689E
S32D0000EF08074A1A607B683A685A607B684FF000021A747B68184607F10807BD4680BD00BF30F5010090B585B038
S32D0000EF3000AF786039607B685B68FB604FF001031C46F8684C49FEF703FA0346002B02D14FF000031C46E3B286
S32D0000EF58002B05D0F8684749FDF746FF0346FB60386800F003FE0346F8681946FDF73AFF03461A467B689A6072
S32D0000EF807B689B684FF00102144618463C49FEF7F3F90346002B02D14FF000031C46E3B2002B09D07B689B68B3
S32D0000EFA818463449FDF71EFF03461A467B689A607B689B684FF00102144618462C49FEF7C3F90346002B02D17C
S32D0000EFD04FF000031C46E3B2002B09D07B689B6818462649FDF704FF03461A467B689A607B689B684FF001027E
S32D0000EFF8144618462149FEF79DF90346002B02D14FF000031C46E3B2002B09D07B689B6818461B49FDF7E8FE38
S32D0000F02003461A467B689A607B689B684FF00102144618461349FEF79FF90346002B02D14FF000031C46E3B2F3
S32D0000F048002B09D07B689B6818460D49FDF7CAFE03461A467B689A607B689B6838681946084A00F055FC07F14A
S32D0000F0701407BD4690BD00BF000034C30000B4430000344300000000000040400000A04190B585B000AF786081
S32D0000F09839607B685B68FB604FF001031C46F8686949FEF751F90346002B02D14FF000031C46E3B2002B05D03A
S32D0000F0C0F8686449FDF794FE0346FB60386800F051FD0346F8681946FDF788FE0346BB604FF001031C46B86862
S32D0000F0E85B49FEF745F90346002B02D14FF000031C46E3B2002B05D0B8685449FDF772FE0346BB604FF00103DB
S32D0000F1101C46B8684E49FEF71BF90346002B02D14FF000031C46E3B2002B05D0B8684949FDF75EFE0346BB60C9
S32D0000F1384FF001031C46B8684649FEF7FBF80346002B02D14FF000031C46E3B2002B24D04FF001031C46B86809
S32D0000F1603F49FEF709F90346002B02D14FF000031C46E3B2002B0AD038683A493A4A00F0CBFB2FA1D1E9000195
S32D0000F18806F0CEFD51E038683449354A00F0C0FB7B684FF000021A7447E04FF001031C46B8683049FEF7E4F838
S32D0000F1B00346002B02D14FF000031C46E3B2002B24D04FF001031C46B8682949FEF7B6F80346002B02D14FF032
S32D0000F1D800031C46E3B2002B0AD038682349244A00F096FB14A1D1E9000106F099FD1CE038681E491A4A00F0BC
S32D0000F2008BFB7B684FF000021A7412E07B681B7C002B02D04FF001030DE07B684FF001021A7409A1D1E90001F7
S32D0000F22806F07EFD4FF0000301E04FF00003184607F11407BD4690BD9A9999999999B93F9A9999999999C93FF3
S32D0000F250000034C30000B44300003443000080BF00000CC2000000BF0000A0410000803F00000C420000003F32
S32D0000F27800009041AFF3008080B582B000AF786039603B68184601F057FC3B6803F10803184601F051FC3868CB
S32D0000F2A000F068FC034641F21C40C1F6FF70194608F0C0FF07F10807BD4680BD80B483B000AF78604FF0000361
S32D0000F2C8184607F10C07BD4680BC704780B582B000AF78607B681846FFF7B4F87B68044A1A607B68184607F104
S32D0000F2F00807BD4680BD00BF60F5010080B483B000AF7860396007F10C07BD4680BC704790B583B000AF786005
S32D0000F3183960386800F036FC034641F21C40C1F6FF70194608F082FF386800F02BFC03464FF00102144618469C
S32D0000F3401849FDF7FBFF0346002B02D14FF000031C46E3B2002B0FD038684FF0010100F0E1FB41F21C40C1F6D3
S32D0000F368FF704EF65871C0F2010108F04BFF0EE038684FF0000100F0D1FB41F21C40C1F6FF704EF65C71C0F203
S32D0000F390010108F03BFF4FF00103184607F10C07BD4690BD0000803F80B483B000AF7860396007F10C07BD46CB
S32D0000F3B880BC704780B483B000AF78604FF00003184607F10C07BD4680BC704780B582B000AF786078680CF0DB
S32D0000F3E0BDFC0346184607F10807BD4680BD00BF80B582B000AF786078680CF0FBFC0346184607F10807BD4627
S32D0000F40880BD00BF80B582B000AF78607B6818464FF001014C4A01F037FB7B6803F1080318464FF00001484A9F
S32D0000F43001F02EFB7B6803F1100318464FF0050107F05AFE7B6803F11C0318464FF0000106F0B8FE7B6803F1A1
S32D0000F4581D0318464FF0020106F0B0FE7B6803F11E0318464FF00E0107F088FA7B6803F11F0318464FF00C0162
S32D0000F48007F080FA7B6803F1200318464FF00A0107F078FA7B6803F1210318464FF0090107F070FA7B6803F108
S32D0000F4A8220318464FF0100106F0C0FC7B6803F1230318464FF0120106F0B8FC7B6803F1240318464FF01401AA
S32D0000F4D006F0B0FC7B6803F1250318464FF0160106F0A8FC7B6803F1260318464FF0180106F0A0FC7B6803F100
S32D0000F4F8270318464FF01A0106F098FC7B684FF0010283F8382041F28440C1F6FF700CF0F7F803461A467B68EE
S32D0000F52083F8392041F2A440C1F6FF700CF062FA41F2A440C1F6FF704EF66471C0F201010CF046FB7B681846CC
S32D0000F54807F10807BD4680BD000040410000000090B58BB000AFF860B9607A607B6883F000437B604FF001039C
S32D0000F5701C46B8687249FDF7E1FE0346002B02D14FF000031C46E3B2002B07D0BB6883F00043BB607B6883F091
S32D0000F59800437B60FB6803F11C03184607F0DAF9FB6803F11D03184607F0D4F9B868FDF78FF802460B46104666
S32D0000F5C0194659A3D3E90023FDF7DAF802460B4610461946FDF76EFB03467B61FB6803F11C03184607F0A6F9E3
S32D0000F5E803467B62FB6803F11D03184607F09EF903461846FDF75AF802460B461046194649A3D3E90023FDF772
S32D0000F610B7F802460B4610461946FDF74BFB03463B6266E0FB6803F11C03184607F082F903467B62FB6803F1A6
S32D0000F6381D03184607F07AF903461846FDF736F802460B461046194637A3D3E90023FDF793F802460B4610467E
S32D0000F6601946FDF727FB03463B627B68FB617B68BB617A6A3B6A9A4214DAB869FDF72CF802460B461046194609
S32D0000F6882BA3D3E90023FDF777F802460B4610461946FDF753FB0346BB6117E03A6A7B6A9A4213DAF869FDF7B1
S32D0000F6B013F802460B46104619461FA3D3E90023FDF75EF802460B4610461946FDF73AFB0346FB61FA68FB6906
S32D0000F6D883F000431046194601F07EFAFB6803F108031846B96901F077FA7A6A3B6AD2187B694FEA43039A423A
S32D0000F700ACBF00230123DBB2002B8BD1FB68184601F016FAFB6803F10803184601F010FA07F12C07BD4690BD1D
S32D0000F7280C24EB1AD4DE4040295C8FC2F528F03F666666666666E63F00000000AFF3008090B58BB000AFF860F8
S32D0000F750B9607A607B6883F000437B60FB6803F11C03184607F0FAF8FB6803F11D03184607F0F4F8FB6803F158
S32D0000F7781C03184607F0DAF80346BB61FB6803F11D03184607F0D2F803461846FCF78EFF02460B4610461946AD
S32D0000F7A053A3D3E90023FCF7EBFF02460B4610461946FDF77FFA03467B61534B7B6271E0FB6803F11C03184609
S32D0000F7C807F0B4F80346BB61FB6803F11D03184607F0ACF803461846FCF768FF02460B461046194640A3D3E9AD
S32D0000F7F00023FCF7C5FF02460B4610461946FDF759FA03467B617B683B627B68FB61BA697B699A4214DAF86966
S32D0000F818FCF75EFF02460B461046194634A3D3E90023FCF7A9FF02460B4610461946FDF785FA0346FB6117E076
S32D0000F8407A69BB699A4213DA386AFCF745FF02460B461046194628A3D3E90023FCF790FF02460B461046194629
S32D0000F868FDF76CFA03463B62FA683B6A83F000431046194601F0B0F9FB6803F108031846F96901F0A9F9786A8F
S32D0000F8901E49FDF7ADFA03467B6219A1D1E9000106F042FAB8681A49FDF7AAFB03464FF0010214461846796A39
S32D0000F8B8FDF75EFD0346002B02D14FF000031C46E3B2002B7FF478AFFB68184601F034F9FB6803F108031846EF
S32D0000F8E001F02EF907F12C07BD4690BDAFF30080295C8FC2F528F03F666666666666E63F9A9999999999B93F0B
S32D0000F908000000000000803F00002041AFF3008090B58BB000AFF860B9607A604FF001031C46B8687449FDF79F
S32D0000F93005FD0346002B02D14FF000031C46E3B2002B07D0BB6883F00043BB607B6883F000437B60FB6803F166
S32D0000F9581C03184606F0FEFFFB6803F11D03184606F0F8FFB868FCF7B3FE02460B46104619465BA3D3E9002360
S32D0000F980FCF7FEFE02460B4610461946FDF792F903467B61FB6803F11C03184606F0CAFF03467B62FB6803F168
S32D0000F9A81D03184606F0C2FF03461846FCF77EFE02460B46104619464BA3D3E90023FCF7DBFE02460B46104610
S32D0000F9D01946FDF76FF903463B6269E0FB6803F11C03184606F0A6FF03467B62FB6803F11D03184606F09EFF22
S32D0000F9F803461846FCF75AFE02460B461046194639A3D3E90023FCF7B7FE02460B4610461946FDF74BF903466F
S32D0000FA203B627B68FB617B68BB617A6A3B6A9A4214DAB869FCF750FE02460B46104619462DA3D3E90023FCF738
S32D0000FA489BFE02460B4610461946FDF777F90346BB6117E03A6A7B6A9A4213DAF869FCF737FE02460B4610461F
S32D0000FA70194621A3D3E90023FCF782FE02460B4610461946FDF75EF90346FB61FA68FB6983F000431046194684
S32D0000FA9801F0A2F8FB6803F10802BB6983F000431046194601F098F87A6A3B6AD2187B694FEA43039A42ACBF27
S32D0000FAC000230123DBB2002B88D1FB68184601F037F8FB6803F10803184601F031F807F12C07BD4690BD00BFCB
S32D0000FAE87CCFEC3075B90040295C8FC2F528F03F666666666666E63F00000000AFF3008080B483B000AF786060
S32D0000FB107B6893F83830184607F10C07BD4680BC704700BF80B483B000AF78600B46FB707B68FA7883F8382001
S32D0000FB3807F10C07BD4680BC704700BF80B483B000AF78607B689B6A184607F10C07BD4680BC704780B483B043
S32D0000FB6000AF78607B68DB6A184607F10C07BD4680BC704780B483B000AF78607B681B6B184607F10C07BD46A6
S32D0000FB8880BC704780B483B000AF78607B685B6B184607F10C07BD4680BC704700000000B0B586B000AF786044
S32D0000FBB041F28440C1F6FF700BF0F2FD02467B689A6241F28440C1F6FF700BF0F9FD02467B68DA6241F284408D
S32D0000FBD8C1F6FF700BF000FE02467B681A6341F28440C1F6FF700BF0F7FD03461846FCF76FFD02460B46104637
S32D0000FC0019463BA3D3E90023FCF7BAFD02460B461046194638A3D3E90023FCF7DBFE02460B4610461946FDF7FA
S32D0000FC288DF803467B617869FFF7D0FB03463B617869FFF7D9FB0346FB607B689B6A1846FCF746FD04460D4615
S32D0000FC503869FCF741FD02460B46104619464FF000024FF0804303F5D013FCF789FD02460B4620462946FCF76E
S32D0000FC78CFFB02460B4610461946FDF75FF802467B689A627B68DB6A1846FCF721FD04460D46F868FCF71CFD34
S32D0000FCA002460B46104619464FF000024FF0804303F5D013FCF764FD02460B4620462946FCF7AAFB02460B46D7
S32D0000FCC810461946FDF73AF802467B68DA627B6803F11E03184606F063FE02467B685A6307F11807BD46B0BDB0
S32D0000FCF0F1D4C853FB21094000000000008066402DE9F04F9BB00CAF78614EF6A473C0F2010307F11C041D46BB
S32D0000FD180FCD0FC495E8070084E8070006F02CF804460D467B6903F12603184606F0A2F903461E467B695B6B19
S32D0000FD401846FCF7C9FCC7E902017B699B6A1846FCF7C2FC82468B467B69DB6A1846FCF7BBFC804689467B6991
S32D0000FD681B6B1846FCF7B4FCC7E90001796991F83910084607F11C010096D7E90223CDE90223CDE904ABCDE9AD
S32D0000FD900689D7E90023CDE908230A9041F2A440C1F6FF7022462B460BF012FF07F13C07BD46BDE8F08F00BF15
S32D0000FDB890B5BBB000AF41F28440C1F6FF700BF01BF841F21C40C1F6FF7007F03DFF07F1A4031846FFF716FBA7
S32D0000FDE04FF008000DF044FF04462046F749FFF733F87C604FF014000DF03AFF044620464EF6C071C0F201011F
S32D0000FE0800F094FBBC604FF00C000DF02DFF0446204600F0F1FAFC604FF020000DF024FF04462046E849E94A43
S32D0000FE30FEF760FE3C614FF020000DF019FF04462046E549E54AFEF78BFC7C614FF004000DF00EFF04462046DD
S32D0000FE58FFF73CFABC614FF020000DF005FF04462046DC49D94ADC4BFEF7A8FCFC614FF014000DF0F9FE04462D
S32D0000FE802046D849FFF736F83C624FF00C000DF0EFFE04462046D249D34AFEF7BFFB7C624FF020000DF0E4FE23
S32D0000FEA804462046CF49D04AD04BFEF787FCBC624FF014000DF0D8FE04462046CC49FFF715F8FC624FF00C0002
S32D0000FED00DF0CEFE04462046C049C84AFEF74CFB3C634FF020000DF0C3FE04462046C449C44AFEF7FFFD7C63DD
S32D0000FEF84FF014000DF0B8FE04462046B149FEF7F5FFBC634FF00C000DF0AEFE04462046BB49BC4AFEF77EFB08
S32D0000FF20FC634FF008000DF0A3FE04462046B849FEF792FF3C644FF00C000DF099FE04462046B149A54AFEF72B
S32D0000FF4817FB7C644FF014000DF08EFE04462046AE49FEF7CBFFBC644FF00C000DF084FE04462046AA49994AE7
S32D0000FF70FEF702FBFC644FF004000DF079FE0446204600F0CBF93C654FF00C000DF070FE04462046A1498F4A2C
S32D0000FF98FEF7EEFA7C654FF008000DF065FE044620468849FEF754FFBC654FF008000DF05BFE044620468349D3
S32D0000FFC0FEF74AFFFC654FF008000DF051FE044620467E49FEF740FF3C664FF014000DF047FE04462046844982
S32D0000FFE8FEF784FF7C664FF00C000DF03DFE044620468949894AFEF70DFBBC664FF020000DF032FE044620465E
S32D000100108549864A724BFEF79BFDFC664FF020000DF026FE0446204681496A4A714BFEF7C9FB3C674FF0200052
S32D000100380DF01AFE044620467C49664A6B4BFEF783FD7C674FF008000DF00EFE04462046FEF708FABC674FF0F8
S32D0001006014000DF005FE044620466349FEF742FFFC674FF00C000DF0FBFD0446204662496D4AFEF7CBFAC7F89D
S32D0001008880404FF008000DF0EFFD044620465E49FEF7DEFEC7F884404FF00C000DF0E4FD044620466349644A7B
S32D000100B0FEF7B4FAC7F888404FF00C000DF0D8FD044620465F49584AFEF756FAC7F88C404FF008000DF0CCFD03
S32D000100D8044620463B49FEF7BBFEC7F890404FF020000DF0C1FD044620465549394A3F4BFEF764FBC7F894402C
S32D000101004FF014000DF0B4FD044620463A49FEF7F1FEC7F898404FF00C000DF0A9FD044620464A49354AFEF77C
S32D0001012879FAC7F89C404FF010000DF09DFD04462046FEF7C1FAC7F8A0407B68C7F8E4304FF00003C7F8E030EE
S32D0001015020E0D7F8E0304FEA830307F1E802D31853F8E43CC7F8E43007F1A40341F22810C1F6FF701946D7F879
S32D00010178E42000F097F807F1A4031846FFF7BCFDD7F8E03003F10103C7F8E030D7F8E4301B6803F10C031B6897
S32D000101A0D7F8E4009847034683F00103DBB2002BCFD141F2A440C1F6FF700BF0EDFC4FF00003184607F1EC07DA
S32D000101C8BD4690BD00003443CDCC7C410000F041000080410000C8410000004000001D4300000C420000984129
S32D000101F000000CC20000803F0000B442000034C2000036420000A0C100004040000070C100008C4200008E433E
S32D000102189A994941000098C10000E0400000C8C100003442000020420000884100009041000070410000003F96
S32D00010240000000000000E0C0000080400000204180B582B000AF786039607B68012B0AD13A684FF6FF739A4228
S32D0001026805D141F22810C1F6FF7000F00FF807F10807BD4680BD00BF80B500AF4FF001004FF6FF71FFF7E0FF55
S32D0001029080BD00BF80B483B000AF78607B68184607F10C07BD4680BC704700BF80B584B000AFF860B9607A60F1
S32D000102B8B868FFF775FC7B681B6803F104031B687868B9689847B868FFF76AFC02E0B868FFF766FC7B681B6890
S32D000102E01B687868B9689847034683F00103DBB2002BF0D1B868FFF757FC7B681B6803F108031B687868B96801
S32D0001030898474FF0000005F0F1FC07F11007BD4680BD00BF80B582B000AF78607B681846FEF790F87B68044ADB
S32D000103301A607B68184607F10807BD4680BD00BF90F501000000000080B582B000AF786039603B6803F108032E
S32D000103581846154900F040FC3B681846134900F03BFC00BF3B6803F12603184605F082FE0346002BF6D10AA1D2
S32D00010380D1E9000105F0D0FC3B6803F10803184600F0D6FB3B68184600F0D2FB07F10807BD4680BDAFF30080EA
S32D000103A89A9999999999C93F000020C20000A04180B483B000AF786039604FF00103184607F10C07BD4680BC52
S32D000103D0704700BF80B483B000AF7860396007F10C07BD4680BC704780B483B000AF78604FF00003184607F17A
S32D000103F80C07BD4680BC704780B582B000AF78607B681846FEF71EF87B68074A1A607B68064A5A607B684FF0D6
S32D0001042000029A607B68184607F10807BD4680BDC0F501000000000080B582B000AF786039603868FFF7A2FBB9
S32D0001044802467B685A607B684FF000029A6007F10807BD4680BD00BF90B585B000AF7860396023A1D1E9000163
S32D0001047005F05AFC7B689B684B2B22DC7B685C683868FFF783FB034620461946FCF7AEFC03461846FCF720F99F
S32D0001049802460B464FF001010C461046194616A3D3E90023FCF7F8FB0346002B02D14FF000031C46E3B2002B2B
S32D000104C002D04FF0010301E04FF00003FB733868FFF75CFB02467B685A607B689B6803F101027B689A60FB7B65
S32D000104E8184607F11407BD4690BD00BFAFF300809A9999999999C93F333333333333D33F80B483B000AF786072
S32D00010510396007F10C07BD4680BC704780B483B000AF78604FF00003184607F10C07BD4680BC704780B582B02C
S32D0001053800AF786039607B681846FDF783FF7B68074A1A607B684FF000021A717B683A681A617B68184607F127
S32D000105600807BD4680BD00BFF8F5010080B582B000AF786039607B681B6941F21C40C1F6FF70194607F042FE37
S32D0001058807F10807BD4680BD80B582B000AF786039607B681B79002B16D07B6803F108027B6803F10C0341F2F4
S32D000105B01C40C1F6FF7011461A4607F025FC034683F00103DBB2002B17D04FF0010316E07B6803F108027B686F
S32D000105D803F10C0341F21C40C1F6FF7011461A4607F00EFC0346002B03D07B684FF001021A714FF000031846ED
S32D0001060007F10807BD4680BD80B582B000AF7860396041F21C40C1F6FF704EF6DC71C0F2010107F0F3FD07F124
S32D000106280807BD4680BD00BF80B483B000AF78604FF00003184607F10C07BD4680BC704780B500AF42F2581284
S32D00010650C1F6FF7241F22813C1F6FF73D31A194641F22813C1F6FF731A460B4610464FF000011A460CF05BFAE1
S32D0001067880BD00BF0DF0DCFA00F0B0F9FFF7E0FF0DF0AEFA0DF04AFA0DF0E2FA00F00CF84FF0000041F22C11B4
S32D000106A0C1F6FF71FFF788FB034618460CF01AFA80B500AF4FF4E043C4F204034FF4E042C4F2040202F58052E3
S32D000106C802F13802126842F4785203F5805303F138031A6000F02EF900F094F841F26833C1F6FF734FF05802C5
S32D000106F01A6041F26833C1F6FF731B684FF47A7202FB03F241F26433C1F6FF731A6041F26433C1F6FF731B68E3
S32D000107181A464FF4E043C4F2040303F5825303F104031B6803F070634FEA136303F10103B2FBF3F31A4641F251
S32D000107406C33C1F6FF731A604FF4E043C4F204034FF4E042C4F2040202F5805202F13C02126842F0225203F5F2
S32D00010768805303F13C031A604FF4E043C4F204034FF4E042C4F2040202F5805202F13002126842F0006203F5AA
S32D00010790805303F130031A604FF45043C4F203034FF480721A614FF0640005F037F94FF45043C4F203034FF4E7
S32D000107B85042C4F20302526922F010025A614FF45043C4F203034FF000021A604FF45043C4F203034FF01002FB
S32D000107E05A6106F013FA06F0BBFA41F26030C1F6FF7005F097F941F21C40C1F6FF7007F05FF841F2883005F030
S32D0001080875FA80BD80B400AF4FF48043C4F206034FF000025A704FF48043C4F206034FF098021A704FF4804334
S32D00010830C4F206039B79DBB203F01003002B0CBF00230123DBB2002BF0D14FF48043C4F206039B79DBB203F024
S32D000108580C034FEA9303022B0CBF00230123DBB2002BEED14FF48043C4F206034FF018021A714FF48043C4F278
S32D0001088006034FF000025A714FF4E043C4F2040303F5825303F104034FF00002C0F213121A604FF48043C4F2FB
S32D000108A806034FF054025A7100BF4FF48043C4F206039B79DBB203F02003002B14BF00230123DBB2002BF0D1BF
S32D000108D000BF4FF48043C4F206039B79DBB203F04003002B14BF00230123DBB2002BF0D14FF48043C4F206031B
S32D000108F84FF48042C4F206021278D2B202F03F02D2B21A704FF48043C4F206039B79DBB203F00C034FEA930388
S32D00010920032B0CBF00230123DBB2002BEED14FF000031846BD4680BC704700BF80B400AF4FF44043C4F2040336
S32D000109484FF480725A634FF2C003C4F20F034FF2C002C4F20F02526942F400525A614FF2C003C4F20F034FF2ED
S32D00010970C002C4F20F02126842F400521A604FF44043C4F2040340F20312C0F20A021A634FF46143CEF20003A4
S32D000109984FF46142CEF20002D2F8882142F08062C3F888214FF46143CEF200034FF46142CEF20002926842F01F
S32D000109C080629A60BD4680BC704700BF80B483B000AF7860FEE700BF80B400AF00BEBD4680BC704780B400AF6B
S32D000109E84FF0E0224CF20003C0F20003C2F8083D4FF40053C4F205034CF22052DA814FF40053C4F205034DF6B4
S32D00010A102812DA814FF40053C4F205034FF0D2021A80BD4680BC704780B500AF4FF44043C4F20403D3F8A03029
S32D00010A3803F48053002B0CBF00230123DBB2002B1FD04FF44043C4F204034FF44042C4F20402D2F8A02022F43D
S32D00010A608052C3F8A02041F2A440C1F6FF700BF093F84FF2C003C4F20F034FF2C002C4F20F02126822F40052DF
S32D00010A881A6080BD0000000090B585B000AFF8600B467A60FB72FB68FA7A1A71FB684FF000025A714FF001035B
S32D00010AB01C4678682049FCF75FFC0346002B02D14FF000031C46E3B2002B02D01A4B7B6011E04FF001031C46CB
S32D00010AD878681849FCF738FC0346002B02D14FF000031C46E3B2002B01D0124B7B607868FBF7EEFD02460B467D
S32D00010B00104619460AA3D3E90023FBF739FE02460B4610461946FCF715F90246FB681A60FB68184607F1140714
S32D00010B28BD4690BDAFF30080ABAAAAAAAAAA2040000040410000803F80B582B000AF78607B685B79002B10D0DF
S32D00010B507B684FF000025A717B681B7941F26030C1F6FF7019464FF000024FF01E0305F023F807F10807BD460D
S32D00010B7880BD00BF80B584B000AF786039603B687F2B03DD4FF07F03FB7309E03B6813F1800F03DA4FF08003AF
S32D00010BA0FB7301E03B68FB737B685B79FA7B9A420FD07B68FA7B5A717B681A79FB7B41F26030C1F6FF70114690
S32D00010BC81A464FF01E0304F0F3FF07F11007BD4680BD00BF00000000B0B584B000AF786039604FF001031C46EC
S32D00010BF038684D49FCF7A2FB0346002B02D14FF000031C46E3B2002B02D0474B3B6011E04FF001031C46386830
S32D00010C184449FCF7ADFB0346002B02D14FF000031C46E3B2002B01D03E4B3B603868FBF74FFD04460D467B6887
S32D00010C401B681846FBF748FD02460B46104619464FF000024FF0804303F5B203FBF7BAFE02460B462046294617
S32D00010C68FBF78AFD02460B4610461946FCF766F803463B604FF001031C4638682A49FCF76DFB0346002B02D107
S32D00010C904FF000031C46E3B2002B14D03868FBF71BFD02460B46104619461DA3D3E90023FBF766FD02460B4668
S32D00010CB810461946FBF7FAFF0346FB6022E03868FBF706FD02460B46104619464FF000024FF0804303F5C003E6
S32D00010CE0FBF74EFD02460B46104619464FF000024FF0804303F5B203FBF76CFE02460B4610461946FBF7D6FFF9
S32D00010D080346FB607868F968FFF734FF07F11007BD46B0BDAFF3008052B81E85EB51F43F0000C8C20000C8425D
S32D00010D3000000000AFF3008080B485B000AF02460B46FA71BB71BB79002B07D141F23013C1F6FF734FF0000213
S32D00010D581A7006E041F23013C1F6FF734FF001021A704FF03803FB7341F23013C1F6FF731A78FB7B1343FB733E
S32D00010D804FF4C043C4F206034FF4C042C4F206029278D2B242F01002D2B29A704FF4C043C4F206034FF4C04292
S32D00010DA8C4F206029278D2B242F02002D2B29A704FF4C043C4F20603FA7B1A7107F11407BD4680BC704700BF21
S32D00010DD080B483B000AF4FF001037B6004E000BF7B6803F101037B607B68312BCCBF00230123DBB2002BF2D1DB
S32D00010DF807F10C07BD4680BC704700BF80B582B000AF02460B46FA71BB7141F23113C1F6FF731B7818464FF0F6
S32D00010E200001FFF789FF4FF4C043C4F20603DB78DBB203F00203002B14BF00230123DBB2002BF0D14FF4C04343
S32D00010E48C4F206034FF4C042C4F20602D278D2B242F00202D2B2DA704FF4C043C4F20603FA791A714FF4C0439E
S32D00010E70C4F20603DB78DBB203F00203002B14BF00230123DBB2002BF0D14FF4C043C4F206034FF4C042C4F2FE
S32D00010E980602D278D2B242F00202D2B2DA704FF4C043C4F20603BA791A714FF4C043C4F20603DB78DBB203F0B6
S32D00010EC00203002B14BF00230123DBB2002BF0D14FF4C043C4F206034FF4C042C4F20602D278D2B242F0020234
S32D00010EE8D2B2DA704FF4C043C4F206034FF4C042C4F206029278D2B222F02002D2B29A704FF4C043C4F20603B0
S32D00010F104FF4C042C4F206029278D2B222F01002D2B29A70FFF754FF07F10807BD4680BD80B582B000AF034680
S32D00010F38FB71FB79184600F06BF807F10807BD4680BD00BF80B582B000AF02460B46FA71BB7100F039F8FB7918
S32D00010F604FEA4303DBB21846FFF7E2FFBB791846FFF7DEFF00F03EF807F10807BD4680BD80B500AF4FF0FF002D
S32D00010F8800F046F80346184680BD00BF80B584B000AF0346FB7100F017F8FB794FEA4303DBB243F00103DBB259
S32D00010FB0DBB21846FFF7BCFFFFF7E2FF0346FB7300F018F8FB7B184607F11007BD4680BD80B400AF4FF240035E
S32D00010FD8C4F20F034FF24002C4F20F02926842F480129A60BD4680BC704700BF80B400AF4FF24003C4F20F0338
S32D000110004FF24002C4F20F02526842F480125A60BD4680BC704700BF80B485B000AF0346FB714FF00003BB7349
S32D0001102803E0FB7B03F10103FB734FF44043C4F20A03DB6A4FF00003002BF2D14FF44043C4F20A034FF440428E
S32D00011050C4F20A02D26A42F00042DA624FF44043C4F20A03FA795A6300BF4FF44043C4F20A03DB6A03F4003353
S32D00011078002B14BF00230123DBB2002BF1D14FF44043C4F20A039B6BBB73BB7B184607F11407BD4680BC704730
S32D000110A080B582B000AF4FF4E043C4F204034FF4E042C4F2040202F5805202F13002126842F4805203F580538C
S32D000110C803F130031A604FF42043C4F204034FF480721A654FF24003C4F20F034FF24002C4F20F02526942F4BA
S32D000110F080125A61FFF77EFF4FF42043C4F204034FF400725A654FF42043C4F204034FF400729A654FF420437D
S32D00011118C4F204034FF40072DA654FF44043C4F20A034FF44062C8F200021A604FF44043C4F20A034FF0050284
S32D00011140C3F60062DA604FF000037B6007E04FF0FF00FFF7EDFE7B6803F101037B607B68092BCCBF0023012369
S32D00011168DBB2002BEFD104A1D1E9000104F0D8FD07F10807BD4680BD9A9999999999B93F90B486B000AFF86060
S32D00011190B9607A60FA684FF42043C4F206039A4214D14FF4E043C4F204034FF4E042C4F2040202F5805202F1B5
S32D000111B83402126842F4806203F5805303F134031A6083E0FA684FF43043C4F206039A4214D14FF4E043C4F2B9
S32D000111E004034FF4E042C4F2040202F5805202F13402126842F4006203F5805303F134031A6067E0FA684FF458
S32D000112084043C4F206039A4214D14FF4E043C4F204034FF4E042C4F2040202F5805202F13402126842F48052FC
S32D0001123003F5805303F134031A604BE0FA684FF45043C4F206039A4214D14FF4E043C4F204034FF4E042C4F2FE
S32D00011258040202F5805202F13402126842F4005203F5805303F134031A602FE0FA684FF42043C4F20E039A4243
S32D0001128014D14FF4E043C4F204034FF4E042C4F2040202F5805202F12802126842F4806203F5805303F12803B4
S32D000112A81A6013E04FF4E043C4F204034FF4E042C4F2040202F5805202F12802126842F4006203F5805303F1AF
S32D000112D028031A60FB68DB78DBB223F00C03DAB2FB68DA70FB684FF000029A70BB684FF47A7202FB03F27B68D7
S32D000112F84FEA031392FBF3F39CB2FB681B78DBB223F01F03FB75234603F4F8534FEA2323DBB203F01F03DAB237
S32D00011320FB7D1343DAB2FB681A70E2B2FB685A70BB684FF4FA4202FB03F27B684FEA031392FBF3F39AB22346A8
S32D0001134819464FEAC121CB1A4FEA43139BB2D3189CB2FB689B7ADBB223F01F03FB75E3B203F01F03DAB2FB7DAA
S32D000113701343DAB2FB689A72FB68DB78DBB243F00C03DAB2FB68DA7007F11807BD4690BC704700BF80B483B0FC
S32D0001139800AF786000BF7B681B79DBB203F02003002B14BF00230123DBB2002BF3D17B68DB79DBB2184607F1EB
S32D000113C00C07BD4680BC704780B483B000AF78600B46FB7000BF7B681B79DBB2DBB26FEA0303DBB24FEAD313F0
S32D000113E8DBB2002BF3D17B68FA78DA7107F10C07BD4680BC704700BF80B487B000AFF860B9607A60FB687B6156
S32D00011410BB683B610BE03B691A787B691A707B6903F101037B613B6903F101033B617B68002B0CBF002301234F
S32D00011438DBB27A6802F1FF327A60002BE7D107F11C07BD4680BC704780B487B000AFF860B9607A60FB687B6180
S32D0001146007E0BB68DAB27B691A707B6903F101037B617B68002B0CBF00230123DBB27A6802F1FF327A60002BE9
S32D00011488EBD107F11C07BD4680BC704780B489B000AFF860B9607A60FB68FB61BB68BB614FF000037B617B6802
S32D000114B0002B0CBF00230123DBB27A6802F1FF327A60002B19D0FB691B781A46BB691B78D31A7B617B69002B69
S32D000114D814BF00230123DBB2FA6902F10102FA61BA6902F10102BA61002B02D04FF0010301E04FF00003002BC8
S32D00011500D5D17B69184607F12407BD4680BC704780B483B000AF7860396003E07B6803F101037B607B681B7825
S32D00011528002B08D07B681B781A463B689A4202D04FF0010301E04FF00003002BEAD17B681B78184607F10C073F
S32D00011550BD4680BC704700BF80B584B000AF786039607B681B6BFB60FA683B689A4264D07B681B79002B43D0A0
S32D000115787B685A787B6803F1340310461946FA684FF0010304F0B4F80346002B0CBF00230123DBB2002B02D077
S32D000115A04FF001034BE07B684FF000021A717B685A6A7B681B6AD218FB689A4220D97B68DB78FB7214E07B6854
S32D000115C81B6AFA68D318FB607B685A787B6803F1340310461946FA684FF0010304F088F8FB7A03F1FF33FB722E
S32D000115F0FB7A012B94BF00230123DBB2002BE2D13B68002B19D07B685A787B6803F13403104619463A684FF016
S32D00011618010303F05FFF0346002B0CBF00230123DBB2002B02D04FF0010304E07B683A681A634FF00003184675
S32D0001164007F11007BD4680BD80B584B000AF786078684FF00001FFF77FFF0346FB73FB7B002B40F0AE807B680F
S32D000116681B78032B40F095807B685B79002B00F090807B684FF000021A637B6803F1340318464FF000014FF4DB
S32D000116900072FFF7DDFE7B684FF0550283F832227B684FF0AA0283F833227B684FF0520283F834207B684FF09B
S32D000116B8520283F835207B684FF0610283F836207B684FF0410283F837207B684FF0720283F818227B684FF0E5
S32D000116E0720283F819227B684FF0410283F81A227B684FF0610283F81B227B681B69DAB27B6883F81C227B68E6
S32D000117081B699BB24FEA2323DAB27B6883F81D227B681B694FEA1343DAB27B6883F81E227B681B694FEA136303
S32D00011730DAB27B6883F81F227B68DB68DAB27B6883F820227B68DB689BB24FEA2323DAB27B6883F821227B680B
S32D00011758DB684FEA1343DAB27B6883F822227B68DB684FEA1363DAB27B6883F823227B6859787B6803F134029D
S32D000117807B685B69084611461A464FF0010303F0B3FF7B684FF000025A717B685B7818464FF000014FF0000222
S32D000117A804F08CF80346002B0CBF00230123DBB2002B02D04FF00103FB73FB7B184607F11007BD4680BD00BFF7
S32D000117D080B483B000AF786039603B68A3F102033B607B68DB69A3F102023B689A4202D84FF0000307E07B6868
S32D000117F89B783A6802FB03F27B68DB6AD318184607F10C07BD4680BC704700BF80B586B000AF786039603B68BC
S32D00011820012B04D97B68DA693B689A4202D84FF00103D3E07B681B78022B5FD0032B00F08A80012B40F0C8807D
S32D000118483B687B617B694FEA53037A69D3187B617B685A6A7B694FEA5323D31878681946FFF776FE0346002B93
S32D000118700CBF00230123DBB2002B40F0A6807B694FEAC3534FEAD3537A68D31893F834303B617B6903F1010363
S32D000118987B617B685A6A7B694FEA5323D31878681946FFF755FE0346002B0CBF00230123DBB2002B40F0878023
S32D000118C07B694FEAC3534FEAD3537A68D31893F834304FEA03233A6913433B613B6803F00103DBB2002B03D092
S32D000118E83B694FEA131304E03B694FEA03534FEA13536FE07B685A6A3B684FEA1323D31878681946FFF724FECE
S32D000119100346002B0CBF00230123DBB2002B58D13B684FEA43034FEAC3534FEAD35303F130037A68D31803F189
S32D000119380403FB60FB6803F101031B784FEA03239AB2FB681B7813439BB29BB242E07B685A6A3B684FEAD31314
S32D00011960D31878681946FFF7F7FD0346002B0CBF00230123DBB2002B2DD13B684FEA83034FEAC3534FEAD353F8
S32D0001198803F130037A68D31803F10403FB60FB6803F103031B784FEA0362FB6803F102031B784FEA03431A438D
S32D000119B0FB6803F101031B784FEA03231A43FB681B78134323F0704308E000BF04E000BF02E000BF00E000BFC2
S32D000119D84FF0FF33184607F11807BD4680BD00BF80B588B000AFF860B9607A60BB68012B04D9FB68DA69BB689F
S32D00011A009A4203D84FF00203FB771AE1FB681B78022B00F08580032B00F0AD80012B40F00181BB68BB61BB69AB
S32D00011A284FEA5303BA69D318BB61FB685A6ABB694FEA5323D318F8681946FFF789FD0346FB77FB7F002B40F026
S32D00011A50ED80BB694FEAC3534FEAD35303F13003FA68D31803F104037B61BB6803F00103DBB2002B0ED07B6949
S32D00011A781B78DBB203F00F03DAB27B68DBB24FEA0313DBB21343DBB2DBB201E07B68DBB27A691370BB6903F103
S32D00011AA00103BB61FB684FF001021A71FB685A6ABB694FEA5323D318F8681946FFF74CFD0346FB77FB7F002B84
S32D00011AC840F0B280BB694FEAC3534FEAD35303F13003FA68D31803F104037B61BB6803F00103DBB2002B04D0CA
S32D00011AF07B684FEA1313DBB20FE07B691B78DBB223F00F03DAB27B684FEA1323DBB203F00F03DBB21343DBB200
S32D00011B18DBB27A6913708CE0FB685A6ABB684FEA1323D318F8681946FFF712FD0346FB77FB7F002B7AD1BB6809
S32D00011B404FEA43034FEAC3534FEAD35303F13003FA68D31803F104037B617B68DAB27B691A707B6903F1010345
S32D00011B687A6892B24FEA2222D2B21A7061E0FB685A6ABB684FEAD313D318F8681946FFF7E7FC0346FB77FB7F3B
S32D00011B90002B51D1BB684FEA83034FEAC3534FEAD35303F13003FA68D31803F104037B617B6903F103031B788D
S32D00011BB84FEA03627B6903F102031B784FEA03431A437B6903F101031B784FEA03231A437B691B78134303F029
S32D00011BE070437A6813437B607B68DAB27B691A707B6903F101037A6892B24FEA2222D2B21A707B6903F10203C9
S32D00011C087A684FEA1242D2B21A707B6903F103037A684FEA1262D2B21A700AE04FF00203FB7706E000BF04E08C
S32D00011C3000BF02E000BF00E000BFFB684FF001021A71FB7F184607F12007BD4680BD00BF80B584B000AF786070
S32D00011C5839603B68012B04D97B68DA693B689A4203D84FF00203FB7345E04FF00003FB7333E078683968FFF787
S32D00011C80C9FD0346BB60BB68002B35D0BB68012B03D14FF00203FB7331E0BB68B3F1FF3F03D14FF00103FB7348
S32D00011CA829E0786839684FF00002FFF799FE0346FB73FB7B002B1DD17B681B69B3F1FF3F09D07B681B6903F1F2
S32D00011CD001027B681A617B684FF001025A71BB683B607B68DA693B689A4294BF00230123DBB2002BC1D102E06B
S32D00011CF800BF00E000BFFB7B184607F11007BD4680BD00BF80B586B000AF786039603B68002B0ED17B68DB681F
S32D00011D203B613B69002B04D07B68DA693B699A4218D84FF001033B6114E078683968FFF769FD0346BB60BB6888
S32D00011D48012B02D84FF001036EE07B68DA69BB689A4201D9BB6867E03B683B613B697B6100E000BF7B6903F136
S32D00011D7001037B617B68DA697B699A4209D84FF002037B617A693B699A4202D94FF000034EE078687969FFF717
S32D00011D983DFD0346BB60BB68002B0FD0BB68B3F1FF3F02D0BB68012B01D1BB683CE07A693B699A42D5D14FF0D2
S32D00011DC0000335E000BF786879696FF07042FFF70BFE0346FB73FB7B002B09D13B68002B06D0786839687A6911
S32D00011DE8FFF7FEFD0346FB73FB7B002B12D17B687A69DA607B681B69B3F1FF3F13D07B681B6903F1FF327B6805
S32D00011E101A617B684FF001025A7108E0FB7B012B02D14FF0FF3301E04FF001037B617B69184607F11807BD460E
S32D00011E3880BD00BF80B487B000AF786039607B685B6A03F104033B613B684FEA53227B681B689B78B2FBF3F358
S32D00011E607B613B691B68FB603B6903F104033B61FB68002B02D14FF0000311E07A69FB689A4208D37A69FB68E3
S32D00011E88D31A7B613B6903F104033B61E5E700BF3B691A687B69D318184607F11C07BD4680BC704780B584B0CF
S32D00011EB000AF78600B467B807B687A88DA807B689B68FB60FB68012B05D07B681B68DA69FB689A4202D84FF04B
S32D00011ED8020373E0FB68002B08D17B681B681B78032B03D17B681B689B6AFB60FB68002B16D17B68FA68DA6067
S32D00011F007B681B681B897A889A4202D34FF0020358E07B681B689A6A7B884FEA13139BB2D2187B681A613FE0F9
S32D00011F287B681B689B784FEA03137B811EE07B681B681846F968FFF769FC0346FB60FB68B3F1FF3F02D14FF04D
S32D00011F50010337E0FB68012B05D97B681B68DA69FB689A4202D84FF002032BE07A887B89D31A7B807A887B89D5
S32D00011F789A4234BF00230123DBB2002BD7D17B68FA68DA607B681B681846F968FFF71CFC02467B884FEA131368
S32D00011FA09BB2D2187B681A617B681B6803F134027B8803F00F034FEA4313D2187B685A614FF00003184607F136
S32D00011FC81007BD4680BD00BF90B585B000AF786039607B68DB8803F101033B813B89002B03D07B681B69002BEC
S32D00011FF002D14FF00403E4E03B8903F00F03002B40F0CE807B681B6903F101027B681A617B68DB68002B09D18C
S32D000120187B681B681B893A899A42C0F0BD804FF00403CAE03B894FEA13139BB21A467B681B689B7803F1FF33A4
S32D000120401340002B40F0AC807B681A687B68DB6810461946FFF7DEFB0346FB60FB68012B02D84FF00203ACE0AB
S32D00012068FB68B3F1FF3F02D14FF00103A5E07B681B68DA69FB689A4200F282803B68002B02D14FF0040398E02E
S32D000120907B681A687B68DB6810461946FFF736FE0346FB60FB68002B02D14FF0070388E0FB68012B02D14FF060
S32D000120B8020382E0FB68B3F1FF3F02D14FF001037BE07B681B6818464FF00001FFF740FA0346002B0CBF002346
S32D000120E00123DBB2002B02D04FF0010369E07B681B6803F1340318464FF000014FF40072FFF7A6F97B681C68B7
S32D000121087B681B681846F968FFF75EFB034623634FF00003FB7220E07B681B684FF001021A717B681B681846BF
S32D000121304FF00001FFF710FA0346002B0CBF00230123DBB2002B02D04FF0010339E07B681B681A6B02F10102F3
S32D000121581A63FB7A03F10103FB727B681B689B78FA7A9A422CBF00230123DBB2002BD3D17B681B687A681268E8
S32D00012180116BFA7A8A1A1A637B68FA68DA607B681B681846F968FFF71BFB02467B681A617B683A89DA807B68E6
S32D000121A81B6803F134023B8903F00F034FEA4313D2187B685A614FF00003184607F11407BD4690BD80B586B00D
S32D000121D000AF786078684FF00001FFF767FE0346FB75FB7D002B01D0FB7D47E07B681A687B681B691046194691
S32D000121F8FFF7AEF90346FB75FB7D002B36D17B685B693B613B691B78FB73FB7B002B03D14FF00403FB752CE099
S32D000122203B6903F10B031B7803F00803002B0DD17B689B69386919464FF00B02FFF72AF90346002B02D14FF07D
S32D00012248010301E04FF00003002B11D178684FF00001FFF7B9FE0346FB75FB7D002B14BF00230123DBB2002B38
S32D00012270BCD102E000BF00E000BFFB7D184607F11807BD4680BD00BF80B584B000AF786078684FF00001FFF780
S32D0001229809FE0346FB73FB7B002B29D17B681A687B681B6910461946FFF752F90346FB73FB7B002B19D17B68D7
S32D000122C05B691B78BB73BB7BE52B14D0BB7B002B11D078684FF00101FFF77AFE0346FB73FB7B002B14BF002321
S32D000122E80123DBB2002BD9D102E000BF00E000BFFB7B002B23D17B681A687B681B6910461946FFF725F903468E
S32D00012310FB73FB7B002B16D17B685B69BB60B8684FF000014FF02002FFF792F87B689B69B86819464FF00B02F3
S32D00012338FFF762F87B681B684FF001021A71FB7B184607F11007BD4680BD00BF80B588B000AF786039603B68E1
S32D000123601B68FB6003E0FB6803F10103FB60FB681B782F2B03D0FB681B785C2B02D14FF0010301E04FF00003FE
S32D00012388002BECD17B689B69BB60B8684FF020014FF00B02FFF758F84FF00003FB774FF000033B613B697B6118
S32D000123B04FF00803BB61FA687B69D3181B782E2B39D1FA687B69D3181B78BB777B6903F101037B61BB7F2E2B30
S32D000123D80CD17B69022B09D8BA683B69D318BA7F1A703B6903F101033B61E6E700BFBB7F2F2B08D0BB7F5C2BA2
S32D0001240005D0BB7F202B02D94FF00603C5E0FA687B69D2183B681A60BB6803F10B02BB7F202B02D84FF0240355
S32D0001242801E04FF0200313704FF00003B1E0FA687B69D3181B78BB777B6903F101037B61BB7F202B68D9BB7F3E
S32D000124502F2B65D0BB7F5C2B62D0BB7F2E2B03D03A69BB699A4214D3BB69082B02D1BB7F2E2B02D04FF0060314
S32D000124788FE04FF008033B614FF00B03BB61FB7F4FEA8303FB7700BFD1E7BB7F5BB2002B0CDAFB7F43F003034A
S32D000124A0FB77BB7FA3F180024FF22463C0F201039B5CBB77BB7F4EF6E870C0F201001946FFF726F80346002B34
S32D000124C80CBF00230123DBB2002B02D04FF006035FE0BB7F402B07D9BB7F5A2B04D8FB7F43F00203FB770DE091
S32D000124F0BB7F602B0AD9BB7F7A2B07D8FB7F43F00103FB77BB7FA3F12003BB77BA683B69D318BA7F1A703B69F9
S32D0001251803F101033B618AE700BFFA687B69D2183B681A60BB7F202B02D84FF0040301E04FF00003BB773B69E5
S32D00012540002B02D14FF0060327E0BB681B78E52B03D1BB684FF005021A70BB69082B03D1FB7F4FEA8303FB77BC
S32D00012568FB7F03F00303012B03D1BB7F43F01003BB77FB7F03F00C03042B03D1BB7F43F00803BB77BB6803F1DF
S32D000125900B03BA7F1A704FF00003184607F12007BD4680BD80B584B000AF786039603B681B782F2B03D03B68BD
S32D000125B81B785C2B08D13B6803F101033B607B684FF000029A6004E07B681B689A697B689A603B681B781F2B03
S32D000125E00BD878684FF00001FFF760FC0346FB737B684FF000025A6175E03B4678681946FFF7A8FE0346FB7379
S32D00012608FB7B002B64D17868FFF7DCFD0346FB737B689B69DB7ABB73FB7B002B21D0FB7B042B57D1BB7B03F075
S32D000126302003002B10D07B684FF000029A607B684FF000025A614FF00003FB73BB7B03F00403002B44D13EE012
S32D00012658BB7B03F00403002B3ED14FF00503FB733AE0BB7B03F00403002B37D17B685B69BB60BB6803F10B03D0
S32D000126801B7803F01003002B03D14FF00503FB7329E0BB6803F115031B784FEA03239AB2BB6803F114031B78A7
S32D000126A813439BB29BB24FEA0342BB6803F11B031B784FEA032399B2BB6803F11A031B780B439BB29BB21A4317
S32D000126D07B689A6091E790E700BF04E000BF02E000BF00E000BFFB7B184607F11007BD4680BD00BF80B582B024
S32D000126F800AF786039607B685A787B6803F13403104619463A684FF0010302F0E3FE0346002B0CBF00230123DD
S32D00012720DBB2002B02D04FF0030356E07B6893F833324FEA03239AB27B6893F8323213439BB21AB24AF655230E
S32D00012748CFF6FF739A4202D04FF0020341E07B6893F86D304FEA03627B6893F86C304FEA03431A437B6893F81B
S32D000127706B304FEA03231A437B6893F86A30134323F07F4244F24613C0F254039A4202D14FF0000321E07B6844
S32D0001279893F889304FEA03627B6893F888304FEA03431A437B6893F887304FEA03231A437B6893F886301343D3
S32D000127C023F07F4244F24613C0F254039A4202D14FF0000301E04FF00103184607F10807BD4680BD80B592B04D
S32D000127E800AFF860B9601346FB71FB681B68FB62FB6A1B78A3F130033B643B6C092B0DD8FB6A03F101031B788C
S32D000128103A2B07D1FB6A03F10203FB62FB68FA6A1A6005E041F23A13C1F6FF731B783B643B6C002B02D04FF0BD
S32D000128380B03C9E241F23413C1F6FF733A6C53F82230BB62BB68BA6A1A60BB6A002B02D14FF00C03B8E2BB6AC4
S32D000128601B78002B20D0BB6A5B78184603F0BEF8034687F8273097F8273003F00103DBB283F00103DBB2002BE4
S32D000128880ED0FB79002B08D097F8273003F00403002B02D04FF00A0396E24FF0000393E2BB6A4FF000021A7084
S32D000128B03B6CDAB2BB6A5A70BB6A5B78184602F04FFB034687F8273097F8273003F00103DBB2002B02D04FF080
S32D000128D8030379E2FB79002B08D097F8273003F00403002B02D04FF00A036DE24FF00003FB63B86AF96BFFF765
S32D00012900F9FE034687F8473097F84730012B2AD1BB6A03F5F9733B623B6A03F104031B78002B20D03B6A03F138
S32D000129280B031B784FEA03623B6A03F10A031B784FEA03431A433B6A03F109031B784FEA03231A433B6A03F19F
S32D0001295008031B781343FB63B86AF96BFFF7CAFE034687F8473097F84730032B02D14FF001032DE297F8473024
S32D00012978002B02D04FF00D0326E2BB6A93F840304FEA03239AB2BB6A93F83F3013439BB21BB2B3F5007F02D089
S32D000129A04FF00D0314E2BB6A93F84B304FEA03239AB2BB6A93F84A3013439BB29BB2BB63BB6B002B15D1BB6A59
S32D000129C893F85B304FEA0362BB6A93F85A304FEA03431A43BB6A93F859304FEA03231A43BB6A93F85830134393
S32D000129F0BB63BB6ABA6B1A62BB6A93F84430FB77BB6AFA7FDA70FB7F012B05D0FB7F022B02D04FF00D03DBE157
S32D00012A18FA7FBB6B02FB03F3BB63BB6A93F84130FB77BB6AFA7F9A70FB7F002B06D0FA7FFB7F03F1FF331340BD
S32D00012A40002B02D04FF00D03C2E1BB6A93F846304FEA03239AB2BB6A93F8453013439BB29AB2BB6A1A81BB6AAE
S32D00012A681B8903F00F03002B02D04FF00D03ABE1BB6A93F848304FEA03239AB2BB6A93F8473013439BB29BB2D4
S32D00012A907B637B6B002B15D1BB6A93F857304FEA0362BB6A93F856304FEA03431A43BB6A93F855304FEA0323C7
S32D00012AB81A43BB6A93F8543013437B63BB6A93F843304FEA03239AB2BB6A93F8423013439BB2BB83BB8B002BE8
S32D00012AE002D14FF00D0373E1BA8BBB6BD218BB6A1B894FEA13139BB2D318BB617A6BBB699A4202D24FF00D0378
S32D00012B0862E17A6BBB69D21ABB6A9B78B2FBF3F37B617B69002B02D14FF00D0354E14FF0010387F847307A693D
S32D00012B3040F6F5739A4203D94FF0020387F847307A694FF6F5739A4203D94FF0030387F847307B6903F1020287
