S00F00002E2E2F526F626F742E73313954
S32D0000C0000000002059FB0000B5FE0000B5FE0000B5FE0000B5FE0000B5FE00000000000000000000000000001F
S32D0000C02800000000B5FE0000B5FE000000000000B5FE0000B5FE0000B5FE0000B5FE0000B5FE0000B5FE000052
S32D0000C050B5FE0000B5FE0000B5FE0000B5FE0000B5FE0000B5FE0000B5FE0000B5FE0000B5FE0000B5FE0000C4
S32D0000C078B5FE0000B5FE0000B5FE0000B5FE0000B5FE0000B5FE0000B5FE0000B5FE0000B5FE0000B5FE00009C
S32D0000C0A0B5FE0000B5FE0000B5FE0000B5FE0000B5FE0000B5FE0000B5FE0000B5FE0000B5FE0000B5FE000074
S32D0000C0C8B5FE0000B5FE0000B5FE0000B5FE0000B5FE0000B5FE0000B5FE0000B5FE0000B5FE0000B5FE00004C
S32D0000C0F0B5FE0000356B0100B5FE0000B5FE0000B5FE0000B5FE0000B5FE0000B5FE0000B5FE0000B5FE000036
S32D0000C118B5FE0000B5FE0000B5FE0000B5FE0000B5FE0000B5FE0000B5FE0000B5FE0000B5FE0000B5FE0000FB
S32D0000C140B5FE0000B5FE0000B5FE0000B5FE00002D350100B5FE0000B5FE0000B5FE0000B5FE0000B5FE000023
S32D0000C168B5FE0000B5FE0000B5FE0000B5FE0000B5FE0000B5FE0000B5FE0000B5FE0000B5FE0000B5FE0000AB
S32D0000C190B5FE0000B5FE0000B5FE00008D2F0100E12D0100B52E010005FF000065300100B5FE0000B5FE0000B8
S32D0000C1B8B5FE0000B5FE0000B5FE0000B5FE0000B5FE0000B5FE0000B5FE0000B5FE0000B5FE0000B5FE00005B
S32D0000C41081F0004102E000BF83F0004330B54FEA41044FEA430594EA050F08BF90EA020F1FBF54EA000C55EAC6
S32D0000C438020C7FEA645C7FEA655C00F0E2804FEA5454D4EB5555B8BF6D420CDD2C4480EA020281EA030382EA0F
S32D0000C460000083EA010180EA020281EA0303362D88BF30BD11F0004F4FEA01314FF4801C4CEA113102D0404263
S32D0000C48861EB410113F0004F4FEA03334CEA133302D0524263EB430394EA050F00F0A780A4F10104D5F1200E8A
S32D0000C4B00DDB02FA0EFC22FA05F2801841F1000103FA0EF2801843FA05F359410EE0A5F120050EF1200E012A2D
S32D0000C4D803FA0EFC28BF4CF0020C43FA05F3C01851EBE37101F0004507D54FF0000EDCF1000C7EEB00006EEB67
S32D0000C5000101B1F5801F1BD3B1F5001F0CD349085FEA30004FEA3C0C04F101044FEA445212F5800F80F09A8000
S32D0000C528BCF1004F08BF5FEA500C50F1000041EB045141EA050130BD5FEA4C0C404141EB010111F4801FA4F114
S32D0000C5500104E9D191F0000F04BF01460020B1FA81F308BF2033A3F10B03B3F120020CDA0C3208DD02F1140C87
S32D0000C578C2F10C0201FA0CF021FA02F10CE002F11402D8BFC2F1200C01FA02F120FA0CFCDCBF41EA0C019040B1
S32D0000C5A0E41AA2BF01EB0451294330BD6FEA04041F3C1CDA0C340EDC04F11404C4F1200220FA04F001FA02F3B6
S32D0000C5C840EA030021FA04F345EA030130BDC4F10C04C4F1200220FA02F001FA04F340EA0300294630BD21FAA8
S32D0000C5F004F0294630BD94F0000F83F4801306BF81F480110134013D4EE77FEA645C18BF7FEA655C29D094EA1C
S32D0000C618050F08BF90EA020F05D054EA000C04BF1946104630BD91EA030F1EBF0021002030BD5FEA545C05D1A3
S32D0000C6404000494128BF41F0004130BD14F580043CBF01F5801130BD01F0004545F0FE4141F470014FF0000031
S32D0000C66830BD7FEA645C1ABF194610467FEA655C1CBF0B46024650EA013406BF52EA033591EA030F41F40021D7
S32D0000C69030BD00BF90F0000F04BF0021704730B54FF4806404F132044FF000054FF0000150E700BF90F0000F66
S32D0000C6B804BF0021704730B54FF4806404F1320410F0004548BF40424FF000013EE700BF42004FEAE2014FEAF9
S32D0000C6E031014FEA02701FBF12F07F4393F07F4F81F06051704792F0000F14BF93F07F4F704730B54FF460741B
S32D0000C70801F0004521F0004120E700BF50EA010208BF704730B54FF000050AE050EA010208BF704730B511F046
S32D0000C730004502D5404261EB41014FF4806404F132045FEA915C3FF4DCAE4FF003025FEADC0C18BF03325FEAA0
S32D0000C758DC0C18BF033202EBDC02C2F1200300FA03FC20FA02F001FA03FE40EA0E0021FA02F11444C1E600BF19
S32D0000C78070B54FF0FF0C4CF4E06C1CEA11541DBF1CEA135594EA0C0F95EA0C0F00F0DEF82C4481EA030621EAF3
S32D0000C7A84C5123EA4C5350EA013518BF52EA033541F4801143F4801338D0A0FB02CE4FF00005E1FB02E506F05F
S32D0000C7D00042E0FB03E54FF00006E1FB03569CF0000F18BF4EF0010EA4F1FF04B6F5007F64F5407404D25FEA0F
S32D0000C7F84E0E6D4146EB060642EAC62141EA55514FEAC52040EA5E504FEACE2EB4F1FD0C88BFBCF5E06F1ED8D2
S32D0000C820BEF1004F08BF5FEA500E50F1000041EB045170BD06F0004646EA010140EA020081EA0301B4EB5C0487
S32D0000C848C2BFD4EB0C0541EA045170BD41F480114FF0000E013C00F3AB8014F1360FDEBF002001F0004170BDF0
S32D0000C870C4F10004203C35DA0C341BDC04F11404C4F1200500FA05F320FA04F001FA05F240EA020001F0004207
S32D0000C89821F0004110EBD37021FA04F642EB06015EEA430E08BF20EAD37070BDC4F10C04C4F1200500FA04F32F
S32D0000C8C020FA05F001FA04F240EA020001F0004110EBD37041F100015EEA430E08BF20EAD37070BDC4F12005C7
S32D0000C8E800FA05F24EEA020E20FA04F301FA05F243EA020321FA04F001F0004121FA04F220EA020000EBD37028
S32D0000C9105EEA430E08BF20EAD37070BD94F0000F0FD101F00046400041EB010111F4801F08BF013CF7D041EA6D
S32D0000C938060195F0000F18BF704703F00046520043EB030313F4801F08BF013DF7D043EA0603704794EA0C0FF1
S32D0000C9600CEA135518BF95EA0C0F0CD050EA410618BF52EA4306D1D181EA030101F000414FF0000070BD50EA38
S32D0000C988410606BF1046194652EA430619D094EA0C0F02D150EA013613D195EA0C0F05D152EA03361CBF10467B
S32D0000C9B019460AD181EA030101F0004141F0FE4141F470014FF0000070BD41F0FE4141F4780170BD70B54FF04D
S32D0000C9D8FF0C4CF4E06C1CEA11541DBF1CEA135594EA0C0F95EA0C0F00F0A7F8A4EB050481EA030E52EA03359B
S32D0000CA004FEA013100F088804FEA03334FF0805545EA131343EA12634FEA022245EA111545EA10654FEA002676
S32D0000CA280EF000419D4208BF964244F1FD0404F5407402D25B084FEA3202B61A65EB03055B084FEA32024FF461
S32D0000CA5080104FF4002CB6EB020E75EB030E22BFB61A754640EA0C005B084FEA3202B6EB020E75EB030E22BF22
S32D0000CA78B61A754640EA5C005B084FEA3202B6EB020E75EB030E22BFB61A754640EA9C005B084FEA3202B6EBEA
S32D0000CAA0020E75EB030E22BFB61A754640EADC0055EA060E18D04FEA051545EA16754FEA06164FEAC30343EAAC
S32D0000CAC852734FEAC2025FEA1C1CC0D111F4801F0BD141EA00014FF000004FF0004CB6E711F4801F04BF0143AE
S32D0000CAF00020B4F1FD0C88BFBCF5E06F3FF6AFAEB5EB030C04BFB6EB020C5FEA500C50F1000041EB045170BDBC
S32D0000CB180EF0004E4EEA113114EB5C04C2BFD4EB0C0541EA045170BD41F480114FF0000E013C90E645EA060EC3
S32D0000CB408DE60CEA135594EA0C0F08BF95EA0C0F3FF43BAF94EA0C0F0AD150EA01347FF434AF95EA0C0F7FF499
S32D0000CB6825AF104619462CE795EA0C0F06D152EA03353FF4FDAE1046194622E750EA410618BF52EA43067FF432
S32D0000CB90C5AE50EA41047FF40DAF52EA43057FF4EBAE12E74FF0FF3C06E000BF4FF0010C02E000BF4FF0010C75
S32D0000CBB84DF804CD4FEA410C7FEA6C5C4FEA430C18BF7FEA6C5C1BD001B050EA410C0CBF52EA430C91EA030FEC
S32D0000CBE002BF90EA020F0020704710F1000F91EA030F58BF994208BF90422CBFD8176FEAE37040F0010070476E
S32D0000CC084FEA410C7FEA6C5C02D150EA013C07D14FEA430C7FEA6C5CD6D152EA033CD3D05DF8040B704700BFCD
S32D0000CC308446104662468C461946634600E000BF01B5FFF7B7FF002848BF10F1000F01BD4DF808EDFFF7F4FF13
S32D0000CC580CBF012000205DF808FB00BF4DF808EDFFF7EAFF34BF012000205DF808FB00BF4DF808EDFFF7E0FF18
S32D0000CC8094BF012000205DF808FB00BF4DF808EDFFF7CEFF94BF012000205DF808FB00BF4DF808EDFFF7C4FF40
S32D0000CCA834BF012000205DF808FB00BF4FEA410212F5001215D211D56FF47873B3EB625212D94FEAC12343F0D6
S32D0000CCD0004343EA505311F0004F23FA02F018BF404270474FF00000704750EA013005D111F0004008BF6FF016
S32D0000CCF8004070474FF00000704700BF4A0011D212F5001211D20DD56FF47873B3EB62520ED44FEAC12343F085
S32D0000CD20004343EA505323FA02F070474FF00000704750EA013002D14FF0FF3070474FF0000070474FEA410241
S32D0000CD48B2F1E04324BFB3F5001CDCF1FE5C0DD901F0004C4FEAC0024CEA5070B2F1004F40EB830008BF20F09E
S32D0000CD700100704711F0804F21D113F13872BCBF01F00040704741F480114FEA5252C2F11802C2F1200C10FAB1
S32D0000CD980CF320FA02F018BF40F001004FEAC1234FEAD32303FA0CFC40EA0C0023FA02F34FEA4303CCE77FEA26
S32D0000CDC0625307D150EA01331EBF4FF0FE4040F44000704701F0004040F0FE4040F40000704700BF80F00040CC
S32D0000CDE802E000BF81F0004142001FBF5FEA410392EA030F7FEA226C7FEA236C6AD04FEA1262D2EB1363C1BF06
S32D0000CE10D218414048404140B8BF5B42192B88BF704710F0004F40F4000020F07F4018BF404211F0004F41F4FA
S32D0000CE38000121F07F4118BF494292EA030F3FD0A2F1010241FA03FC10EB0C00C3F1200301FA03F100F000432B
S32D0000CE6002D5494260EB4000B0F5000F13D3B0F1807F06D340084FEA310102F10102FE2A51D2B1F1004F40EB94
S32D0000CE88C25008BF20F0010040EA03007047490040EB000010F4000FA2F10102EDD1B0FA80FCACF1080CB2EB5F
S32D0000CEB00C0200FA0CF0AABF00EBC25052421843BCBFD0401843704792F0000F81F4000106BF80F400000132EB
S32D0000CED8013BB5E74FEA41037FEA226C18BF7FEA236C21D092EA030F04D092F0000F08BF0846704790EA010FD7
S32D0000CF001CBF0020704712F07F4F04D1400028BF40F00040704712F100723CBF00F50000704700F0004343F0DC
S32D0000CF28FE4040F4000070477FEA226216BF08467FEA23630146420206BF5FEA412390EA010F40F480007047C1
S32D0000CF504FF0000304E000BF10F0004348BF40425FEA000C08BF704743F0964301464FF000001CE050EA010264
S32D0000CF7808BF70474FF000030AE000BF50EA010208BF704711F0004302D5404261EB41015FEA010C02BF84465B
S32D0000CFA00146002043F0B64308BFA3F18053A3F50003BCFA8CF2083AA3EBC25310DB01FA02FC634400FA02FC6B
S32D0000CFC8C2F12002BCF1004F20FA02F243EB020008BF20F00100704702F1200201FA02FCC2F1200250EA4C0034
S32D0000CFF021FA02F243EB020008BF20EADC7070474FF0FF0C1CEAD0521EBF1CEAD15392EA0C0F93EA0C0F6FD019
S32D0000D0181A4480EA010C400218BF5FEA41211ED04FF0006343EA501043EA5111A0FB01310CF00040B1F5000FE7
S32D0000D0403EBF490041EAD3715B0040EA010062F17F02FD2A1DD8B3F1004F40EBC25008BF20F00100704790F058
S32D0000D068000F0CF0004C08BF49024CEA502040EA51207F3AC2BFD2F1FF0340EAC250704740F400004FF0000388
S32D0000D090013A5DDC12F1190FDCBF00F000407047C2F10002410021FA02F1C2F1200200FA02FC5FEA310040F1D5
S32D0000D0B8000053EA4C0308BF20EADC70704792F0000F00F0004C02BF400010F4000F013AF9D040EA0C0093F04C
S32D0000D0E0000F01F0004C02BF490011F4000F013BF9D041EA0C018FE70CEAD15392EA0C0F18BF93EA0C0F0AD00B
S32D0000D10830F0004C18BF31F0004CD8D180EA010000F00040704790F0000F17BF90F0004F084691F0000F91F0BB
S32D0000D130004F14D092EA0C0F01D142020FD193EA0C0F03D14B0218BF084608D180EA010000F0004040F0FE4051
S32D0000D15840F40000704740F0FE4040F4400070474FF0FF0C1CEAD0521EBF1CEAD15392EA0C0F93EA0C0F69D044
S32D0000D180A2EB030280EA010C49024FEA402037D04FF0805343EA111143EA10130CF000408B4238BF5B0042F14E
S32D0000D1A87D024FF4000C8B4224BF5B1A40EA0C00B3EB510F24BFA3EB510340EA5C00B3EB910F24BFA3EB9103A4
S32D0000D1D040EA9C00B3EBD10F24BFA3EBD10340EADC001B0118BF5FEA1C1CE0D1FD2A3FF650AF8B4240EBC25018
S32D0000D1F808BF20F0010070470CF0004C4CEA50207F32C2BFD2F1FF0340EAC250704740F400004FF00003013AF1
S32D0000D22037E792F0000F00F0004C02BF400010F4000F013AF9D040EA0C0093F0000F01F0004C02BF490011F4C9
S32D0000D248000F013BF9D041EA0C0195E70CEAD15392EA0C0F08D142027FF47DAF93EA0C0F7FF470AF084676E7AE
S32D0000D27093EA0C0F04D14B023FF44CAF08466EE730F0004C18BF31F0004CCAD130F000427FF45CAF31F0004376
S32D0000D2987FF43CAF5FE700BF4FF0FF3C06E000BF4FF0010C02E000BF4FF0010C4DF804CD4FEA40024FEA41039F
S32D0000D2C07FEA226C18BF7FEA236C11D001B052EA530C18BF90EA010F58BFB2EB030088BFC81738BF6FEAE1706E
S32D0000D2E818BF40F0010070477FEA226C02D15FEA402C05D17FEA236CE4D15FEA412CE1D05DF8040B704700BF16
S32D0000D310844608466146FFE70FB5FFF7C9FF002848BF10F1000F0FBD4DF808EDFFF7F4FF0CBF012000205DF839
S32D0000D33808FB00BF4DF808EDFFF7EAFF34BF012000205DF808FB00BF4DF808EDFFF7E0FF94BF012000205DF8A9
S32D0000D36008FB00BF4DF808EDFFF7D2FF94BF012000205DF808FB00BF4DF808EDFFF7C8FF34BF012000205DF8B1
S32D0000D38808FB00BF4FEA4002B2F1FE4F0FD34FF09E03B3EB12620DD94FEA002343F0004310F0004F23FA02F060
S32D0000D3B018BF404270474FF00000704712F1610F01D1420205D110F0004008BF6FF0004070474FF00000704797
S32D0000D3D8036803B11B181846704700BF03685A004CBF43F0004323F00043C018704700BF2DE9F84F0446914699
S32D0000D40041B301F1FF3BDA46002707EB0A0101EBD1756D1004EBC5063046FFF7E3FF8046681CAB4504EBC000FA
S32D0000D4280DD0FFF7DBFF0138C84504D9BD4209D005F1FF3AE5E7484505D26F1CE1E74FF0FF30F1E7002630469A
S32D0000D450BDE8F88F0E463046BDE8F88F30B52B4B83B004468D1E002B49D0284601A9AFF300800346002822D028
S32D0000D4782A4618460199FFF7BBFF054600281DD0FFF7ACFF6B68A064012B10D0281D002B22DBFFF7A3FF002164
S32D0000D4A0E06421650368002B0FDBFFF79BFF2061002003B030BD002323610520F9E720610920F6E72061092066
S32D0000D4C8F3E7C3F3036058B101280CD002280ED0002020610920E8E70122E0642265DDE7094B2361E1E7094AEF
S32D0000D4F000202261DDE7084900202161D9E7074B0749C81AC2100192B6E700BF0000000029DA000025DA0000AD
S32D0000D51821DA00008CC5010084C70100036810B50446D80706D4990704F1480009D500F00DFD23685A0709D59A
S32D0000D54018070ED5D90613D510BD00F0FBFC23685A07F5D404F1D00000F004FD23681807F0D404F5D87000F036
S32D0000D56805FD2368D906EBD404F50C70BDE8104000F040BD2DE9F0470F1D054691460FCFADF5916D02AC261D09
S32D0000D5900FC60FCF0FC60FCF0FC697E80F00D5F80C80D5F818A0002786E80F00216C27602846FFF753FF06460C
S32D0000D5B8B94514BF4FF00A094FF00909FEB1A16B49F01009616401208DE8100449462A462B46C04700282BD1BA
S32D0000D5E0002E2AD1204692A94FF410720BF038FD082F28D1216C2846FFF730FF06464FF00909002EDFD1206C07
S32D0000D60821464FF41072686192A80BF025FD2F69294692AA4846B847A09B0746636401208DE8100449462A46E0
S32D0000D6302B46C0470028D3D00926304622B00DF5806DBDE8F087072FF6D1201D00F06EFC38B504460D46296C54
S32D0000D6582046FFF7FFFE50B92A6C23696261012021462A4698470828F1D0072801D00DF03DFE281D00F056FCD6
S32D0000D68011B933B10220704704298CBF0220012070470F2A01D90220704700EB820118464A68009B1A6070474D
S32D0000D6A810B50A4684B000210B4603AC0094FFF7E3FF039804B010BD11B933B10220704704298CBF0220012020
S32D0000D6D070470F2A01D902207047009900EB8202096818465160704710B584B004AB0C4643F8042D0021009330
S32D0000D6F822460B46FFF7E0FF04B010BD2DE9F04FCD6C8BB00C4655F8041B174600F008021E46039200F0030823
S32D0000D7200795002B40F0CF8009020691216D8DF821300323B8F1020F8DF8203008BFA56B11F0010340F0D3807B
S32D0000D748019304F158030293D5F80090B9F1000F00F0CB80022E00F0AE80B5F80090B5F802A00435A26C0F2198
S32D0000D7702AF0010B38469344FFF796FF834518D829F0010CE3440AF0010A09F00103584543EA4A092CBF002056
S32D0000D7980120B9F1010F12D032D2B8F1000F02D0002840F01D810435CEE70AF0010A09F0010343EA4A09002092
S32D0000D7C0B9F1010FECD1B8F1000F40F0B680C8B16B68D5F800909A1C19D0029A013309920DD0281DFFF7F8FDE6
S32D0000D7E84FEAD972014609AB20460CF0E5FD002800F0F280099A002A40F0BA800835A3E7B9F1020F03D0092011
S32D0000D8100BB0BDE8F08F2B6823F000420092B8F1000F71D1002843D00398002840F0A1800098002800F0A08078
S32D0000D838009BDDF80C90DB0705F1040A40F1B480CDF810800596A846029E12E000998D4200F0D9800996FFF7B5
S32D0000D860BBFD5A46014609AB20460CF0A9FDA946B0B90AF1040A05F1010950460996FFF7ABFD09AB01460022EE
S32D0000D88820460CF099FD0AF1040A834609F101055046BBF1000FD9D04546059EDDF81080009A4A4564D02B682B
S32D0000D8B0002B7BDB0099481C05EB800548E7D5F804A0083552E70B04C1F30740216D06930222B8F1020F05EB42
S32D0000D8D8800508BFA56B8DF8210011F001038DF820203FF42DAF00200190384606A900F019FC002887D1019A49
S32D0000D900002A43D1082083E70D213846D4F82090FFF7CAFE8145CAD1A26A9542C7D10098291D00220423A0623E
S32D0000D928E26223636163286800286EDB01220192BCE70D213846D4F82090FFF7B1FE81457FF45CAFA16A8D42FE
S32D0000D9507FF458AF2846FFF745FD0F2102463846FFF7C2FE384600212246FFF7BDFE07204EE7009900299BD19B
S32D0000D97838460D21FFF794FE099B20626362A562062041E70F213846FFF78AFE0E2102463846FFF7A5FE3846D5
S32D0000D9A00F211E4AFFF7A0FE072031E7043581E7029950460991FFF70FFD039A014609AB20460CF0FDFC002865
S32D0000D9C87FF46EAFCDF8108005960AF1040A4FF00109A846029E4CE7CDF824800835B3E62846FFF7FBFC0435CB
S32D0000D9F00646A56320460CF059FD00283FF407AF38460F213246FFF76FFE072000E74546B2E7009B591C05EB31
S32D0000DA1881009CE715A6010002236FE601236DE600236BE62DE9F0470446E8B004290CD8DFE801F03803919364
S32D0000DA400F00150C012B96B200F07881052B00F0C780022068B0BDE8F087002BF9D1102AF7D82368D90600F115
S32D0000DA68738164A8019200F0CFFA019AA36BD00744BF53F8040B6490910744BF53F8041B6591500744BF53F8D3
S32D0000DA90041B6691110748BF53F8042B64A8A36348BF679200F0AAFA0020D3E7002BD0D1A36BD00791B244BF42
S32D0000DAB853F8042B62608A0744BF53F8042BA260480744BF53F8042BE2600A0744BF53F8042B2261C80644BF04
S32D0000DAE053F8042B62618A0644BF53F8042BA261480644BF53F8042BE2610A0644BF53F8042B2262C80544BFDC
S32D0000DB0853F8042B62628A0544BF53F8042BA262480544BF53F8042BE2620A0544BF53F8042B2263C80444BFB3
S32D0000DB3053F8042B626311F400501CBF53F8042BA2634A0444BF53F8042BE2630A0444BF53F8042B2264002890
S32D0000DB5840D1A3637AE7012078E7032B7FF475AF160C95B2AA19102A3FF66FAF2368180700F10B8144A800F026
S32D0000DB801BFAA76B4FEA450E3B460DB344A90EF1FF3C01EBC60653F8040B62460CF0010146F8040B92B129B13A
S32D0000DBA853F8041B013A46F8041B0BD01846314650F8045B41F8045B5D68031D75600E1D023AF3D107EB8E03F6
S32D0000DBD044A8A36300F0CEF900203BE7002039E777192022BA42FFF434AF012B00F0A9800F2D40F2A9803746FF
S32D0000DBF8F6B1052B7FF429AF0F2D11D82268D0070ED522F00101052B2160204600F0DA8022F0030240F8482B3D
S32D0000DC20019300F093F9019B1FB12268510700F1B880012B00F0BF800F2D75D9002F40F0A080D4F83890002E29
S32D0000DC48C8462EDD49460DF1080A4FEA46080AEBC50251F8046B08F1FF3000F0010A42F8046BA8F1020CD0B107
S32D0000DC70BAF1000F08D051F8040B0CF1FF3CBCF1FF3F42F8040B0ED00E46104656F804AB40F804AB4968ACF176
S32D0000DC98020C5160311D021DBCF1FF3FF0D109EB8808A7B3102D2CBF2E4610260DF5D079414609EBC60CACF59D
S32D0000DCC0C8724FEA470951F8046B09F1FF3000F0010A42F8046BA9F1020CD0B1BAF1000F08D051F8040B0CF1DE
S32D0000DCE8FF3CBCF1FF3F42F8040B0ED00E46104656F804AB40F804AB4968ACF1020C5160311D021DBCF1FF3FCE
S32D0000DD10F0D108EB8908012B2BD00F2DC4F8388008D9FFB9384695E602A8019300F016F9019B83E702A800F05A
S32D0000DD380DF9F2E77719102250E70F2D3FF685AE102F10D9103F54E723F01003236004F50C70019200F058F99D
S32D0000DD60019A82E624A800F0FDF8002072E6002746E708F1040302A8A36300F0E3F8002068E624A80193C5F116
S32D0000DD88100600F0EFF8019B57E723F0080704F5D870276000F00CF9ECE6204622F0040140F8D01B019300F0D1
S32D0000DDB0DDF8019B3DE702A8019300F0C7F8019B002F3FF43EAFC5F110063AE741F0020140F8481B019300F098
S32D0000DDD8C1F8019B24E700BF406C7047F0B50D460F1DC96B296404460FCFADF5117D01AE0FC60FCF0FC60FCF49
S32D0000DE000FC697E80F0086E80F004FF0FF33009310992046FFF722FB58B9266921466A46B04708280646F3D001
S32D0000DE286846FFF77BFB062E03D009200DF5117DF0BD20462946FFF707FC00BF10B4DC6BC16082611946002228
S32D0000DE501C6410BCFFF792BB38B54269C3680A6404460D4623B10122FFF788FB0DF042FA0369214602202A4639
S32D0000DE789847072803D0082804D00DF037FA281D00F050F820462946FFF7DEFBC36823B1CA6B0A640022FFF78E
S32D0000DEA06DBB9FE7704700BF08B5836801460BB10120984708BD00BFF0B5D46B171D146405460C460FCFADF554
S32D0000DEC8277D01AE0FC60FCF0FC60FCF0FC697E80F0086E80F004FF0FF330093109990A8FFF7B8FA034690AA83
S32D0000DEF068460C21BBB9FFF7F7FB21466846A847064690A908206A466EB9949B98470528064601D00928E5D106
S32D0000DF186846FFF703FB30460DF5277DF0BD0926F6E700BF00F1340191E838009C46A6464CF8045D90E8FF0FD5
S32D0000DF40E54600BD90EC210B704700BF80EC210B704700BF90EC200B704700BF80EC200B704700BFD0EC200B8E
S32D0000DF68704700BFC0EC200B704700BFF0EC0201F0EC0211F0EC0221F0EC0231F0EC0241F0EC0251F0EC02615F
S32D0000DF90F0EC0271F0EC0281F0EC0291F0EC02A1F0EC02B1F0EC02C1F0EC02D1F0EC02E1F0EC02F1704700BFE6
S32D0000DFB8E0EC0201E0EC0211E0EC0221E0EC0231E0EC0241E0EC0251E0EC0261E0EC0271E0EC0281E0EC029155
S32D0000DFE0E0EC02A1E0EC02B1E0EC02C1E0EC02D1E0EC02E1E0EC02F1704700BFB0FC0181B0FC0191B0FC01A159
S32D0000E008B0FC01B1704700BFA0FC0181A0FC0191A0FC01A1A0FC01B1704700BFEC4600B52DE900502DE9FF1F47
S32D0000E0304FF000032DE90C0001A9FFF7D3FEDDF840E012B0704700BFEC4600B52DE900502DE9FF1F4FF00003FD
S32D0000E0582DE90C0001A9FFF7FBFEDDF840E012B0704700BFEC4600B52DE900502DE9FF1F4FF000032DE90C00CD
S32D0000E08001A9FFF707FFDDF840E012B0704700BFEC4600B52DE900502DE9FF1F4FF000032DE90C0001ABFFF718
S32D0000E0A8CDFEDDF840E012B0704700BFEC4600B52DE900502DE9FF1F4FF000032DE90C0001AAFFF7F5FEDDF804
S32D0000E0D040E012B0704700BF027A03461AB9427A42B9B02070470068013A01021A72000E196070474168501E6D
S32D0000E0F8587251F8040B0322596001021A72000E1960704710B5002184B00C220DEB02040B460094FFF7B0FA62
S32D0000E120039804B010BD00BFF0E700BF2DE9F043064685B00D464FF000094FF47F672846FFF7CAFFB028044683
S32D0000E14800F0B08010F0800120D000F0F003802B74D0902B37D0A02B45D0B02B56D0C02B00F0858000F0F800DB
S32D0000E170D0280BD104F00702511C41F40022304601210523FFF752FC0028D8D0092005B0BDE8F0834FEA800267
S32D0000E19803A85FFA82F800900D220B463046FFF76BFA039B600608F104084CBFC8EB0303434403AC03930094CD
S32D0000E1C0002130460D220B46FFF77AFAB7E700F00F020D2ADAD00F2AD8D0002103AC009430460B4603ACFFF77F
S32D0000E1E84BFA0094E8E7C24302F0070C47FA0CF0210700F47F6248BF42F48042002130460B46FFF70FFC00280D
S32D0000E210BCD194E7B1285DD0B2286ED0B32800F0958000F0FC02B42A46D000F00702531C43F40022012130469F
S32D0000E2380B46FFF7F7FB0028A4D17CE72846FFF747FF210240EA0104B4F5004F9AD0230500211A0C30460B46EB
S32D0000E2602401FFF7E3FB002890D114F4004F18BF4FF0010963E7C62873D0C72800F0848000F0F802C02A00F075
S32D0000E2889280C82800F0A680C9287FF47BAF2846FFF71EFF00F00F0300F0F0015A1C42EA013268E7B9F1000F81
S32D0000E2B000F0838000206AE700F00301481C022140F480220B463046FFF7B0FB00287FF45DAF34E72846FFF7FD
S32D0000E2D8FFFE024600283FF455AF10F0F0017FF451AF30460B46FFF79DFB00287FF44AAF21E700210D220B467E
S32D0000E30003AC30460094FFF7BBF92846FFF7E4FE022402060DD5039B00F07F0000FA04FE03EB0E01284603912E
S32D0000E328FFF7D6FE07340306F1D4039B00F07F0103AA03F5017C01FA04F400920CEB0402039239E72846FFF729
S32D0000E350C3FE00F00F03591C00F0F00041EA003268E72846FFF7B8FE00F00F03591C00F0F00041EA00320321E9
S32D0000E37830460B46FFF756FB00287FF403AFDAE62846FFF7A5FE024600283FF4FBAE10F0F0037FF4F7AE304688
S32D0000E3A00421FFF743FB00287FF4F0AEC7E600F00F01481C40F42022DDE703AC49460E224B4630460094FFF773
S32D0000E3C85BF9304649460F224B460094FFF774F94846D8E62846FFF77BFE00F0F00200F00F001032431C43EA3D
S32D0000E3F00232C4E610B5C26C84B0032054688DF80C00D37924020832084601A9019402928DF80D30FFF78AFE7D
S32D0000E41804B010BD08B5FFF783FE806C08BD00BF08B5FFF77DFEC16CC87901EB800303F1080008BD08B50CF02C
S32D0000E44059FF00BF08B50CF055FF00BF80B483B000AF78607B68044A1A607B68184607F10C07BD4680BC7047F0
S32D0000E468B0B7010080B582B000AF78607B681846FFF7E8FF7B68064A1A607B684FF47F025A607B68184607F1CB
S32D0000E4900807BD4680BD00BF98B7010090B585B000AF786039603B6893F82830002B04D07B684FF000025A6003
S32D0000E4B803E07B684FF001025A6007F10C03184601F0E4F97B685B68012B11D14FF014000BF06CFE0446204625
S32D0000E4E01049114A00F0E6F807F10C0318463968224601F0DBF910E04FF014000BF05AFE044620460949084A6F
S32D0000E50800F0D4F807F10C0318463968224601F0C9F907F11407BD4690BD00BF000070410000F04100000041C3
S32D0000E53080B483B000AF786039604FF00103184607F10C07BD4680BC704700BF80B483B000AF7860396007F156
S32D0000E5580C07BD4680BC704780B483B000AF78604FF00003184607F10C07BD4680BC704780B582B000AF78600F
S32D0000E58039607B681846FFF761FF7B68054A1A607B683A685A607B68184607F10807BD4680BD00BFF8B701005B
S32D0000E5A880B483B000AF7860396007F10C07BD4680BC704780B582B000AF786039607B685B6838681946054A42
S32D0000E5D000F066FD4FF00103184607F10807BD4680BD00BF0000204280B483B000AF7860396007F10C07BD462C
S32D0000E5F880BC704780B483B000AF78604FF00003184607F10C07BD4680BC704780B582B000AF78607B68184644
S32D0000E620FFF714FF7B68044A1A607B68184607F10807BD4680BD00BF30B8010080B483B000AF7860396007F169
S32D0000E6480C07BD4680BC704780B483B000AF786039604FF00103184607F10C07BD4680BC704700BF80B483B04C
S32D0000E67000AF7860396007F10C07BD4680BC704780B483B000AF78604FF00103184607F10C07BD4680BC7047CB
S32D0000E69880B483B000AF78607B6823F00043184607F10C07BD4680BC704700BF80B584B000AFF860B9607A60AC
S32D0000E6C0FB681846FFF7C2FEFB68094A1A60FB68BA685A60FB687A689A60FB684FF000021A74FB68184607F11C
S32D0000E6E81007BD4680BD00BF60B8010090B585B000AF7860396007F10803184601F0C6F87B685C68386800F0F4
S32D0000E71027FE034620461946FEF768FB0346FB60F868FFF7B9FF03464FF00102144618463E49FEF721FE034677
S32D0000E738002B02D14FF000031C46E3B2002B3BD07B689B681846F968FEF756FC03464FF001021446184634499A
S32D0000E760FEF7ECFD0346002B02D14FF000031C46E3B2002B14D07B684FF001021A744FF008000BF017FD0446CB
S32D0000E7882046294900F054FA07F1080318463968224601F087F80FE04FF008000BF006FD04462046214900F035
S32D0000E7B043FA07F1080318463968224601F076F87B689B684FF00102144618461849FEF7B5FD0346002B02D106
S32D0000E7D84FF000031C46E3B2002B06D07B681B7C83F00103DAB27B681A747B681B7C002B05D07B689B6883F018
S32D0000E80000427B689A60386800F0B6FD02467B68DA604FF000004FF07E5101F5C00103F05FFF07F11407BD46B8
S32D0000E82890BD00BF0000803F000000000000344390B585B000AF786039607B685C68386800F08AFD0346204679
S32D0000E8501946FEF7CBFA0346FB60F868FFF71CFF03464FF00102144618461449FEF784FD0346002B02D14FF0D0
S32D0000E87800031C46E3B2002B14D0F8680E49FEF7BBFB034618460D49FEF76AFC03461A467B689B683868114629
S32D0000E8A01A4600F0FDFB4FF0000301E04FF00103184607F11407BD4690BD00BF0000803F000040400000A040FD
S32D0000E8C880B582B000AF786039603B68184601F09FFB3B6803F10803184601F099FB07F10807BD4680BD00BF84
S32D0000E8F080B483B000AF78604FF00003184607F10C07BD4680BC704780B584B000AFF860B9607A60FB68184647
S32D0000E918FFF798FDFB68094A1A60FB68BA685A60FB687A689A60FB684FF000021A74FB68184607F11007BD4693
S32D0000E94080BD00BF90B8010090B585B000AF7860396007F10803184600F09CFF7B685C68386800F009FD034658
S32D0000E96820461946FEF73EFA0346FB60F868FFF78FFE03464FF00102144618463E49FEF7F7FC0346002B02D10F
S32D0000E9904FF000031C46E3B2002B3BD07B689B681846F968FEF72CFB03464FF00102144618463449FEF7C2FCB6
S32D0000E9B80346002B02D14FF000031C46E3B2002B14D04FF008000BF0F1FB044620462C4900F02EF907F1080335
S32D0000E9E018463968224600F061FF7B684FF001021A740FE04FF008000BF0DCFB04462046224900F019F907F182
S32D0000EA08080318463968224600F04CFF7B689B684FF00102144618461849FEF78BFC0346002B02D14FF00003ED
S32D0000EA301C46E3B2002B06D07B681B7C83F00103DAB27B681A747B681B7C002B05D07B689B6883F000427B68DA
S32D0000EA589A60386800F080FC02467B68DA604FF000004FF07E5101F5C00103F035FE07F11407BD4690BD00BFD9
S32D0000EA800000803F000000000000B4420000874390B585B000AF786039607B685C68386800F06AFC0346204603
S32D0000EAA81946FEF79FF90346FB60F868FFF7F0FD03464FF00102144618462349FEF758FC0346002B02D14FF0EF
S32D0000EAD000031C46E3B2002B33D041F24C40C1F6FF7005F0B5FC41F24C40C1F6FF70F96805F0A2FF7B689B68A3
S32D0000EAF841F24C40C1F6FF70194605F099FF7B681B7C41F24C40C1F6FF70194605F0A4FFF8680E49FEF770FAB3
S32D0000EB20034618460C49FEF71FFB03461A467B689B68386811461A4600F0B2FA4FF0000301E04FF00103184676
S32D0000EB4807F11407BD4690BD0000803F000040400000A04080B582B000AF786039603B68184601F055FA3B68B2
S32D0000EB7003F10803184601F04FFA07F10807BD4680BD00BF80B483B000AF78604FF00003184607F10C07BD463E
S32D0000EB9880BC704780B582B000AF786039607B681846FFF74FFC7B68054A1A607B683A685A607B68184607F12F
S32D0000EBC00807BD4680BD00BFC0B8010080B483B000AF7860396007F10C07BD4680BC704780B582B000AF78602A
S32D0000EBE839603B6803F110027B685B681046194604F09EFE4FF00103184607F10807BD4680BD00BF80B483B0C4
S32D0000EC1000AF7860396007F10C07BD4680BC704780B483B000AF78604FF00003184607F10C07BD4680BC704726
S32D0000EC3880B582B000AF786039607B681846FFF701FC7B68054A1A607B683A685A607B68184607F10807BD46BD
S32D0000EC6080BD00BFF0B8010080B483B000AF7860396007F10C07BD4680BC70470000000090B585B000AF786058
S32D0000EC8839607B685B68FB604FF001031C46F8685B49FEF759FB0346002B02D14FF000031C46E3B2002B05D052
S32D0000ECB0F8685649FEF79CF80346FB60386800F067FB0346F8681946FEF790F80346BB604FF001031C46B8686A
S32D0000ECD84D49FEF74DFB0346002B02D14FF000031C46E3B2002B05D0B8684649FEF77AF80346BB604FF00103FE
S32D0000ED001C46B8684049FEF723FB0346002B02D14FF000031C46E3B2002B05D0B8683B49FEF766F80346BB60EC
S32D0000ED284FF001031C46B8683849FEF703FB0346002B02D14FF000031C46E3B2002B20D04FF001031C46B86824
S32D0000ED503149FEF711FB0346002B02D14FF000031C46E3B2002B0AD038682C492C4A00F047FA23A1D1E900015A
S32D0000ED7803F0B2FC39E038682849274A00F03CFA33E04FF001031C46B8682549FEF7F0FA0346002B02D14FF060
S32D0000EDA000031C46E3B2002B20D04FF001031C46B8681E49FEF7C2FA0346002B02D14FF000031C46E3B2002BA8
S32D0000EDC80AD038681849144A00F016FA0AA1D1E9000103F081FC08E0386814490E4A00F00BFA02E04FF00103B7
S32D0000EDF001E04FF00003184607F11407BD4690BD9A9999999999B93F000034C30000B44300003443000080BFDE
S32D0000EE18000070C1000000BF0000A041000000C00000803F000070410000003F0000004080B582B000AF78605E
S32D0000EE4039603B68184601F0E7F83B6803F10803184601F0E1F807F10807BD4680BD00BF80B483B000AF78607C
S32D0000EE684FF00003184607F10C07BD4680BC704780B582B000AF78607B681846FFF7E2FA7B68044A1A607B684C
S32D0000EE90184607F10807BD4680BD00BF20B9010080B483B000AF7860396007F10C07BD4680BC704790B583B016
S32D0000EEB800AF78603960386800F072FA034641F24C40C1F6FF70194605F0B2FD386800F067FA03464FF0010263
S32D0000EEE0144618460E49FEF729FA0346002B02D14FF000031C46E3B2002B05D03B684FF0010283F8282004E0D1
S32D0000EF083B684FF0000283F828204FF00103184607F10C07BD4690BD0000803F80B483B000AF7860396007F1FA
S32D0000EF300C07BD4680BC704780B483B000AF78604FF00003184607F10C07BD4680BC704780B582B000AF78602D
S32D0000EF58786809F0A1F90346184607F10807BD4680BD00BF80B582B000AF7860786809F0DFF90346184607F12D
S32D0000EF800807BD4680BD00BF80B582B000AF78607B6818464FF001013F4A00F0E5FF7B6803F1080318464FF009
S32D0000EFA800013B4A00F0DCFF7B6803F1100318464FF0070104F09CFC7B6803F11C0318464FF0000103F0FAFC52
S32D0000EFD07B6803F11D0318464FF0020103F0F2FC7B6803F11E0318464FF00E0104F0CAF87B6803F11F031846EA
S32D0000EFF84FF00C0104F0C2F87B6803F1200318464FF00A0104F0BAF87B6803F1210318464FF0090104F0B2F869
S32D0000F0207B6803F1220318464FF0100103F0A6FB7B6803F1230318464FF0120103F09EFB7B6803F124031846EF
S32D0000F0484FF0140103F096FB7B6803F1250318464FF0160103F08EFB7B6803F1260318464FF0180103F086FB69
S32D0000F0707B6803F1270318464FF01A0103F07EFB7B684FF0010283F828207B68184607F10807BD4680BD00BF1E
S32D0000F098000040410000000090B58BB000AFF860B9607A607B6883F000437B604FF001031C46B8684E49FEF78A
S32D0000F0C03DF90346002B02D14FF000031C46E3B2002B07D0BB6883F00043BB607B6883F000437B60FB6803F1AB
S32D0000F0E81C03184604F036F8FB6803F11D03184604F030F8B868FDF7EBFA02460B461046194639A3D3E9002368
S32D0000F110FDF736FB02460B4610461946FDF7CAFD03467B61FB6803F11C03184604F002F803467B62FB6803F13F
S32D0000F1381D03184603F0FAFF03463B6237E0FB6803F11C03184603F0F1FF03467B62FB6803F11D03184603F09D
S32D0000F160E9FF03463B627B68FB617B68BB617A6A3B6A9A4206DAB8692049FDF741FF0346BB6109E03A6A7B6A9B
S32D0000F1889A4205DAF8691B49FDF736FF0346FB61FA68FB6983F000431046194600F088FFFB6803F108031846A3
S32D0000F1B0B96900F081FF7A6A3B6AD2187B694FEA43039A42ACBF00230123DBB2002BBAD1FB68184600F020FF28
S32D0000F1D8FB6803F10803184600F01AFF07F12C07BD4690BDAFF300800C24EB1AD4DE4040000000000000403FBD
S32D0000F20090B58BB000AFF860B9607A604FF001031C46B8685049FEF791F80346002B02D14FF000031C46E3B20A
S32D0000F228002B07D0BB6883F00043BB607B6883F000437B60FB6803F11C03184603F08AFFFB6803F11D03184629
S32D0000F25003F084FFB868FDF73FFA02460B46104619463BA3D3E90023FDF78AFA02460B4610461946FDF71EFDED
S32D0000F27803467B61FB6803F11C03184603F056FF03467B62FB6803F11D03184603F04EFF03463B623AE0FB6889
S32D0000F2A003F11C03184603F045FF03467B62FB6803F11D03184603F03DFF03463B627B68FB617B68BB617A6A66
S32D0000F2C83B6A9A4206DAB8692249FDF795FE0346BB6109E03A6A7B6A9A4205DAF8691D49FDF78AFE0346FB612A
S32D0000F2F0FA68FB6983F000431046194600F0DCFEFB6803F10802BB6983F000431046194600F0D2FE7A6A3B6ABC
S32D0000F318D2187B694FEA43039A42ACBF00230123DBB2002BB7D1FB68184600F071FEFB6803F10803184600F0DC
S32D0000F3406BFE07F12C07BD4690BD00BFAFF300807CCFEC3075B90040000000000000403F80B483B000AF786098
S32D0000F3687B68DB6A184607F10C07BD4680BC704780B483B000AF78607B681B6B184607F10C07BD4680BC70473A
S32D0000F39080B483B000AF78607B685B6B184607F10C07BD4680BC704780B483B000AF78607B689B6B184607F12C
S32D0000F3B80C07BD4680BC704790B587B000AF786041F2B440C1F6FF7008F0FEFD02467B68DA6241F2B440C1F696
S32D0000F3E0FF7008F005FE02467B681A6341F2B440C1F6FF7008F00CFE02467B685A6341F2B440C1F6FF7008F071
S32D0000F40803FE03461846FDF763F902460B461046194625A3D3E90023FDF7AEF902460B461046194622A3D3E97F
S32D0000F4300023FDF7CFFA02460B4610461946FDF781FC03467B617869FFF782FD03463B617869FFF78BFD034607
S32D0000F458FB607B68DC6A38691749FDF7CDFD034620461946FDF7BEFC03461A467B68DA627B681C6BF86810499C
S32D0000F480FDF7BEFD034620461946FDF7AFFC03461A467B681A637B6803F11E03184603F083FE02467B689A6307
S32D0000F4A807F11C07BD4690BDF1D4C853FB21094000000000008066400000E040AFF3008090B5A3B000AF41F2A4
S32D0000F4D0B440C1F6FF7008F0ABF841F24C40C1F6FF7004F0B5FF00BF4FF008000AF062FE04462046BD49FFF7C0
S32D0000F4F851FB7C604FF010000AF058FE0446204600F084FABC604FF008000AF04FFE0446204600F0FBF9FC6067
S32D0000F5204FF014000AF046FE04462046B049B14AFFF7EAF93C614FF014000AF03BFE04462046AD49AD4AFFF7F9
S32D0000F548B5F87C614FF014000AF030FE04462046A949A64AFFF7AAF8BC614FF004000AF025FE04462046FFF743
S32D0000F57083FCFC614FF014000AF01CFE04462046A0499C4AFFF796F83C624FF014000AF011FE044620469C4998
S32D0000F5989C4AFFF7B5F97C624FF014000AF006FE044620469849914AFFF780F8BC624FF014000AF0FBFD044605
S32D0000F5C0204694498B4AFFF79FF9FC624FF008000AF0F0FD044620468F49FFF72DFB3C634FF008000AF0E6FD82
S32D0000F5E8044620468B49FFF7D5FA7C634FF008000AF0DCFD044620468749FEF7B9FFBC634FF008000AF0D2FD57
S32D0000F610044620468049FFF70FFBFC634FF008000AF0C8FD044620467E49FEF7A5FF3C644FF008000AF0BEFD42
S32D0000F638044620467A49FEF79BFF7C644FF008000AF0B4FD044620466649FFF7A3FABC644FF014000AF0AAFDCA
S32D0000F660044620466849634AFFF74EF9FC644FF014000AF09FFD044620466C495D4AFFF719F83C654FF01400E1
S32D0000F6880AF094FD044620466749584AFFF738F97C654FF014000AF089FD044620465249524AFFF72DF9BC65C8
S32D0000F6B04FF008000AF07EFD04462046FEF7D6FEFC654FF008000AF075FD044620465949FFF7B2FA3C664FF00E
S32D0000F6D808000AF06BFD044620464F49FEF748FF7C664FF008000AF061FD044620465049FFF750FABC664FF0AB
S32D0000F70008000AF057FD044620464C49FEF734FFFC664FF008000AF04DFD044620463349FFF73CFA3C674FF0F1
S32D0000F72814000AF043FD0446204643492F4AFEF7BDFF7C674FF014000AF038FD044620462B492A4AFFF7DCF838
S32D0000F750BC674FF010000AF02DFD04462046FEF759FFFC677B68C7F884304FF00003C7F8803024E0D7F880300B
S32D0000F7784FEA830307F18802D31853F8843CC7F8843041F26410C1F6FF7041F22811C1F6FF71D7F8842000F0F6
S32D0000F7A085F84FF000004FF07E5101F5E00102F097FFD7F8803003F10103C7F88030D7F884301B6803F10C0323
S32D0000F7C81B68D7F884009847034683F00103DBB2002BCBD14FF00003184607F18C07BD4690BD00BF0000344399
S32D0000F7F0000090410000F041000020410000F0C1000030410000A04100002042000048C20000D841000034428A
S32D0000F81800809D430000A042000070410000C841000088C1000088410000B8410000B4420000AA420000E0C039
S32D0000F8400000E04180B582B000AF786039607B68012B10D13A684FF6FF739A420BD141F22810C1F6FF70FFF76A
S32D0000F8688FFB41F26410C1F6FF7000F00FF807F10807BD4680BD00BF80B500AF4FF001004FF6FF71FFF7DAFF76
S32D0000F89080BD00BF80B483B000AF78607B68184607F10C07BD4680BC704700BF80B584B000AFF860B9607A60FC
S32D0000F8B8B868FFF781FD7B681B6803F104031B687868B9689847B868FFF776FD02E0B868FFF772FD7B681B6874
S32D0000F8E01B687868B9689847034683F00103DBB2002BF0D1B868FFF763FD7B681B6803F108031B687868B968FF
S32D0000F908984707F11007BD4680BD00BF80B582B000AF78607B681846FEF794FD7B68054A1A607B68044A5A6098
S32D0000F9307B68184607F10807BD4680BD50B901000000000080B582B000AF786039603868FFF72AFD02467B68A8
S32D0000F9585A6007F10807BD4680BD00BF0000000090B585B000AF7860396019A1D1E9000102F0B2FE7B685C6869
S32D0000F9803868FFF711FD034620461946FDF72EFA03461846FCF7A0FE02460B464FF001010C46104619460EA3C1
S32D0000F9A8D3E90023FDF778F90346002B02D14FF000031C46FC733868FFF7F2FC02467B685A60FB7B184607F15E
S32D0000F9D01407BD4690BD00BF9A9999999999C93F333333333333D33F80B483B000AF7860396007F10C07BD4667
S32D0000F9F880BC704780B483B000AF78604FF00003184607F10C07BD4680BC704780B582B000AF78607B68184630
S32D0000FA20FEF714FD7B68064A1A607B684FF000021A717B68184607F10807BD4680BD00BF88B9010080B582B066
S32D0000FA4800AF7860396041F24C40C1F6FF704BF29C41C0F2010104F0D7FF07F10807BD4680BD00BF80B582B086
S32D0000FA7000AF786039607B681B79002B16D07B6803F108027B6803F10C0341F24C40C1F6FF7011461A4604F069
S32D0000FA98B7FD034683F00103DBB2002B17D04FF0010316E07B6803F108027B6803F10C0341F24C40C1F6FF7048
S32D0000FAC011461A4604F0A0FD0346002B03D07B684FF001021A714FF00003184607F10807BD4680BD80B582B08B
S32D0000FAE800AF7860396041F24C40C1F6FF704BF2B441C0F2010104F087FF07F10807BD4680BD00BF80B483B01E
S32D0000FB1000AF78604FF00003184607F10C07BD4680BC704780B500AF41F65072C1F6FF7241F22813C1F6FF7303
S32D0000FB38D31A194641F22813C1F6FF731A460B4610464FF000011A4609F08FFA80BD00BF0AF010FB00F0B0F9F9
S32D0000FB60FFF7E0FF0AF0E2FA0AF07EFA0AF016FB00F00CF84FF0000041F26811C1F6FF71FFF7A2FC034618460E
S32D0000FB8809F04EFA80B500AF4FF4E043C4F204034FF4E042C4F2040202F5805202F13802126842F4785203F57E
S32D0000FBB0805303F138031A6000F02EF900F094F841F29833C1F6FF734FF058021A6041F29833C1F6FF731B6834
S32D0000FBD84FF47A7202FB03F241F29433C1F6FF731A6041F29433C1F6FF731B681A464FF4E043C4F2040303F520
S32D0000FC00825303F104031B6803F070634FEA136303F10103B2FBF3F31A4641F29C33C1F6FF731A604FF4E04318
S32D0000FC28C4F204034FF4E042C4F2040202F5805202F13C02126842F0225203F5805303F13C031A604FF4E043D8
S32D0000FC50C4F204034FF4E042C4F2040202F5805202F13002126842F0006203F5805303F130031A604FF450436A
S32D0000FC78C4F203034FF480721A614FF0640002F0A3FB4FF45043C4F203034FF45042C4F20302526922F01002BE
S32D0000FCA05A614FF45043C4F203034FF000021A604FF45043C4F203034FF010025A6103F0A5FB03F04DFC41F28E
S32D0000FCC89030C1F6FF7002F003FC41F24C40C1F6FF7004F0F1F941F2883002F0E1FC80BD80B400AF4FF4804394
S32D0000FCF0C4F206034FF000025A704FF48043C4F206034FF098021A704FF48043C4F206039B79DBB203F0100388
S32D0000FD18002B0CBF00230123DBB2002BF0D14FF48043C4F206039B79DBB203F00C034FEA9303022B0CBF0023B5
S32D0000FD400123DBB2002BEED14FF48043C4F206034FF018021A714FF48043C4F206034FF000025A714FF4E0431A
S32D0000FD68C4F2040303F5825303F104034FF00002C0F213121A604FF48043C4F206034FF054025A7100BF4FF42F
S32D0000FD908043C4F206039B79DBB203F02003002B14BF00230123DBB2002BF0D100BF4FF48043C4F206039B79B6
S32D0000FDB8DBB203F04003002B14BF00230123DBB2002BF0D14FF48043C4F206034FF48042C4F206021278D2B206
S32D0000FDE002F03F02D2B21A704FF48043C4F206039B79DBB203F00C034FEA9303032B0CBF00230123DBB2002B85
S32D0000FE08EED14FF000031846BD4680BC704700BF80B400AF4FF44043C4F204034FF480725A634FF2C003C4F2A6
S32D0000FE300F034FF2C002C4F20F02526942F400525A614FF2C003C4F20F034FF2C002C4F20F02126842F4005232
S32D0000FE581A604FF44043C4F2040340F20312C0F20A021A634FF46143CEF200034FF46142CEF20002D2F8882138
S32D0000FE8042F08062C3F888214FF46143CEF200034FF46142CEF20002926842F080629A60BD4680BC704700BFCD
S32D0000FEA880B483B000AF7860FEE700BF80B400AF00BEBD4680BC704780B400AF4FF0E0224CF20003C0F20003E9
S32D0000FED0C2F8083D4FF40053C4F205034CF22052DA814FF40053C4F205034DF62812DA814FF40053C4F2050326
S32D0000FEF84FF0D2021A80BD4680BC704780B500AF4FF44043C4F20403D3F8A03003F48053002B0CBF0023012330
S32D0000FF20DBB2002B1FD04FF44043C4F204034FF44042C4F20402D2F8A02022F48052C3F8A02041F2D440C1F61D
S32D0000FF48FF7008F06BF94FF2C003C4F20F034FF2C002C4F20F02126822F400521A6080BD90B585B000AFF86010
S32D0000FF700B467A60FB72FB68FA7A1A71FB684FF000025A714FF001031C4678682049FDF7F3F90346002B02D1E5
S32D0000FF984FF000031C46E3B2002B02D01A4B7B6011E04FF001031C4678681849FDF7CCF90346002B02D14FF0AF
S32D0000FFC000031C46E3B2002B01D0124B7B607868FCF782FB02460B46104619460AA3D3E90023FCF7CDFB0246B8
S32D0000FFE80B4610461946FCF7A9FE0246FB681A60FB68184607F11407BD4690BDAFF30080ABAAAAAAAAAA204083
S32D00010010000040410000803F80B582B000AF78607B685B79002B10D07B684FF000025A717B681B7941F2903078
S32D00010038C1F6FF7019464FF000024FF01E0302F091FA07F10807BD4680BD00BF80B584B000AF786039603B68C4
S32D000100607F2B03DD4FF07F03FB7309E03B6813F1800F03DA4FF08003FB7301E03B68FB737B685B79FA7B9A4292
S32D000100880FD07B68FA7B5A717B681A79FB7B41F29030C1F6FF7011461A464FF01E0302F061FA07F11007BD46CC
S32D000100B080BD00BF00000000B0B584B000AF786039604FF001031C4638684D49FDF736F90346002B02D14FF0E8
S32D000100D800031C46E3B2002B02D0474B3B6011E04FF001031C4638684449FDF741F90346002B02D14FF000035B
S32D000101001C46E3B2002B01D03E4B3B603868FCF7E3FA04460D467B681B681846FCF7DCFA02460B4610461946D1
S32D000101284FF000024FF0804303F5B203FCF74EFC02460B4620462946FCF71EFB02460B4610461946FCF7FAFDC9
S32D0001015003463B604FF001031C4638682A49FDF701F90346002B02D14FF000031C46E3B2002B14D03868FCF7D4
S32D00010178AFFA02460B46104619461DA3D3E90023FCF7FAFA02460B4610461946FCF78EFD0346FB6022E03868C9
S32D000101A0FCF79AFA02460B46104619464FF000024FF0804303F5C003FCF7E2FA02460B46104619464FF00002FF
S32D000101C84FF0804303F5B203FCF700FC02460B4610461946FCF76AFD0346FB607868F968FFF734FF07F11007A5
S32D000101F0BD46B0BDAFF3008052B81E85EB51F43F0000C8C20000C84200000000AFF3008080B485B000AF02461C
S32D000102180B46FA71BB71BB79002B07D141F26C13C1F6FF734FF000021A7006E041F26C13C1F6FF734FF00102EF
S32D000102401A704FF03803FB7341F26C13C1F6FF731A78FB7B1343FB734FF4C043C4F206034FF4C042C4F206026E
S32D000102689278D2B242F01002D2B29A704FF4C043C4F206034FF4C042C4F206029278D2B242F02002D2B29A708F
S32D000102904FF4C043C4F20603FA7B1A7107F11407BD4680BC704700BF80B483B000AF4FF001037B6004E000BF9B
S32D000102B87B6803F101037B607B68312BCCBF00230123DBB2002BF2D107F10C07BD4680BC704700BF80B582B0AE
S32D000102E000AF02460B46FA71BB7141F26D13C1F6FF731B7818464FF00001FFF789FF4FF4C043C4F20603DB782D
S32D00010308DBB203F00203002B14BF00230123DBB2002BF0D14FF4C043C4F206034FF4C042C4F20602D278D2B2AD
S32D0001033042F00202D2B2DA704FF4C043C4F20603FA791A714FF4C043C4F20603DB78DBB203F00203002B14BFBC
S32D0001035800230123DBB2002BF0D14FF4C043C4F206034FF4C042C4F20602D278D2B242F00202D2B2DA704FF499
S32D00010380C043C4F20603BA791A714FF4C043C4F20603DB78DBB203F00203002B14BF00230123DBB2002BF0D133
S32D000103A84FF4C043C4F206034FF4C042C4F20602D278D2B242F00202D2B2DA704FF4C043C4F206034FF4C04202
S32D000103D0C4F206029278D2B222F02002D2B29A704FF4C043C4F206034FF4C042C4F206029278D2B222F0100236
S32D000103F8D2B29A70FFF754FF07F10807BD4680BD80B582B000AF0346FB71FB79184600F06BF807F10807BD46BE
S32D0001042080BD00BF80B582B000AF02460B46FA71BB7100F039F8FB794FEA4303DBB21846FFF7E2FFBB79184603
S32D00010448FFF7DEFF00F03EF807F10807BD4680BD80B500AF4FF0FF0000F046F80346184680BD00BF80B584B0E9
S32D0001047000AF0346FB7100F017F8FB794FEA4303DBB243F00103DBB2DBB21846FFF7BCFFFFF7E2FF0346FB738C
S32D0001049800F018F8FB7B184607F11007BD4680BD80B400AF4FF24003C4F20F034FF24002C4F20F02926842F469
S32D000104C080129A60BD4680BC704700BF80B400AF4FF24003C4F20F034FF24002C4F20F02526842F480125A6017
S32D000104E8BD4680BC704700BF80B485B000AF0346FB714FF00003BB7303E0FB7B03F10103FB734FF44043C4F2B8
S32D000105100A03DB6A4FF00003002BF2D14FF44043C4F20A034FF44042C4F20A02D26A42F00042DA624FF4404378
S32D00010538C4F20A03FA795A6300BF4FF44043C4F20A03DB6A03F40033002B14BF00230123DBB2002BF1D14FF4E8
S32D000105604043C4F20A039B6BBB73BB7B184607F11407BD4680BC704780B582B000AF4FF4E043C4F204034FF4D9
S32D00010588E042C4F2040202F5805202F13002126842F4805203F5805303F130031A604FF42043C4F204034FF4E4
S32D000105B080721A654FF24003C4F20F034FF24002C4F20F02526942F480125A61FFF77EFF4FF42043C4F2040301
S32D000105D84FF400725A654FF42043C4F204034FF400729A654FF42043C4F204034FF40072DA654FF44043C4F296
S32D000106000A034FF44062C8F200021A604FF44043C4F20A034FF00502C3F60062DA604FF000037B6007E04FF03C
S32D00010628FF00FFF7EDFE7B6803F101037B607B68092BCCBF00230123DBB2002BEFD104A1D1E9000102F048F81A
S32D0001065007F10807BD4680BD9A9999999999B93F90B486B000AFF860B9607A60FA684FF42043C4F206039A428E
S32D0001067814D14FF4E043C4F204034FF4E042C4F2040202F5805202F13402126842F4806203F5805303F13403B0
S32D000106A01A6083E0FA684FF43043C4F206039A4214D14FF4E043C4F204034FF4E042C4F2040202F5805202F1B6
S32D000106C83402126842F4006203F5805303F134031A6067E0FA684FF44043C4F206039A4214D14FF4E043C4F240
S32D000106F004034FF4E042C4F2040202F5805202F13402126842F4805203F5805303F134031A604BE0FA684FF4FF
S32D000107185043C4F206039A4214D14FF4E043C4F204034FF4E042C4F2040202F5805202F13402126842F4005267
S32D0001074003F5805303F134031A602FE0FA684FF42043C4F20E039A4214D14FF4E043C4F204034FF4E042C4F23D
S32D00010768040202F5805202F12802126842F4806203F5805303F128031A6013E04FF4E043C4F204034FF4E04205
S32D00010790C4F2040202F5805202F12802126842F4006203F5805303F128031A60FB68DB78DBB223F00C03DAB231
S32D000107B8FB68DA70FB684FF000029A70BB684FF47A7202FB03F27B684FEA031392FBF3F39CB2FB681B78DBB2FD
S32D000107E023F01F03FB75234603F4F8534FEA2323DBB203F01F03DAB2FB7D1343DAB2FB681A70E2B2FB685A70E5
S32D00010808BB684FF4FA4202FB03F27B684FEA031392FBF3F39AB2234619464FEAC121CB1A4FEA43139BB2D318AD
S32D000108309CB2FB689B7ADBB223F01F03FB75E3B203F01F03DAB2FB7D1343DAB2FB689A72FB68DB78DBB243F02C
S32D000108580C03DAB2FB68DA7007F11807BD4690BC704700BF80B483B000AF786000BF7B681B79DBB203F0200386
S32D00010880002B14BF00230123DBB2002BF3D17B68DB79DBB2184607F10C07BD4680BC704780B483B000AF786077
S32D000108A80B46FB7000BF7B681B79DBB2DBB26FEA0303DBB24FEAD313DBB2002BF3D17B68FA78DA7107F10C07E3
S32D000108D0BD4680BC704700BF80B487B000AFF860B9607A60FB687B6107E0BB68DAB27B691A707B6903F10103C0
S32D000108F87B617B68002B0CBF00230123DBB27A6802F1FF327A60002BEBD107F11C07BD4680BC704780B584B007
S32D0001092000AF786039607B681B6BFB60FA683B689A4264D07B681B79002B43D07B685A787B6803F134031046E1
S32D000109481946FA684FF0010301F0ACFB0346002B0CBF00230123DBB2002B02D04FF001034BE07B684FF0000242
S32D000109701A717B685A6A7B681B6AD218FB689A4220D97B68DB78FB7214E07B681B6AFA68D318FB607B685A7840
S32D000109987B6803F1340310461946FA684FF0010301F080FBFB7A03F1FF33FB72FB7A012B94BF00230123DBB28C
S32D000109C0002BE2D13B68002B19D07B685A787B6803F13403104619463A684FF0010301F057FA0346002B0CBF95
S32D000109E800230123DBB2002B02D04FF0010304E07B683A681A634FF00003184607F11007BD4680BD80B584B08E
S32D00010A1000AF786078684FF00001FFF77FFF0346FB73FB7B002B40F0AE807B681B78032B40F095807B685B7946
S32D00010A38002B00F090807B684FF000021A637B6803F1340318464FF000014FF40072FFF73FFF7B684FF05502B5
S32D00010A6083F832227B684FF0AA0283F833227B684FF0520283F834207B684FF0520283F835207B684FF06102EA
S32D00010A8883F836207B684FF0410283F837207B684FF0720283F818227B684FF0720283F819227B684FF041023B
S32D00010AB083F81A227B684FF0610283F81B227B681B69DAB27B6883F81C227B681B699BB24FEA2323DAB27B68F2
S32D00010AD883F81D227B681B694FEA1343DAB27B6883F81E227B681B694FEA1363DAB27B6883F81F227B68DB68AE
S32D00010B00DAB27B6883F820227B68DB689BB24FEA2323DAB27B6883F821227B68DB684FEA1343DAB27B6883F8DC
S32D00010B2822227B68DB684FEA1363DAB27B6883F823227B6859787B6803F134027B685B69084611461A464FF0AA
S32D00010B50010301F0ABFA7B684FF000025A717B685B7818464FF000014FF0000201F084FB0346002B0CBF002386
S32D00010B780123DBB2002B02D04FF00103FB73FB7B184607F11007BD4680BD00BF80B582B000AF78600B467B80D3
S32D00010BA07B68002B08D07B681B78002B04D07B68DB887A889A4202D04FF009030FE07B685B78184601F0ECFBAF
S32D00010BC8034603F00103DBB2002B02D04FF0030301E04FF00003184607F10807BD4680BD80B586B000AF786035
S32D00010BF07B681A687B689B8810461946FFF7CAFF0346FB75FB7D002B40F0C8807B689B7903F02003002B00F0FB
S32D00010C18C1807B689B7903F04003002B20D07B681B6859787B6803F128027B689B69084611461A464FF00103BD
S32D00010C4001F034FA0346002B0CBF00230123DBB2002B02D04FF00103A1E07B689B7923F04003DAB27B689A71CB
S32D00010C687B681A687B68DB6910461946FFF752FE0346FB75FB7D002B40F08C807B681B6A3B613B6903F10B0394
S32D00010C903A6902F10B02127842F02002D2B21A703B6903F11C037A68D268D2B21A703B6903F11D037A68D268F1
S32D00010CB892B24FEA2222D2B21A703B6903F11E037A68D2684FEA1242D2B21A703B6903F11F037A68D2684FEABF
S32D00010CE01262D2B21A703B6903F11A037A681269D2B21A703B6903F11B037A68126992B24FEA2222D2B21A7061
S32D00010D083B6903F114037A6812694FEA1242D2B21A703B6903F115037A6812694FEA124292B24FEA2222D2B236
S32D00010D301A704FF00003FB603B6903F11603FA68D2B21A703B6903F11703FA6892B24FEA2222D2B21A703B69C5
S32D00010D5803F11803FA684FEA1242D2B21A703B6903F11903FA684FEA1262D2B21A707B689B7923F02003DAB2D6
S32D00010D807B689A717B681B684FF001021A717B681B681846FFF73AFE0346FB75FB7D184607F11807BD4680BD4B
S32D00010DA880B584B000AF78607868FFF719FF0346FB73FB7B002B03D17B684FF000021A60FB7B184607F1100791
S32D00010DD0BD4680BD80B588B000AF786039604FF080033B614FF00F03FB604FF0FF337B614FF00203FB612AE026
S32D00010DF84FF00103BB611AE0FB69BA6902FB03F33A6802FB03F27B68D31ABB60BB68002B09DBBA687B699A4266
S32D00010E2005D2BB687B61FB693B61BB69FB60BB6903F10103BB61BB69102B8CBF00230123DBB2002BDCD1FB695C
S32D00010E484FEA4303FB61FB69B3F5807F8CBF00230123DBB2002BCBD14FF48053C4F20B034FF48052C4F20B02FD
S32D00010E70D26A22F00802DA624FF48053C4F20B03DB6A1A464FF00F03CFF6F0731340BB614FF48053C4F20B037E
S32D00010E983A694FEA52024FEA02224FEA02424FEA1242F96801F1FF314FEA0111C9B21143BA690A4342F46022CF
S32D00010EC0DA6203E04FF00A0001F0EEFB4FF48053C4F20B035B6A03F00803002B14BF00230123DBB2002BEDD169
S32D00010EE84FF48053C4F20B034FF48052C4F20B02D26A42F00802DA624FF48053C4F20B034FF48052C4F20B02C3
S32D00010F10126B42F480121A6307F12007BD4680BD80B582B000AF786039607B684FF000021A604FF48053C4F2A0
S32D00010F380B034FF40042C0F20012DA624FF48053C4F20B03DB6A03F08073002B0CBF00230123DBB2002BF1D13B
S32D00010F604FF48053C4F20B034FF00002C3F8C0204FF48053C4F20B034FF481325A604FF48053C4F20B034FF009
S32D00010F8828029A624FF48053C4F20B034FF001125A643B689B6818464CF66041C0F20501FFF714FF4FF480536C
S32D00010FB0C4F20B035B6A03F00303002B0CBF00230123DBB2002BF1D14FF45043C4F2040340F243421A604FF4D2
S32D00010FD85043C4F2040340F243425A604FF45043C4F204034FF488629A604FF45043C4F2040340F24342DA60EB
S32D000110004FF45043C4F2040340F243421A614FF45043C4F2040340F243425A614FF4E043C4F204034FF4E0426F
S32D00011028C4F2040202F5805202F13002126842F4003203F5805303F130031A604FF48053C4F20B034FF6FF7211
S32D000110501A634FF48053C4F20B034FF0B302C0F27F025A634FF48053C4F20B034FF48052C4F20B02D26A42F016
S32D000110780062DA624FF48053C4F20B03DB6A03F00063002B0CBF00230123DBB2002BF1D14FF48053C4F20B03A5
S32D000110A05B6A03F48033002B0CBF00230123DBB2002B03D07B684FF001021A604FF48053C4F20B034FF480525C
S32D000110C8C4F20B02126B42F080021A634FF00003184607F10807BD4680BD00BF80B400AF4FF48053C4F20B0325
S32D000110F05B6A1A4640F207331340002B0CBF00230123DBB21846BD4680BC704780B485B000AF78604FF48053C9
S32D00011118C4F20B031B6B1A467B681340FB60FB68002B14BF00230123DBB2002BEED1FB68184607F11407BD4677
S32D0001114080BC704780B584B000AF78607B681B7803F03F024BF6C013C0F2010353F82230FB60FB68002B06D1CC
S32D000111687B681B78002B02D04FF0010330E14FF48053C4F20B034FF48052C4F20B02126B42F080021A634FF4EE
S32D000111908053C4F20B035B6A03F00103DBB2002BF5D14FF48053C4F20B037A6852689A60FB6823F44003FB60D7
S32D000111B87B685B784FEA835303F44003FA681343FB607B685B78022B03D1FB6843F40013FB607B685B78042B52
S32D000111E016D1FB6803F44033B3F5003F08D1FB6823F44033FB60FB6843F44033FB6007E0FB6823F44033FB608D
S32D00011208FB6843F40033FB604FF48053C4F20B034FF48052C4F20B0252684FEA02424FEA12425A607B68DB6839
S32D00011230002B32D0FB6803F44033B3F5403F03D0FB6843F40013FB607B681B7A002B03D0FB6843F01003FB6019
S32D000112587B68DB68012B03D9FB6843F02003FB607B68DB68B3F1FF3F13D04FF48053C4F20B034FF48052C4F295
S32D000112800B02526811467A68D2684FEA02420A435A60FB6843F00203FB604FF48053C4F20B034FF000021A60F6
S32D000112A84FF48053C4F20B03FA68DA604FF00100C0F20E00FFF726FF0346012B0CBF00230123DBB2002B10D067
S32D000112D04FF48053C4F20B034FF48052C4F20B02126B42F4702242F001021A634FF0010372E04FF48053C4F2E5
S32D000112F80B031B6B03F08003002B0CBF00230123DBB2002B0ED04FF48053C4F20B034FF48052C4F20B02126BBB
S32D0001132042F001121A634FF0010355E04FF48053C4F20B031B6B03F48033002B0CBF00230123DBB2002B0ED087
S32D000113484FF48053C4F20B034FF48052C4F20B02126B42F001121A634FF0FF3338E0FB6803F44033002B25D00F
S32D000113704FF48053C4F20B031B691A467B681A61FB6803F44033B3F5803F17D14FF48053C4F20B035B691A4618
S32D000113987B685A614FF48053C4F20B039B691A467B689A614FF48053C4F20B03DB691A467B68DA614FF48053BA
S32D000113C0C4F20B034FF48052C4F20B02126B42F001021A634FF00003184607F11007BD4680BD00BF80B592B00E
S32D000113E800AF786039604FF00003FB633B68BB6341F28413C1F6FF737B637B6B002B03D140F6012300F0A0BCF9
S32D0001141041F28833C1F6FF733B633B6B002B03D140F60B2300F094BC3B6B1B68FB62FB6A002B03D140F60B2361
S32D0001143800F08ABC7B6841F20432934200F0388241F2043293421BD841F20132934238D041F20132934207D8F6
S32D00011460032B00F03D84092B00F0298400F066BC41F20232934200F0128241F20332934200F0BE8300F05ABC67
S32D0001148841F20732934200F04B8341F2073293420BD841F20532934200F0348241F20632934200F0108300F07A
S32D000114B045BC41F20832934200F0B68241F20932934200F0C48200F039BC786B4BF6B411C0F20101FFF724FD90
S32D000114D80346FB63FB6B002B40F030844FF0000387F847304FF0000387F82B304FF0000387F82A304FF0000318
S32D0001150087F829304FF0000387F846304FF0000387F828304FF000033B724FF000037B724FF00003FB604FF09A
S32D0001152800033B744FF000037B6107F108031846FFF704FE0346002B0CBF00230123DBB2002B03D04FF0010317
S32D00011550FB63FCE340F24C4001F0A6F84FF008033B724FF000037B724FF4D573FB604FF000033B744FF00003A3
S32D000115787B6107F108031846FFF7E0FD03463B643B6C002B0BD1BA69FB689A4203D04FF00103FB63D7E34FF0CF
S32D000115A0010387F846304FF0010387F8283097F82830002B00F0C6804FF037033B724FF000037B724FF000032A
S32D000115C8FB604FF000033B744FF000037B6107F108031846FFF7B2FD03463B643B6C002B03D04FF00103FB6356
S32D000115F0ADE34FF069033B724FF000037B724FF00003FB604FF000033B744FF000037B6107F108031846FFF7B2
S32D0001161895FD0346002B0CBF00230123DBB2002B03D04FF00103FB638DE3BB6903F44013002B00F083804FF024
S32D0001164000033B644FF00A0001F02EF83B6C03F101033B644FF037033B724FF000037B724FF00003FB604FF00A
S32D0001166800033B744FF000037B6107F108031846FFF764FD0346002B0CBF00230123DBB2002B03D04FF0010377
S32D00011690FB6336E04FF069033B724FF000037B7297F84630002B05D04FF00003C4F23003FB6002E04FF440132D
S32D000116B8FB604FF000033B744FF000037B6107F108031846FFF73AFD0346002B0CBF00230123DBB2002B03D0FA
S32D000116E04FF00103FB630CE0BB69002B05DB3B6C632B02D84FF0010301E04FF00003002BA0D1FB6B002B40F04D
S32D000117081F833B6C632B04D94FF0000387F8463014E04FF0010387F8473097F84630002B0CD04FF0000387F8CD
S32D000117304630BB6903F08043002B03D04FF0010387F8463097F82A30002B03D07B6B4FF007021A6097F829308D
S32D00011758002B03D07B6B4FF008021A6097F82B30002B03D07B6B4FF004021A6097F84730002B0BD07B6B4FF0FD
S32D0001178002021A6097F84630002B03D07B6B4FF003021A6097F82B30002B0FD097F84730002B0BD07B6B4FF0F0
S32D000117A805021A6097F84630002B03D07B6B4FF006021A604FF45043C4F204034FF000021A604FF45043C4F20D
S32D000117D004034FF000025A604FF45043C4F204034FF000029A604FF45043C4F204034FF00002DA604FF4504336
S32D000117F8C4F204034FF000021A614FF45043C4F204034FF000025A61FB6A9A68FB6A5B6810461946FFF7DAFAAC
S32D000118204FF45043C4F2040340F243421A604FF45043C4F2040340F243425A604FF45043C4F204034FF4886211
S32D000118489A604FF45043C4F2040340F24342DA604FF45043C4F2040340F243421A614FF45043C4F2040340F269
S32D0001187043425A614FF4E043C4F204034FF4E042C4F2040202F5805202F13002126842F4003203F5805303F136
S32D0001189830031A6057E2B86BFFF750FC03463B643B6C002B00F04E824FF00203FB6349E2BB6B002B03D14FF02B
S32D000118C00C03FB6343E24FF48053C4F20B03DB6A03F47F434FEA13234FEA43033B644FF48053C4F20B03DB6AE3
S32D000118E803F0F0034FEA131303F101023B6C02FB03F33B64FB6A9A683B6CB2FBF3F2BB6B1A6020E2BB6B002BC9
S32D0001191003D14FF00C03FB6319E2BB6B1B68002B03D14FF00C03FB6311E2FFF7DBFB0346002B14BF002301238C
S32D00011938DBB2002B70D04FF45043C4F204034FF000021A604FF45043C4F204034FF000025A604FF45043C4F220
S32D0001196004034FF000029A604FF45043C4F204034FF00002DA604FF45043C4F204034FF000021A614FF45043E3
S32D00011988C4F204034FF000025A61FB6A9A68BB6B1B6810461946FFF719FA4FF45043C4F2040340F243421A60E5
S32D000119B04FF45043C4F2040340F243425A604FF45043C4F204034FF488629A604FF45043C4F2040340F2434200
S32D000119D8DA604FF45043C4F2040340F243421A614FF45043C4F2040340F243425A614FF4E043C4F204034FF476
S32D00011A00E042C4F2040202F5805202F13002126842F4003203F5805303F130031A6096E140F60A23FB6392E1F2
S32D00011A28BB6B002B03D14FF00C03FB638BE14FF48053C4F20B035B684FEAC3434FEAD343BA6B13607FE1BB6B09
S32D00011A50002B03D14FF00C03FB6378E1FFF742FB0346002B14BF00230123DBB2002B2AD0BB6B1A6840F6FF73A0
S32D00011A789A4203D94FF00C03FB6364E14FF48053C4F20B034FF48052C4F20B02526822F4FE5222F03F025A60B7
S32D00011AA04FF48053C4F20B034FF48052C4F20B0252681146BA6B12684FEAC2424FEAD2420A435A6043E140F6CA
S32D00011AC80A23FB633FE1BB6B002B03D14FF00C03FB6338E14FF48053C4F20B039B6A03F006034FEA53033B6451
S32D00011AF03B6C002B04D1BB6B4FF000021A6026E13B6C012B04D1BB6B4FF001021A601EE13B6C102B04D1BB6BD2
S32D00011B184FF002021A6016E14FF00503FB6312E1BB6B002B03D14FF00C03FB630BE1FFF7D5FA0346002B14BF89
S32D00011B4000230123DBB2002B56D0BB6B1B68002B16D14FF48053C4F20B034FF48052C4F20B02926A22F00602CE
S32D00011B689A624FF48053C4F20B034FF48052C4F20B02926A9A62E6E0BB6B1B68012B18D14FF48053C4F20B034A
S32D00011B904FF48052C4F20B02926A22F006029A624FF48053C4F20B034FF48052C4F20B02926A42F002029A625C
S32D00011BB8C9E0BB6B1B68022B16D14FF48053C4F20B034FF48052C4F20B02926A22F006029A624FF48053C4F208
S32D00011BE00B034FF48052C4F20B02926A9A62AEE04FF00503FB63AAE040F60A23FB63A6E0BB6B002B03D14FF090
S32D00011C080C03FB639FE04FF48053C4F20B034FF48052C4F20B02D26A42F00062DA624FF48053C4F20B03DB6AE4
S32D00011C3003F00063002B0CBF00230123DBB2002BF1D14FF48053C4F20B031B6B03F08003002B0CBF0023012365
S32D00011C58DBB2002B0FD04FF48053C4F20B034FF48052C4F20B02126B42F080021A637B6B4FF000021A604FF482
S32D00011C808053C4F20B035B6A03F48033002B0CBF00230123DBB2002B08D07B6B1B68002B08D17B6B4FF00102CD
S32D00011CA81A6003E07B6B4FF000021A607B6B1A68BB6B1A6047E0BB6B4FF01C021A60BB6B03F104034FF004027D
S32D00011CD01A60BB6B03F108034FF41E721A6036E04FF00200FFF712FA4FF48053C4F20B031B6B03F4E003002B3B
S32D00011CF80CBF00230123DBB2002B0ED04FF48053C4F20B034FF48052C4F20B02126B42F4E0021A634FF004030B
S32D00011D20FB634FF48053C4F20B034FF48052C4F20B02126B42F032021A6308E040F60923FB6304E000BF02E0F7
S32D00011D4800BF00E000BFFB6B184607F14807BD4680BD00BF80B489B000AF786039607B687B6141F28413C1F637
S32D00011D70FF733B613B69002B02D14FF0000381E03B691B68022B0BD03B691B68032B07D03B691B68072B03D06A
S32D00011D983B691B68082B0DD14FF48053C4F20B035B6A03F00403002B0CBF00230123DBB2002BF1D13B68FB6195
S32D00011DC056E0FB69B3F5007F28BF4FF40073FB60FB6803F103034FEA9303BB613CE04FF48053C4F20B031B6B77
S32D00011DE803F4E003002B0CBF00230123DBB2002B10D04FF48053C4F20B034FF48052C4F20B02126B42F4E002D6
S32D00011E1042F020021A634FF0000333E04FF48053C4F20B035B6A03F40063002B14BF00230123DBB2002BF1D1C5
S32D00011E384FF48053C4F20B031B6A1A467B691A607B6903F104037B61BB6903F1FF33BB61BB69002B0CBF002300
S32D00011E600123DBB2002BBAD1FA69FB68D31AFB61FB69002B0CBF00230123DBB2002BA0D14FF00103184607F17A
S32D00011E882407BD4680BC704780B58EB000AFB9607A600246FA73BB7341F27013C1F6FF737B63FB7B002B02D1E1
S32D00011EB0BB7B002B02D14FF0040381E040F20043C1F6FF731B78DBB203F00103DBB2002B02D04FF0030373E051
S32D00011ED8BB68002B02D14FF000036DE07B6B1B7B002B03D17B684FEA43237B60BB7B012B2CD14FF011033B75F1
S32D00011F004FF000037B757B68BB614FF001033B77BB7B3B6207F1140341F202301946FFF761FA0346002B14BF4E
S32D00011F2800230123DBB2002B3ED0B8684FF40071FFF710FF0346002B0CBF00230123DBB2002B31D04FF0000323
S32D00011F50BB732DE04FF012033B754FF000037B757B68BB614FF001033B77BB7B3B6207F1140341F20230194657
S32D00011F78FFF734FA0346002B14BF00230123DBB2002B11D0BB7B4FEA4323B8681946FFF7E1FE0346002B0CBF87
S32D00011FA000230123DBB2002B02D04FF00003BB73BB7B002B02D04FF0010301E04FF00003184607F13807BD46A0
S32D00011FC880BD00BF80B487B000AF786039607B68FB603B687B6155E07B69B3F5007F28BF4FF400733B617A694A
S32D00011FF03B69D31A7B613B6903F103034FEA93033B613BE04FF48053C4F20B031B6B03F4E003002B0CBF0023DE
S32D000120180123DBB2002B10D04FF48053C4F20B034FF48052C4F20B02126B42F4E00242F010021A634FF0FF3364
S32D000120402EE04FF48053C4F20B035B6A03F48063002B14BF00230123DBB2002BF1D14FF48053C4F20B03FA68EF
S32D0001206812681A62FB6803F10403FB603B6903F1FF333B613B69002B0CBF00230123DBB2002BBBD17B69002B00
S32D000120900CBF00230123DBB2002BA1D14FF00103184607F11C07BD4680BC704780B58EB000AFB9607A600246D6
S32D000120B8FA73BB7341F27013C1F6FF737B63FB7B002B02D1BB7B002B02D14FF00403CAE040F20043C1F6FF736B
S32D000120E01B78DBB203F00103DBB2002B02D04FF00303BCE040F20043C1F6FF731B78DBB203F00403002B0CBFA1
S32D0001210800230123DBB2002B02D04FF00203AAE0BB68002B02D14FF00003A4E07B6B1B7B002B03D17B684FEA8B
S32D0001213043237B60BB7B012B2CD14FF018033B754FF000037B757B68BB614FF000033B77BB7B3B6207F11403CF
S32D0001215841F202301946FFF741F90346002B14BF00230123DBB2002B3ED0B8684FF40071FFF728FF0346002BAB
S32D000121800CBF00230123DBB2002B31D04FF00003BB732DE04FF019033B754FF000037B757B68BB614FF000036A
S32D000121A83B77BB7B3B6207F1140341F202301946FFF714F90346002B14BF00230123DBB2002B11D0BB7B4FEA17
S32D000121D04323B8681946FFF7F9FE0346002B0CBF00230123DBB2002B02D04FF00003BB734FF00D033B754FF050
S32D000121F800037B757B6B1B69BB614FF000033B774FF000033B6207F1140341F202301946FFF7E4F80346002B53
S32D000122200CBF00230123DBB2002B02D04FF001031DE07A6A48F20803CFF6D9731340002B02D04FF0010312E0F4
S32D000122487B6A03F4F853B3F5106F0CBF00230123DBB2002BC8D1BB7B002B02D04FF0010301E04FF000031846BF
S32D0001227007F13807BD4680BD80B58CB000AF0B463A600246FA71BB7141F27013C1F6FF73BB62FB79002B02D071
S32D000122984FF004037AE04FF0010387F82F3040F20043C1F6FF731B78DBB203F00103DBB2002B02D04FF00303D2
S32D000122C068E0BB79032B5FD801A252F823F000BFE1220100EB220100FD2201000F2301004FF0000387F82F30CA
S32D000122E852E0BB6A9A683B681A604FF0000387F82F3049E03B684FF400721A804FF0000387F82F3040E04FF097
S32D0001231009033B724FF000037B72BB6A1B69FB604FF000033B744FF000037B6107F1080341F202301946FFF7E6
S32D0001233855F80346002B0CBF00230123DBB2002B02D04FF0010321E07B6A03F44003002B11D13B6A4FEA9343F5
S32D0001236003F07F0303F101027B6A4FEA132303F0030303F1FF3302FA03F23B681A604FF0000387F82F3003E05E
S32D000123884FF0040387F82F3097F82F30184607F13007BD4680BD00BF80B483B000AF0346FB71FB79002B02D04C
S32D000123B04FF0010305E040F20043C1F6FF731B78DBB2184607F10C07BD4680BC704700BF80B483B000AF78600C
S32D000123D84FF4E043C4F204034FF4E042C4F2040202F5805202F13802126842F0010203F5805303F138031A6079
S32D000124004FF00003C4F204037A689A604FF00003C4F204034FF005025A604FF00003C4F204034FF00002C4F2DD
S32D000124280402126842F001021A6000BF4FF00003C4F204031B6803F08003002B14BF00230123DBB2002BF1D1E0
S32D000124504FF00003C4F204034FF00002C4F20402126822F001021A6007F10C07BD4680BC704700BF80B582B031
S32D0001247800AF786039607B68012B0AD13A684FF6FF739A4205D141F29030C1F6FF7000F00FF807F10807BD4606
S32D000124A080BD00BF80B500AF4FF001004FF6FF71FFF7E0FF80BD00BF80B483B000AF78607B684FF000021A70CB
S32D000124C87B68184607F10C07BD4680BC704700BF80B582B000AF78607B681B7883F00103DBB2002B36D04FF408
S32D000124F0E043C4F2040303F5805303F128034FF400621A604FF45043C4F204034FF440721A624FF45043C4F244
S32D0001251804034FF440725A6241F29433C1F6FF731B684FEAD372D3184FEA63034FF43040C4F20E0019464FF415
S32D000125406142FEF78DF84FF0640000F0ADF87B684FF001021A704FF0010301E04FF00003184607F10807BD469A
S32D0001256880BD00BF80B582B000AF7860F970BA707B704FF43040C4F20E004FF07F01FEF78BF94FF43040C4F2C4
S32D000125900E004FF00801FEF783F9FB784FF43040C4F20E001946FEF77BF9BB784FF43040C4F20E001946FEF7A5
S32D000125B873F97B784FF43040C4F20E001946FEF76BF94FF43040C4F20E004FF0FF01FEF763F907F10807BD4655
S32D000125E080BD00BF80B487B000AFF860B9607A60FA6844F6D353C1F26203A3FB02134FEA9312BB68D3187B6116
S32D00012608FA6844F6D353C1F26203A3FB02134FEA93134FF47A7101FB03F3D31AFB60FB684FEAC33244F6D353DE
S32D00012630C1F26203A3FB02134FEA93127B68D3183B613B694FEAD3337A69D3187B613B694FEA43434FEA5343A9
S32D000126583B614FF45043C4F203031B681A467B699A4211D34FF45043C4F203031B681A467B699A420BD14FF44A
S32D000126805043C4F203035B681A463B699A4202D24FF0010301E04FF00003002BDDD107F11C07BD4680BC704715
S32D000126A880B584B000AF78604FF45043C4F203031B68FB604FF45043C4F203035B68BB607B681846F968BA686F
S32D000126D0FFF788FF07F11007BD4680BD0000000080B584B000AFC7E900014FF45043C4F203031B68FB604FF493
S32D000126F85043C4F203035B68BB60D7E900010AA3D3E90023FAF738F802460B4610461946FAF7F4FA0346184644
S32D00012720F968BA68FFF75EFF07F11007BD4680BD0000000000408F4080B483B000AF4FF45043C4F203031B682B
S32D000127484FF47A7202FB03F37B604FF45043C4F203035B684FF47A7202FB03F34FEAD3337A68D3187B607B6824
S32D00012770184607F10C07BD4680BC704780B582B000AF78600B46FB70FB787868194600F007F87B68184607F157
S32D000127980807BD4680BD00BF80B483B000AF78600B46FB707B68FA781A707B681B781A464BF6C023C0F20103CB
S32D000127C09B5C042B00F2F98001A252F823F000BFE527010043280100A1280100FF2801005D2901004FF4104312
S32D000127E8C4F204037A68127811464BF60432C0F2010252F8212040F2031143F822104FF47043C4F20F034FF4D7
S32D000128107042C4F20F02526911467A68127810464BF60432C0F2010252F8202002F01F024FF0010000FA02F255
S32D000128386FEA02020A405A61BBE04FF42043C4F204037A68127811464BF60432C0F2010252F8212040F2031151
S32D0001286043F822104FF24003C4F20F034FF24002C4F20F02526911467A68127810464BF60432C0F2010252F8FC
S32D00012888202002F01F024FF0010000FA02F26FEA02020A405A618CE04FF43043C4F204037A68127811464BF65B
S32D000128B00432C0F2010252F8212040F2031143F822104FF28003C4F20F034FF28002C4F20F02526911467A68C6
S32D000128D8127810464BF60432C0F2010252F8202002F01F024FF0010000FA02F26FEA02020A405A615DE04FF418
S32D000129004043C4F204037A68127811464BF60432C0F2010252F8212040F2031143F822104FF2C003C4F20F036F
S32D000129284FF2C002C4F20F02526911467A68127810464BF60432C0F2010252F8202002F01F024FF0010000FADF
S32D0001295002F26FEA02020A405A612EE04FF45043C4F204037A68127811464BF60432C0F2010252F8212040F2B5
S32D00012978031143F822104FF47143C4F20F034FF47142C4F20F02526911467A68127810464BF60432C0F2010233
S32D000129A052F8202002F01F024FF0010000FA02F26FEA02020A405A6100BF07F10C07BD4680BC704780B584B0B2
S32D000129C800AF78600B46FB704FF00B03FB73FA78FB7B786811461A4600F0ECF87B68184607F11007BD4680BDFF
S32D000129F080B485B000AF78607B68A3F11003002B01DA03F11F034FEA6313FB60FB68012B48D0022B00F089804B
S32D00012A18002B40F0C9804FF46142CEF200024FF46143CEF20003D3F8803119467B68A3F110004FF01F03C8F21C
S32D00012A4000030340002B05DA03F1FF3363F01F0303F101034FF0010000FA03F30B43C2F880314FF46142CEF2F5
S32D00012A6800024FF46143CEF200031B6819467B68A3F110004FF01F03C8F200030340002B05DA03F1FF3363F046
S32D00012A901F0303F101034FF0010000FA03F30B43136085E04FF46142CEF200024FF46143CEF20003D3F88431D5
S32D00012AB819467B68A3F110004FF01F03C8F200030340002B05DA03F1FF3363F01F0303F101034FF0010000FAD1
S32D00012AE003F30B43C2F884314FF46142CEF200024FF46143CEF200035B6819467B68A3F110004FF01F03C8F2FE
S32D00012B0800030340002B05DA03F1FF3363F01F0303F101034FF0010000FA03F30B43536042E04FF46142CEF2C2
S32D00012B3000024FF46143CEF20003D3F8883119467B68A3F110004FF01F03C8F200030340002B05DA03F1FF33CF
