S00F00002E2E2F526F626F742E73313954
S32D0000C00000000020790F0100D5120100D5120100D5120100D5120100D5120100000000000000000000000000E1
S32D0000C02800000000D5120100D512010000000000D5120100D5120100D5120100D5120100D5120100D5120100AA
S32D0000C050D5120100D5120100D5120100D5120100D5120100D5120100D5120100D5120100D5120100D5120100B2
S32D0000C078D5120100D5120100D5120100D5120100D5120100D5120100D5120100D5120100D5120100D51201008A
S32D0000C0A0D5120100D5120100D5120100D5120100D5120100D5120100D5120100D5120100D5120100D512010062
S32D0000C0C8D5120100D5120100D5120100D5120100D5120100D5120100D5120100D5120100D5120100D51201003A
S32D0000C0F0D512010035AC0100D5120100D5120100D5120100D5120100D5120100D5120100D5120100D512010018
S32D0000C118D5120100D5120100D5120100D5120100D5120100D5120100D5120100D5120100D5120100D5120100E9
S32D0000C140D5120100D5120100D5120100D512010025760100D5120100D5120100D5120100D5120100D51201000D
S32D0000C168D5120100D5120100D5120100D5120100D5120100D5120100D5120100D5120100D5120100D512010099
S32D0000C190D5120100D5120100D512010085700100D96E0100AD6F0100251301005D710100D5120100D512010096
S32D0000C1B8D5120100D5120100D5120100D5120100D5120100D5120100D5120100D5120100D5120100D512010049
S32D0000C41081F0004102E000BF83F0004330B54FEA41044FEA430594EA050F08BF90EA020F1FBF54EA000C55EAC6
S32D0000C438020C7FEA645C7FEA655C00F0E2804FEA5454D4EB5555B8BF6D420CDD2C4480EA020281EA030382EA0F
S32D0000C460000083EA010180EA020281EA0303362D88BF30BD11F0004F4FEA01314FF4801C4CEA113102D0404263
S32D0000C48861EB410113F0004F4FEA03334CEA133302D0524263EB430394EA050F00F0A780A4F10104D5F1200E8A
S32D0000C4B00DDB02FA0EFC22FA05F2801841F1000103FA0EF2801843FA05F359410EE0A5F120050EF1200E012A2D
S32D0000C4D803FA0EFC28BF4CF0020C43FA05F3C01851EBE37101F0004507D54FF0000EDCF1000C7EEB00006EEB67
S32D0000C5000101B1F5801F1BD3B1F5001F0CD349085FEA30004FEA3C0C04F101044FEA445212F5800F80F09A8000
S32D0000C528BCF1004F08BF5FEA500C50F1000041EB045141EA050130BD5FEA4C0C404141EB010111F4801FA4F114
S32D0000C5500104E9D191F0000F04BF01460020B1FA81F308BF2033A3F10B03B3F120020CDA0C3208DD02F1140C87
S32D0000C578C2F10C0201FA0CF021FA02F10CE002F11402D8BFC2F1200C01FA02F120FA0CFCDCBF41EA0C019040B1
S32D0000C5A0E41AA2BF01EB0451294330BD6FEA04041F3C1CDA0C340EDC04F11404C4F1200220FA04F001FA02F3B6
S32D0000C5C840EA030021FA04F345EA030130BDC4F10C04C4F1200220FA02F001FA04F340EA0300294630BD21FAA8
S32D0000C5F004F0294630BD94F0000F83F4801306BF81F480110134013D4EE77FEA645C18BF7FEA655C29D094EA1C
S32D0000C618050F08BF90EA020F05D054EA000C04BF1946104630BD91EA030F1EBF0021002030BD5FEA545C05D1A3
S32D0000C6404000494128BF41F0004130BD14F580043CBF01F5801130BD01F0004545F0FE4141F470014FF0000031
S32D0000C66830BD7FEA645C1ABF194610467FEA655C1CBF0B46024650EA013406BF52EA033591EA030F41F40021D7
S32D0000C69030BD00BF90F0000F04BF0021704730B54FF4806404F132044FF000054FF0000150E700BF90F0000F66
S32D0000C6B804BF0021704730B54FF4806404F1320410F0004548BF40424FF000013EE700BF42004FEAE2014FEAF9
S32D0000C6E031014FEA02701FBF12F07F4393F07F4F81F06051704792F0000F14BF93F07F4F704730B54FF460741B
S32D0000C70801F0004521F0004120E700BF50EA010208BF704730B54FF000050AE050EA010208BF704730B511F046
S32D0000C730004502D5404261EB41014FF4806404F132045FEA915C3FF4DCAE4FF003025FEADC0C18BF03325FEAA0
S32D0000C758DC0C18BF033202EBDC02C2F1200300FA03FC20FA02F001FA03FE40EA0E0021FA02F11444C1E600BF19
S32D0000C78070B54FF0FF0C4CF4E06C1CEA11541DBF1CEA135594EA0C0F95EA0C0F00F0DEF82C4481EA030621EAF3
S32D0000C7A84C5123EA4C5350EA013518BF52EA033541F4801143F4801338D0A0FB02CE4FF00005E1FB02E506F05F
S32D0000C7D00042E0FB03E54FF00006E1FB03569CF0000F18BF4EF0010EA4F1FF04B6F5007F64F5407404D25FEA0F
S32D0000C7F84E0E6D4146EB060642EAC62141EA55514FEAC52040EA5E504FEACE2EB4F1FD0C88BFBCF5E06F1ED8D2
S32D0000C820BEF1004F08BF5FEA500E50F1000041EB045170BD06F0004646EA010140EA020081EA0301B4EB5C0487
S32D0000C848C2BFD4EB0C0541EA045170BD41F480114FF0000E013C00F3AB8014F1360FDEBF002001F0004170BDF0
S32D0000C870C4F10004203C35DA0C341BDC04F11404C4F1200500FA05F320FA04F001FA05F240EA020001F0004207
S32D0000C89821F0004110EBD37021FA04F642EB06015EEA430E08BF20EAD37070BDC4F10C04C4F1200500FA04F32F
S32D0000C8C020FA05F001FA04F240EA020001F0004110EBD37041F100015EEA430E08BF20EAD37070BDC4F12005C7
S32D0000C8E800FA05F24EEA020E20FA04F301FA05F243EA020321FA04F001F0004121FA04F220EA020000EBD37028
S32D0000C9105EEA430E08BF20EAD37070BD94F0000F0FD101F00046400041EB010111F4801F08BF013CF7D041EA6D
S32D0000C938060195F0000F18BF704703F00046520043EB030313F4801F08BF013DF7D043EA0603704794EA0C0FF1
S32D0000C9600CEA135518BF95EA0C0F0CD050EA410618BF52EA4306D1D181EA030101F000414FF0000070BD50EA38
S32D0000C988410606BF1046194652EA430619D094EA0C0F02D150EA013613D195EA0C0F05D152EA03361CBF10467B
S32D0000C9B019460AD181EA030101F0004141F0FE4141F470014FF0000070BD41F0FE4141F4780170BD70B54FF04D
S32D0000C9D8FF0C4CF4E06C1CEA11541DBF1CEA135594EA0C0F95EA0C0F00F0A7F8A4EB050481EA030E52EA03359B
S32D0000CA004FEA013100F088804FEA03334FF0805545EA131343EA12634FEA022245EA111545EA10654FEA002676
S32D0000CA280EF000419D4208BF964244F1FD0404F5407402D25B084FEA3202B61A65EB03055B084FEA32024FF461
S32D0000CA5080104FF4002CB6EB020E75EB030E22BFB61A754640EA0C005B084FEA3202B6EB020E75EB030E22BF22
S32D0000CA78B61A754640EA5C005B084FEA3202B6EB020E75EB030E22BFB61A754640EA9C005B084FEA3202B6EBEA
S32D0000CAA0020E75EB030E22BFB61A754640EADC0055EA060E18D04FEA051545EA16754FEA06164FEAC30343EAAC
S32D0000CAC852734FEAC2025FEA1C1CC0D111F4801F0BD141EA00014FF000004FF0004CB6E711F4801F04BF0143AE
S32D0000CAF00020B4F1FD0C88BFBCF5E06F3FF6AFAEB5EB030C04BFB6EB020C5FEA500C50F1000041EB045170BDBC
S32D0000CB180EF0004E4EEA113114EB5C04C2BFD4EB0C0541EA045170BD41F480114FF0000E013C90E645EA060EC3
S32D0000CB408DE60CEA135594EA0C0F08BF95EA0C0F3FF43BAF94EA0C0F0AD150EA01347FF434AF95EA0C0F7FF499
S32D0000CB6825AF104619462CE795EA0C0F06D152EA03353FF4FDAE1046194622E750EA410618BF52EA43067FF432
S32D0000CB90C5AE50EA41047FF40DAF52EA43057FF4EBAE12E74FF0FF3C06E000BF4FF0010C02E000BF4FF0010C75
S32D0000CBB84DF804CD4FEA410C7FEA6C5C4FEA430C18BF7FEA6C5C1BD001B050EA410C0CBF52EA430C91EA030FEC
S32D0000CBE002BF90EA020F0020704710F1000F91EA030F58BF994208BF90422CBFD8176FEAE37040F0010070476E
S32D0000CC084FEA410C7FEA6C5C02D150EA013C07D14FEA430C7FEA6C5CD6D152EA033CD3D05DF8040B704700BFCD
S32D0000CC308446104662468C461946634600E000BF01B5FFF7B7FF002848BF10F1000F01BD4DF808EDFFF7F4FF13
S32D0000CC580CBF012000205DF808FB00BF4DF808EDFFF7EAFF34BF012000205DF808FB00BF4DF808EDFFF7E0FF18
S32D0000CC8094BF012000205DF808FB00BF4DF808EDFFF7CEFF94BF012000205DF808FB00BF4DF808EDFFF7C4FF40
S32D0000CCA834BF012000205DF808FB00BF4FEA410212F5001215D211D56FF47873B3EB625212D94FEAC12343F0D6
S32D0000CCD0004343EA505311F0004F23FA02F018BF404270474FF00000704750EA013005D111F0004008BF6FF016
S32D0000CCF8004070474FF00000704700BF4A0011D212F5001211D20DD56FF47873B3EB62520ED44FEAC12343F085
S32D0000CD20004343EA505323FA02F070474FF00000704750EA013002D14FF0FF3070474FF0000070474FEA410241
S32D0000CD48B2F1E04324BFB3F5001CDCF1FE5C0DD901F0004C4FEAC0024CEA5070B2F1004F40EB830008BF20F09E
S32D0000CD700100704711F0804F21D113F13872BCBF01F00040704741F480114FEA5252C2F11802C2F1200C10FAB1
S32D0000CD980CF320FA02F018BF40F001004FEAC1234FEAD32303FA0CFC40EA0C0023FA02F34FEA4303CCE77FEA26
S32D0000CDC0625307D150EA01331EBF4FF0FE4040F44000704701F0004040F0FE4040F40000704700BF80F00040CC
S32D0000CDE802E000BF81F0004142001FBF5FEA410392EA030F7FEA226C7FEA236C6AD04FEA1262D2EB1363C1BF06
S32D0000CE10D218414048404140B8BF5B42192B88BF704710F0004F40F4000020F07F4018BF404211F0004F41F4FA
S32D0000CE38000121F07F4118BF494292EA030F3FD0A2F1010241FA03FC10EB0C00C3F1200301FA03F100F000432B
S32D0000CE6002D5494260EB4000B0F5000F13D3B0F1807F06D340084FEA310102F10102FE2A51D2B1F1004F40EB94
S32D0000CE88C25008BF20F0010040EA03007047490040EB000010F4000FA2F10102EDD1B0FA80FCACF1080CB2EB5F
S32D0000CEB00C0200FA0CF0AABF00EBC25052421843BCBFD0401843704792F0000F81F4000106BF80F400000132EB
S32D0000CED8013BB5E74FEA41037FEA226C18BF7FEA236C21D092EA030F04D092F0000F08BF0846704790EA010FD7
S32D0000CF001CBF0020704712F07F4F04D1400028BF40F00040704712F100723CBF00F50000704700F0004343F0DC
S32D0000CF28FE4040F4000070477FEA226216BF08467FEA23630146420206BF5FEA412390EA010F40F480007047C1
S32D0000CF504FF0000304E000BF10F0004348BF40425FEA000C08BF704743F0964301464FF000001CE050EA010264
S32D0000CF7808BF70474FF000030AE000BF50EA010208BF704711F0004302D5404261EB41015FEA010C02BF84465B
S32D0000CFA00146002043F0B64308BFA3F18053A3F50003BCFA8CF2083AA3EBC25310DB01FA02FC634400FA02FC6B
S32D0000CFC8C2F12002BCF1004F20FA02F243EB020008BF20F00100704702F1200201FA02FCC2F1200250EA4C0034
S32D0000CFF021FA02F243EB020008BF20EADC7070474FF0FF0C1CEAD0521EBF1CEAD15392EA0C0F93EA0C0F6FD019
S32D0000D0181A4480EA010C400218BF5FEA41211ED04FF0006343EA501043EA5111A0FB01310CF00040B1F5000FE7
S32D0000D0403EBF490041EAD3715B0040EA010062F17F02FD2A1DD8B3F1004F40EBC25008BF20F00100704790F058
S32D0000D068000F0CF0004C08BF49024CEA502040EA51207F3AC2BFD2F1FF0340EAC250704740F400004FF0000388
S32D0000D090013A5DDC12F1190FDCBF00F000407047C2F10002410021FA02F1C2F1200200FA02FC5FEA310040F1D5
S32D0000D0B8000053EA4C0308BF20EADC70704792F0000F00F0004C02BF400010F4000F013AF9D040EA0C0093F04C
S32D0000D0E0000F01F0004C02BF490011F4000F013BF9D041EA0C018FE70CEAD15392EA0C0F18BF93EA0C0F0AD00B
S32D0000D10830F0004C18BF31F0004CD8D180EA010000F00040704790F0000F17BF90F0004F084691F0000F91F0BB
S32D0000D130004F14D092EA0C0F01D142020FD193EA0C0F03D14B0218BF084608D180EA010000F0004040F0FE4051
S32D0000D15840F40000704740F0FE4040F4400070474FF0FF0C1CEAD0521EBF1CEAD15392EA0C0F93EA0C0F69D044
S32D0000D180A2EB030280EA010C49024FEA402037D04FF0805343EA111143EA10130CF000408B4238BF5B0042F14E
S32D0000D1A87D024FF4000C8B4224BF5B1A40EA0C00B3EB510F24BFA3EB510340EA5C00B3EB910F24BFA3EB9103A4
S32D0000D1D040EA9C00B3EBD10F24BFA3EBD10340EADC001B0118BF5FEA1C1CE0D1FD2A3FF650AF8B4240EBC25018
S32D0000D1F808BF20F0010070470CF0004C4CEA50207F32C2BFD2F1FF0340EAC250704740F400004FF00003013AF1
S32D0000D22037E792F0000F00F0004C02BF400010F4000F013AF9D040EA0C0093F0000F01F0004C02BF490011F4C9
S32D0000D248000F013BF9D041EA0C0195E70CEAD15392EA0C0F08D142027FF47DAF93EA0C0F7FF470AF084676E7AE
S32D0000D27093EA0C0F04D14B023FF44CAF08466EE730F0004C18BF31F0004CCAD130F000427FF45CAF31F0004376
S32D0000D2987FF43CAF5FE700BF4FF0FF3C06E000BF4FF0010C02E000BF4FF0010C4DF804CD4FEA40024FEA41039F
S32D0000D2C07FEA226C18BF7FEA236C11D001B052EA530C18BF90EA010F58BFB2EB030088BFC81738BF6FEAE1706E
S32D0000D2E818BF40F0010070477FEA226C02D15FEA402C05D17FEA236CE4D15FEA412CE1D05DF8040B704700BF16
S32D0000D310844608466146FFE70FB5FFF7C9FF002848BF10F1000F0FBD4DF808EDFFF7F4FF0CBF012000205DF839
S32D0000D33808FB00BF4DF808EDFFF7EAFF34BF012000205DF808FB00BF4DF808EDFFF7E0FF94BF012000205DF8A9
S32D0000D36008FB00BF4DF808EDFFF7D2FF94BF012000205DF808FB00BF4DF808EDFFF7C8FF34BF012000205DF8B1
S32D0000D38808FB00BF4FEA4002B2F1FE4F0FD34FF09E03B3EB12620DD94FEA002343F0004310F0004F23FA02F060
S32D0000D3B018BF404270474FF00000704712F1610F01D1420205D110F0004008BF6FF0004070474FF00000704797
S32D0000D3D8036803B11B181846704700BF03685A004CBF43F0004323F00043C018704700BF2DE9F84F0446914699
S32D0000D40041B301F1FF3BDA46002707EB0A0101EBD1756D1004EBC5063046FFF7E3FF8046681CAB4504EBC000FA
S32D0000D4280DD0FFF7DBFF0138C84504D9BD4209D005F1FF3AE5E7484505D26F1CE1E74FF0FF30F1E7002630469A
S32D0000D450BDE8F88F0E463046BDE8F88F30B52B4B83B004468D1E002B49D0284601A9AFF300800346002822D028
S32D0000D4782A4618460199FFF7BBFF054600281DD0FFF7ACFF6B68A064012B10D0281D002B22DBFFF7A3FF002164
S32D0000D4A0E06421650368002B0FDBFFF79BFF2061002003B030BD002323610520F9E720610920F6E72061092066
S32D0000D4C8F3E7C3F3036058B101280CD002280ED0002020610920E8E70122E0642265DDE7094B2361E1E7094AEF
S32D0000D4F000202261DDE7084900202161D9E7074B0749C81AC2100192B6E700BF0000000029DA000025DA0000AD
S32D0000D51821DA0000B40F0200AC110200036810B50446D80706D4990704F1480009D500F00DFD23685A0709D5B4
S32D0000D54018070ED5D90613D510BD00F0FBFC23685A07F5D404F1D00000F004FD23681807F0D404F5D87000F036
S32D0000D56805FD2368D906EBD404F50C70BDE8104000F040BD2DE9F0470F1D054691460FCFADF5916D02AC261D09
S32D0000D5900FC60FCF0FC60FCF0FC697E80F00D5F80C80D5F818A0002786E80F00216C27602846FFF753FF06460C
S32D0000D5B8B94514BF4FF00A094FF00909FEB1A16B49F01009616401208DE8100449462A462B46C04700282BD1BA
S32D0000D5E0002E2AD1204692A94FF4107210F0E8F8082F28D1216C2846FFF730FF06464FF00909002EDFD1206C57
S32D0000D60821464FF41072686192A810F0D5F82F69294692AA4846B847A09B0746636401208DE8100449462A4630
S32D0000D6302B46C0470028D3D00926304622B00DF5806DBDE8F087072FF6D1201D00F06EFC38B504460D46296C54
S32D0000D6582046FFF7FFFE50B92A6C23696261012021462A4698470828F1D0072801D012F0EDF9281D00F056FC26
S32D0000D68011B933B10220704704298CBF0220012070470F2A01D90220704700EB820118464A68009B1A6070474D
S32D0000D6A810B50A4684B000210B4603AC0094FFF7E3FF039804B010BD11B933B10220704704298CBF0220012020
S32D0000D6D070470F2A01D902207047009900EB8202096818465160704710B584B004AB0C4643F8042D0021009330
S32D0000D6F822460B46FFF7E0FF04B010BD2DE9F04FCD6C8BB00C4655F8041B174600F008021E46039200F0030823
S32D0000D7200795002B40F0CF8009020691216D8DF821300323B8F1020F8DF8203008BFA56B11F0010340F0D3807B
S32D0000D748019304F158030293D5F80090B9F1000F00F0CB80022E00F0AE80B5F80090B5F802A00435A26C0F2198
S32D0000D7702AF0010B38469344FFF796FF834518D829F0010CE3440AF0010A09F00103584543EA4A092CBF002056
S32D0000D7980120B9F1010F12D032D2B8F1000F02D0002840F01D810435CEE70AF0010A09F0010343EA4A09002092
S32D0000D7C0B9F1010FECD1B8F1000F40F0B680C8B16B68D5F800909A1C19D0029A013309920DD0281DFFF7F8FDE6
S32D0000D7E84FEAD972014609AB204611F095F9002800F0F280099A002A40F0BA800835A3E7B9F1020F03D0092060
S32D0000D8100BB0BDE8F08F2B6823F000420092B8F1000F71D1002843D00398002840F0A1800098002800F0A08078
S32D0000D838009BDDF80C90DB0705F1040A40F1B480CDF810800596A846029E12E000998D4200F0D9800996FFF7B5
S32D0000D860BBFD5A46014609AB204611F059F9A946B0B90AF1040A05F1010950460996FFF7ABFD09AB014600223D
S32D0000D888204611F049F90AF1040A834609F101055046BBF1000FD9D04546059EDDF81080009A4A4564D02B687A
S32D0000D8B0002B7BDB0099481C05EB800548E7D5F804A0083552E70B04C1F30740216D06930222B8F1020F05EB42
S32D0000D8D8800508BFA56B8DF8210011F001038DF820203FF42DAF00200190384606A900F019FC002887D1019A49
S32D0000D900002A43D1082083E70D213846D4F82090FFF7CAFE8145CAD1A26A9542C7D10098291D00220423A0623E
S32D0000D928E26223636163286800286EDB01220192BCE70D213846D4F82090FFF7B1FE81457FF45CAFA16A8D42FE
S32D0000D9507FF458AF2846FFF745FD0F2102463846FFF7C2FE384600212246FFF7BDFE07204EE7009900299BD19B
S32D0000D97838460D21FFF794FE099B20626362A562062041E70F213846FFF78AFE0E2102463846FFF7A5FE3846D5
S32D0000D9A00F211E4AFFF7A0FE072031E7043581E7029950460991FFF70FFD039A014609AB204611F0ADF80028B4
S32D0000D9C87FF46EAFCDF8108005960AF1040A4FF00109A846029E4CE7CDF824800835B3E62846FFF7FBFC0435CB
S32D0000D9F00646A563204611F009F900283FF407AF38460F213246FFF76FFE072000E74546B2E7009B591C05EB80
S32D0000DA1881009CE775ED010002236FE601236DE600236BE62DE9F0470446E8B004290CD8DFE801F038039193BD
S32D0000DA400F00150C012B96B200F07881052B00F0C780022068B0BDE8F087002BF9D1102AF7D82368D90600F115
S32D0000DA68738164A8019200F0CFFA019AA36BD00744BF53F8040B6490910744BF53F8041B6591500744BF53F8D3
S32D0000DA90041B6691110748BF53F8042B64A8A36348BF679200F0AAFA0020D3E7002BD0D1A36BD00791B244BF42
S32D0000DAB853F8042B62608A0744BF53F8042BA260480744BF53F8042BE2600A0744BF53F8042B2261C80644BF04
S32D0000DAE053F8042B62618A0644BF53F8042BA261480644BF53F8042BE2610A0644BF53F8042B2262C80544BFDC
S32D0000DB0853F8042B62628A0544BF53F8042BA262480544BF53F8042BE2620A0544BF53F8042B2263C80444BFB3
S32D0000DB3053F8042B626311F400501CBF53F8042BA2634A0444BF53F8042BE2630A0444BF53F8042B2264002890
S32D0000DB5840D1A3637AE7012078E7032B7FF475AF160C95B2AA19102A3FF66FAF2368180700F10B8144A800F026
S32D0000DB801BFAA76B4FEA450E3B460DB344A90EF1FF3C01EBC60653F8040B62460CF0010146F8040B92B129B13A
S32D0000DBA853F8041B013A46F8041B0BD01846314650F8045B41F8045B5D68031D75600E1D023AF3D107EB8E03F6
S32D0000DBD044A8A36300F0CEF900203BE7002039E777192022BA42FFF434AF012B00F0A9800F2D40F2A9803746FF
S32D0000DBF8F6B1052B7FF429AF0F2D11D82268D0070ED522F00101052B2160204600F0DA8022F0030240F8482B3D
S32D0000DC20019300F093F9019B1FB12268510700F1B880012B00F0BF800F2D75D9002F40F0A080D4F83890002E29
S32D0000DC48C8462EDD49460DF1080A4FEA46080AEBC50251F8046B08F1FF3000F0010A42F8046BA8F1020CD0B107
S32D0000DC70BAF1000F08D051F8040B0CF1FF3CBCF1FF3F42F8040B0ED00E46104656F804AB40F804AB4968ACF176
S32D0000DC98020C5160311D021DBCF1FF3FF0D109EB8808A7B3102D2CBF2E4610260DF5D079414609EBC60CACF59D
S32D0000DCC0C8724FEA470951F8046B09F1FF3000F0010A42F8046BA9F1020CD0B1BAF1000F08D051F8040B0CF1DE
S32D0000DCE8FF3CBCF1FF3F42F8040B0ED00E46104656F804AB40F804AB4968ACF1020C5160311D021DBCF1FF3FCE
S32D0000DD10F0D108EB8908012B2BD00F2DC4F8388008D9FFB9384695E602A8019300F016F9019B83E702A800F05A
S32D0000DD380DF9F2E77719102250E70F2D3FF685AE102F10D9103F54E723F01003236004F50C70019200F058F99D
S32D0000DD60019A82E624A800F0FDF8002072E6002746E708F1040302A8A36300F0E3F8002068E624A80193C5F116
S32D0000DD88100600F0EFF8019B57E723F0080704F5D870276000F00CF9ECE6204622F0040140F8D01B019300F0D1
S32D0000DDB0DDF8019B3DE702A8019300F0C7F8019B002F3FF43EAFC5F110063AE741F0020140F8481B019300F098
S32D0000DDD8C1F8019B24E700BF406C7047F0B50D460F1DC96B296404460FCFADF5117D01AE0FC60FCF0FC60FCF49
S32D0000DE000FC697E80F0086E80F004FF0FF33009310992046FFF722FB58B9266921466A46B04708280646F3D001
S32D0000DE286846FFF77BFB062E03D009200DF5117DF0BD20462946FFF707FC00BF10B4DC6BC16082611946002228
S32D0000DE501C6410BCFFF792BB38B54269C3680A6404460D4623B10122FFF788FB11F0F2FD0369214602202A4682
S32D0000DE789847072803D0082804D011F0E7FD281D00F050F820462946FFF7DEFBC36823B1CA6B0A640022FFF7D7
S32D0000DEA06DBB9FE7704700BF08B5836801460BB10120984708BD00BFF0B5D46B171D146405460C460FCFADF554
S32D0000DEC8277D01AE0FC60FCF0FC60FCF0FC697E80F0086E80F004FF0FF330093109990A8FFF7B8FA034690AA83
S32D0000DEF068460C21BBB9FFF7F7FB21466846A847064690A908206A466EB9949B98470528064601D00928E5D106
S32D0000DF186846FFF703FB30460DF5277DF0BD0926F6E700BF00F1340191E838009C46A6464CF8045D90E8FF0FD5
S32D0000DF40E54600BD90EC210B704700BF80EC210B704700BF90EC200B704700BF80EC200B704700BFD0EC200B8E
S32D0000DF68704700BFC0EC200B704700BFF0EC0201F0EC0211F0EC0221F0EC0231F0EC0241F0EC0251F0EC02615F
S32D0000DF90F0EC0271F0EC0281F0EC0291F0EC02A1F0EC02B1F0EC02C1F0EC02D1F0EC02E1F0EC02F1704700BFE6
S32D0000DFB8E0EC0201E0EC0211E0EC0221E0EC0231E0EC0241E0EC0251E0EC0261E0EC0271E0EC0281E0EC029155
S32D0000DFE0E0EC02A1E0EC02B1E0EC02C1E0EC02D1E0EC02E1E0EC02F1704700BFB0FC0181B0FC0191B0FC01A159
S32D0000E008B0FC01B1704700BFA0FC0181A0FC0191A0FC01A1A0FC01B1704700BFEC4600B52DE900502DE9FF1F47
S32D0000E0304FF000032DE90C0001A9FFF7D3FEDDF840E012B0704700BFEC4600B52DE900502DE9FF1F4FF00003FD
S32D0000E0582DE90C0001A9FFF7FBFEDDF840E012B0704700BFEC4600B52DE900502DE9FF1F4FF000032DE90C00CD
S32D0000E08001A9FFF707FFDDF840E012B0704700BFEC4600B52DE900502DE9FF1F4FF000032DE90C0001ABFFF718
S32D0000E0A8CDFEDDF840E012B0704700BFEC4600B52DE900502DE9FF1F4FF000032DE90C0001AAFFF7F5FEDDF804
S32D0000E0D040E012B0704700BF027A03461AB9427A42B9B02070470068013A01021A72000E196070474168501E6D
S32D0000E0F8587251F8040B0322596001021A72000E1960704710B5002184B00C220DEB02040B460094FFF7B0FA62
S32D0000E120039804B010BD00BFF0E700BF2DE9F043064685B00D464FF000094FF47F672846FFF7CAFFB028044683
S32D0000E14800F0B08010F0800120D000F0F003802B74D0902B37D0A02B45D0B02B56D0C02B00F0858000F0F800DB
S32D0000E170D0280BD104F00702511C41F40022304601210523FFF752FC0028D8D0092005B0BDE8F0834FEA800267
S32D0000E19803A85FFA82F800900D220B463046FFF76BFA039B600608F104084CBFC8EB0303434403AC03930094CD
S32D0000E1C0002130460D220B46FFF77AFAB7E700F00F020D2ADAD00F2AD8D0002103AC009430460B4603ACFFF77F
S32D0000E1E84BFA0094E8E7C24302F0070C47FA0CF0210700F47F6248BF42F48042002130460B46FFF70FFC00280D
S32D0000E210BCD194E7B1285DD0B2286ED0B32800F0958000F0FC02B42A46D000F00702531C43F40022012130469F
S32D0000E2380B46FFF7F7FB0028A4D17CE72846FFF747FF210240EA0104B4F5004F9AD0230500211A0C30460B46EB
S32D0000E2602401FFF7E3FB002890D114F4004F18BF4FF0010963E7C62873D0C72800F0848000F0F802C02A00F075
S32D0000E2889280C82800F0A680C9287FF47BAF2846FFF71EFF00F00F0300F0F0015A1C42EA013268E7B9F1000F81
S32D0000E2B000F0838000206AE700F00301481C022140F480220B463046FFF7B0FB00287FF45DAF34E72846FFF7FD
S32D0000E2D8FFFE024600283FF455AF10F0F0017FF451AF30460B46FFF79DFB00287FF44AAF21E700210D220B467E
S32D0000E30003AC30460094FFF7BBF92846FFF7E4FE022402060DD5039B00F07F0000FA04FE03EB0E01284603912E
S32D0000E328FFF7D6FE07340306F1D4039B00F07F0103AA03F5017C01FA04F400920CEB0402039239E72846FFF729
S32D0000E350C3FE00F00F03591C00F0F00041EA003268E72846FFF7B8FE00F00F03591C00F0F00041EA00320321E9
S32D0000E37830460B46FFF756FB00287FF403AFDAE62846FFF7A5FE024600283FF4FBAE10F0F0037FF4F7AE304688
S32D0000E3A00421FFF743FB00287FF4F0AEC7E600F00F01481C40F42022DDE703AC49460E224B4630460094FFF773
S32D0000E3C85BF9304649460F224B460094FFF774F94846D8E62846FFF77BFE00F0F00200F00F001032431C43EA3D
S32D0000E3F00232C4E610B5C26C84B0032054688DF80C00D37924020832084601A9019402928DF80D30FFF78AFE7D
S32D0000E41804B010BD08B5FFF783FE806C08BD00BF08B5FFF77DFEC16CC87901EB800303F1080008BD08B511F027
S32D0000E44009FB00BF08B511F005FB00BF80B483B000AF78607B68044A1A607B68184607F10C07BD4680BC704793
S32D0000E4687000020080B582B000AF78607B681846FFF7E8FF7B68064A1A607B684FF000025A607B68184607F144
S32D0000E4900807BD4680BD00BF5800020090B585B000AF78603960386801F066FE0346002B04D07B684FF00002FB
S32D0000E4B85A6003E07B684FF001025A6007F10C03184602F0F1FA7B685B68012B12D14FF0200010F01BFA044605
S32D0000E4E020461149114A124B00F016FA07F10C0318463968224602F0E7FA11E04FF0200010F008FA0446204653
S32D0000E5080A490B4A084B00F003FA07F10C0318463968224602F0D4FA07F11407BD4690BD3333634100000C4214
S32D0000E530CDCC4C3E3333C3400000F04180B483B000AF786039604FF00103184607F10C07BD4680BC704700BF18
S32D0000E55880B483B000AF7860396007F10C07BD4680BC704780B483B000AF78604FF00003184607F10C07BD4671
S32D0000E58080BC704780B584B000AFF860B9607A60FB681846FFF75AFFFB68074A1A60FB68BA685A60FB687A6855
S32D0000E5A89A60FB68184607F11007BD4680BD00BFB800020080B483B000AF7860396007F10C07BD4680BC70473A
S32D0000E5D080B582B000AF786039607B685A687B689B68386811461A4601F042F84FF00103184607F10807BD46DE
S32D0000E5F880BD00BF80B483B000AF7860396007F10C07BD4680BC704780B483B000AF78604FF00003184607F1EB
S32D0000E6200C07BD4680BC704780B584B000AFF860B9607A60FB681846FFF708FFFB68074A1A60FB68BA685A6035
S32D0000E648FB687A689A60FB68184607F11007BD4680BD00BFF000020080B483B000AF7860396007F10C07BD460F
S32D0000E67080BC704780B582B000AF786039607B685A687B689B68386811461A4601F044FA4FF00103184607F158
S32D0000E6980807BD4680BD00BF80B483B000AF7860396007F10C07BD4680BC704780B483B000AF78604FF000038E
S32D0000E6C0184607F10C07BD4680BC704780B582B000AF78607B681846FFF7B8FE7B68044A1A607B68184607F10E
S32D0000E6E80807BD4680BD00BF2001020080B483B000AF7860396007F10C07BD4680BC704780B483B000AF78605D
S32D0000E71039604FF00103184607F10C07BD4680BC704700BF80B483B000AF7860396007F10C07BD4680BC704759
S32D0000E73880B483B000AF78604FF00103184607F10C07BD4680BC704780B582B000AF78607B681846FFF776FE8A
S32D0000E7607B68064A1A607B684FF000025A607B68184607F10807BD4680BD00BF5001020090B587B002AF786061
S32D0000E7883960386801F0F4FC0346002B04D07B684FF000025A6003E07B684FF001025A6007F10C03184602F00A
S32D0000E7B07FF97B685B68012B46D14FF0140010F0A9F804462046334900F066FC07F10C0318463968224602F008
S32D0000E7D877F94FF0200010F099F804464FF00003009320462A492B4A2B4B00F0C7F807F10C03184639682246B3
S32D0000E80002F062F94FF0140010F084F804462046244900F041FC07F10C0318463968224602F052F94FF00C008E
S32D0000E82810F074F8044620461D491E4AFFF7F8FE07F10C0318463968224602F041F920E04FF0140010F062F8A5
S32D0000E85004462046164900F01FFC07F10C0318463968224602F030F94FF00C0010F052F8044620460C490D4A06
S32D0000E878FFF7D6FE07F10C0318463968224602F01FF907F11407BD4690BD00BF00000000CDCC6C400000344253
S32D0000E8A0CDCC4C3E0000B44200002041000034C20000D24280B483B000AF786039604FF00103184607F10C0793
S32D0000E8C8BD4680BC704700BF80B483B000AF7860396007F10C07BD4680BC704780B483B000AF78604FF00003B5
S32D0000E8F0184607F10C07BD4680BC704780B483B000AF78607B6823F00043184607F10C07BD4680BC704700BF56
S32D0000E91880B584B000AFF860B9607A603B60FB681846FFF78FFDFB68114A1A60FB68BA685A60FB687A689A60DA
S32D0000E940FB684FF000021A77FB684FF000025A77FB680A4A1A61FB68094A5A61FB683A689A61FB684FF00102B7
S32D0000E9689A77FB68184607F11007BD4680BD00BF88010200000070410000000080B584B000AFF860B9607A6002
S32D0000E9903B60FB681846FFF759FDFB68104A1A60FB68BA685A60FB687A689A60FB684FF000021A77FB684FF025
S32D0000E9B800025A77FB68094A1A61FB68084A5A61FB683A689A61FB683A7E9A77FB68184607F11007BD4680BD81
S32D0000E9E088010200000070410000000090B585B000AF7860396007F10803184602F058F8386801F085FA3868E0
S32D0000EA0801F006FC7B685C68386801F0CFFB034620461946FEF7E6F90346FB607B689B681846F968FEF7E8FAE9
S32D0000EA3003464FF00102144618464349FEF77EFC0346002B02D14FF000031C46E3B2002B18D07B689B7F002BBF
S32D0000EA580FD04FF014000FF059FF04462046384900F016FB07F1080318463968224602F027F87B684FF0010235
S32D0000EA801A7713E07B689B7F002B0FD04FF014000FF040FF044620462C4900F0FDFA07F10803184639682246D6
S32D0000EAA802F00EF87B689B684FF00102144618462349FEF73FFC0346002B02D14FF000031C46E3B2002B06D04B
S32D0000EAD07B681B7F83F00103DAB27B681A777B681B7F002B05D07B689B6883F000427B689A607B689B7F002B07
S32D0000EAF805D0386801F008FA386801F089FB7B685C68386801F052FB034620461946FEF769F903461A467B68FD
S32D0000EB205A61386801F052FB02467B68DA607B685A697B689B68386811461A4600F098FD07F11407BD4690BDFE
S32D0000EB48000000000000344390B585B000AF78603960386801F0D8F9386801F059FB7B685C68386801F022FBF2
S32D0000EB70034620461946FEF739F90346FB60F868FFF7BCFE02467B689B694FF001010C4610461946FEF7F0FB37
S32D0000EB980346002B02D14FF000031C46E3B2002B3DD07B689B6818462049FEF725FA03461C467B689B681846E7
S32D0000EBC0FFF79CFE034620461946FEF7CDFA0346BB60F868FDF780FD02460B46104619464FF000024FF0804307
S32D0000EBE803F50813FDF7C8FD02460B46104619464FF000024FF0804303F51013FDF7E6FE02460B461046194661
S32D0000EC10FEF798F8034638681946BA6800F028FD4FF0000301E04FF00103184607F11407BD4690BD000050411A
S32D0000EC3880B582B000AF786039603B68184602F0F7FB3B6803F10803184602F0F1FB07F10807BD4680BD00BF5E
S32D0000EC6080B483B000AF78604FF00003184607F10C07BD4680BC704780B584B000AFF860B9607A603B60FB6896
S32D0000EC881846FFF7DFFBFB680F4A1A60FB68BA685A60FB687A689A60FB684FF000021A77FB684FF000025A77D2
S32D0000ECB0FB68084A1A61FB683A689A61FB684FF001029A77FB68184607F11007BD4680BDB801020000007041D4
S32D0000ECD880B584B000AFF860B9607A603B60FB681846FFF7AFFBFB680F4A1A60FB68BA685A60FB687A689A60FB
S32D0000ED00FB684FF000021A77FB684FF000025A77FB68084A1A61FB683A689A61FB683A7E9A77FB68184607F126
S32D0000ED281007BD4680BD00BFB80102000000704190B585B000AF7860396007F10803184601F0B2FE386801F00E
S32D0000ED50DFF8386801F060FA7B685C68386801F035FA034620461946FEF740F80346FB607B689B681846F968E8
S32D0000ED78FEF742F903464FF00102144618464349FEF7D8FA0346002B02D14FF000031C46E3B2002B18D07B6831
S32D0000EDA09B7F002B0FD04FF014000FF0B3FD04462046394900F070F907F1080318463968224601F081FE7B68D7
S32D0000EDC84FF001021A7713E07B689B7F002B0FD04FF014000FF09AFD044620462D4900F057F907F108031846A0
S32D0000EDF03968224601F068FE7B689B684FF00102144618462349FEF799FA0346002B02D14FF000031C46E3B241
S32D0000EE18002B06D07B681B7F83F00103DAB27B681A777B681B7F002B05D07B689B6883F000427B689A607B68FF
S32D0000EE409B7F002B05D0386801F062F8386801F0E3F97B685C68386801F0B8F9034620461946FDF7C3FF03463C
S32D0000EE681A467B685A61386801F0A0F902467B68DA607B685A697B689B68386811461A4600F0F2FB07F114071C
S32D0000EE90BD4690BD000000000000B4420000874390B585B000AF78603960386801F030F8386801F0B1F941F283
S32D0000EEB88440C1F6FF700DF017F903464FF00102144618463949FEF72BFA0346002B02D14FF000031C46E3B2D6
S32D0000EEE0002B02D04FF001035EE07B685C68386801F06CF9034620461946FDF777FF0346FB60F868FFF7FAFC81
S32D0000EF0802467B689B694FF001010C4610461946FEF72EFA0346002B02D14FF000031C46E3B2002B3AD07B68AF
S32D0000EF309B6818462049FEF763F803461C467B689B681846FFF7DAFC034620461946FEF70BF90346BB60F86813
S32D0000EF58FDF7BEFB02460B46104619464FF000024FF0804303F50813FDF706FC02460B46104619464FF00002B5
S32D0000EF804FF0804303F51013FDF724FD02460B4610461946FDF7D6FE034638681946BA6800F066FB4FF001031D
S32D0000EFA8184607F11407BD4690BD00BF000080BF0000504180B582B000AF786039603B68184602F035FA3B689F
S32D0000EFD003F10803184602F02FFA07F10807BD4680BD00BF80B483B000AF78604FF00003184607F10C07BD46F9
S32D0000EFF880BC704780B582B000AF786039607B681846FFF71FFA7B68054A1A607B683A685A607B68184607F1FD
S32D0000F0200807BD4680BD00BFE801020080B483B000AF7860396007F10C07BD4680BC704780B582B000AF786053
S32D0000F04839603B6803F110027B685B681046194608F0EAFC4FF00103184607F10807BD4680BD00BF80B483B011
S32D0000F07000AF7860396007F10C07BD4680BC704780B483B000AF78604FF00003184607F10C07BD4680BC7047C2
S32D0000F09880B582B000AF786039607B681846FFF7D1F97B68094A1A607B683A685A607B684FF000021A747B683E
S32D0000F0C04FF001025A747B68184607F10807BD4680BD00BF1802020080B584B000AFF860B9601346FB71FB68FE
S32D0000F0E81846FFF7AFF9FB68084A1A60FB68BA685A60FB684FF000021A74FB68FA795A74FB68184607F11007EA
S32D0000F110BD4680BD1802020090B585B000AF78603960386800F0F4FE386801F075F87B685B68FB604FF0010317
S32D0000F1381C46F8683349FEF707F90346002B02D14FF000031C46E3B2002B05D0F8682E49FDF74AFE0346FB603F
S32D0000F160386801F03FF80346F8681946FDF73EFE03461A467B689A607B689B684FF00102144618462349FEF7BA
S32D0000F188F7F80346002B02D14FF000031C46E3B2002B09D07B689B6818461B49FDF722FE03461A467B689A60A4
S32D0000F1B07B689B684FF00102144618461349FEF7C7F80346002B02D14FF000031C46E3B2002B09D07B689B68D7
S32D0000F1D818460D49FDF708FE03461A467B689A607B689B6838681946094A00F06DFD7B685B7C002B02D03868EC
S32D0000F20000F086FE07F11407BD4690BD000034C30000B443000034430000F0410000000090B585B000AF786072
S32D0000F22839607B685B7C83F00103DBB2002B02D04FF0010388E048A1D1E9000107F0ECF9386800F0E5FF7B68E2
S32D0000F2505B68FB604FF001031C46F8684249FEF777F80346002B02D14FF000031C46E3B2002B05D0F8683D4918
S32D0000F278FDF7BAFD0346FB60386800F0AFFF0346F8681946FDF7AEFD0346BB604FF001031C46B8683449FEF799
S32D0000F2A06BF80346002B02D14FF000031C46E3B2002B05D0B8682D49FDF798FD0346BB604FF001031C46B86815
S32D0000F2C82749FEF741F80346002B02D14FF000031C46E3B2002B05D0B8682249FDF784FD0346BB604FF0010353
S32D0000F2F01C46B8681F49FEF721F80346002B02D14FF000031C46E3B2002B07D038681A491A4A00F0DDFC4FF007
S32D0000F318000319E04FF001031C46B8681649FEF727F80346002B02D14FF000031C46E3B2002B07D03868114917
S32D0000F3400E4A00F0C5FC4FF0000301E04FF00103184607F11407BD4690BD00BFAFF30080333333333333C33F5A
S32D0000F368000034C30000B44300003443000080BF000000BF000090410000803F0000003F80B582B000AF786057
S32D0000F39039603B68184602F04FF83B6803F10803184602F049F807F10807BD4680BD00BF80B483B000AF786055
S32D0000F3B84FF00003184607F10C07BD4680BC704780B582B000AF78607B681846FFF73AF87B68044A1A607B68A1
S32D0000F3E0184607F10807BD4680BD00BF4802020080B483B000AF7860396007F10C07BD4680BC704790B585B04D
S32D0000F40800AF78603960386829492A4A00F06CFA0346FB6041F21C40C1F6FF70F96809F081FB4FF001031C4606
S32D0000F430F8682349FDF782FF0346002B02D14FF000031C46E3B2002B17D038684FF0010100F0A0FE41F21C40DD
S32D0000F458C1F6FF704FF6FC31C0F2010109F04EFB41F21C40C1F6FF704FF47F0109F052F816E038684FF0000167
S32D0000F48000F088FE41F21C40C1F6FF704FF60041C0F2010109F036FB41F21C40C1F6FF704FF0FF0109F03AF8B0
S32D0000F4A84FF00103184607F11407BD4690BD00BF000020410000F0410000803F80B483B000AF7860396007F1A3
S32D0000F4D00C07BD4680BC704780B483B000AF78604FF00003184607F10C07BD4680BC704780B582B000AF786088
S32D0000F4F878680DF0C7F80346184607F10807BD4680BD00BF80B582B000AF786078680DF005F90346184607F135
S32D0000F5200807BD4680BD00BF80B582B000AF78607B6818464FF001014C4A01F025FF7B6803F1080318464FF015
S32D0000F5480001484A01F01CFF7B6803F1100318464FF0050108F048FA7B6803F11C0318464FF0060107F0A6FAFE
S32D0000F5707B6803F11D0318464FF0070107F09EFA7B6803F11E0318464FF00E0107F076FE7B6803F11F031846DC
S32D0000F5984FF00C0107F06EFE7B6803F1200318464FF00A0107F066FE7B6803F1210318464FF0090107F05EFEA4
S32D0000F5C07B6803F1220318464FF0100107F0AEF87B6803F1230318464FF0120107F0A6F87B6803F12403184638
S32D0000F5E84FF0140107F09EF87B6803F1250318464FF0160107F096F87B6803F1260318464FF0180107F08EF8A9
S32D0000F6107B6803F1270318464FF01A0107F086F87B684FF0010283F8382041F28440C1F6FF700CF001FD034646
S32D0000F6381A467B6883F8392041F2A440C1F6FF700CF06CFE41F2A440C1F6FF704FF60841C0F201010CF050FF20
S32D0000F6607B68184607F10807BD4680BD00004041B0B58AB000AFF860B9607A607B6883F000437B604FF0010323
S32D0000F6881C46B8689649FDF755FE0346002B02D14FF000031C46E3B2002B07D0BB6883F00043BB607B6883F0E0
S32D0000F6B000437B60FB6803F11C03184607F0CAFDFB6803F11D03184607F0C4FD7868FFF715F903461846FCF771
S32D0000F6D8FFFF02460B461046194677A3D3E90023FDF74AF802460B461046194674A3D3E90023FCF78FFE02467D
S32D0000F7000B4610461946FDF71DFB03467B624FF001031C46786A7449FDF72EFE0346002B02D14FF000031C4654
S32D0000F728E3B2002B01D06E4B7B62B868FCF7D0FF02460B461046194663A3D3E90023FDF71BF802460B4614467D
S32D0000F7501D46786AFCF7C0FF02460B4620462946FCF75CFE02460B4610461946FDF7A2FA03463B623B6A042B41
S32D0000F77802DC4FF005033B62FB6803F11C03184607F050FD0346FB61FB6803F11D03184607F048FD034618462C
S32D0000F7A0FCF788FF02460B46104619464AA3D3E90023FCF7E5FF02460B4610461946FDF779FA0346BB615DE079
S32D0000F7C8FB6803F11C03184607F02CFD0346FB61FB6803F11D03184607F024FD03461846FCF764FF02460B46F7
S32D0000F7F01046194638A3D3E90023FCF7C1FF02460B4610461946FDF755FA0346BB617B687B617B683B61FA6932
S32D0000F818BB699A4206DA38693249FDF7EDFB03463B6109E0BA69FB699A4205DA78692D49FDF7E2FB03467B618D
S32D0000F840FA687B6983F000431046194601F044FEFB6803F108043869FCF73EFF02460B46104619461EA3D3E9B7
S32D0000F8680023FCF789FF02460B4610461946FDF765FA03462046194601F02AFEFA69BB69D2183B6A4FEA430377
S32D0000F8909A42ACBF00230123DBB2002B94D1FB68184601F0C9FDFB6803F10803184601F0C3FD07F12807BD468C
S32D0000F8B8B0BD00BFAFF3008057EC2FBB270FFBBFB4C876BE9F5A33400000000000404140295C8FC2F528F03FB8
S32D0000F8E0F6285C8FC2F5F03F000000000000403F90B58DB000AFF860B9607A60FB6803F11E03184607F0CCFC7B
S32D0000F9080346FB627B6883F000437B604FF001031C46B8687C49FDF70DFD0346002B02D14FF000031C46E3B2AF
S32D0000F930002B07D0BB6883F00043BB607B6883F000437B60FB6803F11C03184607F082FCFB6803F11D03184621
S32D0000F95807F07CFCB868FCF7BBFE02460B461046194663A3D3E90023FCF706FF02460B4610461946FDF79AF946
S32D0000F9800346BB61FB6803F11C03184607F04EFC0346BB62FB6803F11D03184607F046FC03461846FCF786FE4D
S32D0000F9A802460B461046194653A3D3E90023FCF7E3FE02460B4610461946FDF777F903467B6277E0FB6803F1B4
S32D0000F9D01E03184607F064FC03467B614FF001031C467869F96AFDF7A9FC0346002B02D14FF000031C46E3B20C
S32D0000F9F8002B01D07B69FB62FB6803F11C03184607F010FC0346BB62FB6803F11D03184607F008FC03461846F0
S32D0000FA20FCF748FE02460B461046194634A3D3E90023FCF7A5FE02460B4610461946FDF739F903467B627B6868
S32D0000FA483B627B68FB61BA6A7B6A9A4206DAF8692E49FDF7D1FA0346FB6109E07A6ABB6A9A4205DA386A2949F2
S32D0000FA70FDF7C6FA03463B62FA683B6A83F000431046194601F028FDFB6803F10804F869FCF722FE02460B46D6
S32D0000FA98104619461AA3D3E90023FCF76DFE02460B4610461946FDF749F903462046194601F00EFDBA6A7B6AFA
S32D0000FAC0D218BB694FEA43039A42ACBF00230123DBB2002B7FF47AAFFB68184601F0ACFCFB6803F1080318468F
S32D0000FAE801F0A6FCFB6A184607F13407BD4690BD0000000000404140295C8FC2F528F03FF6285C8FC2F5F03F45
S32D0000FB10000000000000403F90B58BB000AFF860B9607A607B6883F000437B60FB6803F11C03184607F08EFB06
S32D0000FB38FB6803F11D03184607F088FBFB6803F11C03184607F06EFB0346BB61FB6803F11D03184607F066FB8A
S32D0000FB6003461846FCF7A6FD02460B46104619464DA3D3E90023FCF703FE02460B4610461946FDF797F803460F
S32D0000FB887B614D4B7B6268E0FB6803F11C03184607F048FB0346BB61FB6803F11D03184607F040FB0346184695
S32D0000FBB0FCF780FD02460B46104619463AA3D3E90023FCF7DDFD02460B4610461946FDF771F803467B617B682D
S32D0000FBD83B627B68FB61BA697B699A4206DAF8693649FDF709FA0346FB6109E07A69BB699A4205DA386A31491D
S32D0000FC00FDF7FEF903463B62FA683B6A83F000431046194601F060FCFB6803F10804F869FCF75AFD02460B469F
S32D0000FC281046194620A3D3E90023FCF7A5FD02460B4610461946FDF781F803462046194601F046FC786A1E497D
S32D0000FC50FDF7CEF803467B6217A1D1E9000106F0DFFCB8681949FDF7CBF903464FF0010214461846796AFDF70E
S32D0000FC787FFB0346002B02D14FF000031C46E3B2002B81D1FB68184601F0D2FBFB6803F10803184601F0CCFBF0
S32D0000FCA007F12C07BD4690BD295C8FC2F528F03FF6285C8FC2F5F03F9A9999999999B93F000000000000403F9C
S32D0000FCC80000803F00002041B0B58AB000AFF860B9607A604FF001031C46B8688649FDF729FB0346002B02D162
S32D0000FCF04FF000031C46E3B2002B07D0BB6883F00043BB607B6883F000437B60FB6803F11C03184607F09EFAE0
S32D0000FD18FB6803F11D03184607F098FAB868FCF7D7FC02460B46104619466BA3D3E90023FCF722FD02460B4693
S32D0000FD401046194668A3D3E90023FCF765FB02460B4610461946FCF7F5FF03467B624FF001031C46786A674911
S32D0000FD68FDF7E8FA0346002B02D14FF000031C46E3B2002B01D0614B7B62FB6803F11C03184607F04FFA034635
S32D0000FD903B62FB6803F11D03184607F047FA03461846FCF787FC02460B461046194650A3D3E90023FCF7E4FC8B
S32D0000FDB802460B4610461946FCF778FF0346FB615DE0FB6803F11C03184607F02BFA03463B62FB6803F11D0336
S32D0000FDE0184607F023FA03461846FCF763FC02460B46104619463EA3D3E90023FCF7C0FC02460B46104619467F
S32D0000FE08FCF754FF0346FB617B68BB617B687B613A6AFB699A4206DA78693949FDF7ECF803467B6109E0FA69B3
S32D0000FE303B6A9A4205DAB8693349FDF7E1F80346BB61FA68BB6983F000431046194601F043FBFB6803F10804F2
S32D0000FE587869FCF73DFC02460B461046194624A3D3E90023FCF788FC02460B4610461946FCF764FF03462046B1
S32D0000FE80194601F029FB3A6AFB69D3181846FDF763F805467B6A18461946FCF7A9FF03464FF001021446284665
S32D0000FEA81946FDF747FA0346002B02D14FF000031C46E3B2002B84D1FB68184601F0B8FAFB6803F10803184674
S32D0000FED001F0B2FA07F12807BD46B0BDAFF300803BDF4F8D97EE0040BC74931804563740295C8FC2F528F03F25
S32D0000FEF8F6285C8FC2F5F0BF000000000000803F0000403FAFF30080F0B58BB000AF786041F28440C1F6FF7089
S32D0000FF200CF0D6F803467B6241F28440C1F6FF700CF0DEF803463B6241F28440C1F6FF700CF0E6F80346FB6152
S32D0000FF4806F096FB02460B46104619464FF000024FF07E5303F5F003FCF75CFA02460B4610461946FCF7EAFE08
S32D0000FF7003467B6106F080FB02460B461046194677A3D3E90023FCF749FA02460B4610461946FCF7D7FE0346F1
S32D0000FF98BB61A1E041F28440C1F6FF700CF094F803463B6141F28440C1F6FF700CF09CF80346FB6041F28440CC
S32D0000FFC0C1F6FF700CF0A4F80346BB603869796AFCF70CFF03461846FEF790FC03461846FCF77AFB02460B469F
S32D0000FFE84FF001010C46104619465BA3D3E90023FCF752FE0346002B02D14FF000031C46E3B2002B48D1F8685F
S32D00010010396AFCF7EBFE03461846FEF76FFC03461846FCF759FB02460B464FF001010C46104619464AA3D3E9C3
S32D000100380023FCF731FE0346002B02D14FF000031C46E3B2002B27D1B868F969FCF7CAFE03461846FEF74EFC8E
S32D0001006003461846FCF738FB02460B464FF001010C46104619463AA3D3E90023FCF710FE0346002B02D14FF080
S32D0001008800031C46E3B2002B06D138693649FDF747F90346002B02D04FF0010301E04FF00003002B12D006F04A
S32D000100B0E3FA02460B46104619462BA3D3E90023FCF7ACF902460B4610461946FCF73AFE0346BB613B697B6252
S32D000100D8FB683B62BB68FB6106F0CAFA04460D467869FCF7F5FA02460B464FF001010E4620462946FCF7B2FDBB
S32D000101000346002B02D14FF000031E46F3B2002B1BD006F0B1FA04460D46B869FCF7DCFA02460B464FF0010126
S32D000101280E4620462946FCF799FD0346002B02D14FF000031E46F3B2002B02D04FF0010301E04FF00003002BD6
S32D000101507FF424AF07F12C07BD46F0BDAFF300809A9999999999B93F7B14AE47E17AB43F000080BFAFF300807B
S32D0001017880B483B000AF78607B6893F83830184607F10C07BD4680BC704700BF80B483B000AF78600B46FB70CC
S32D000101A07B68FA7883F8382007F10C07BD4680BC704700BF80B483B000AF78607B689B6A184607F10C07BD4606
S32D000101C880BC704780B483B000AF78607B68DB6A184607F10C07BD4680BC704780B483B000AF78607B681B6B49
S32D000101F0184607F10C07BD4680BC704780B483B000AF78607B685B6B184607F10C07BD4680BC7047000000008B
S32D00010218B0B586B000AF786041F28440C1F6FF700BF052FF02467B689A6241F28440C1F6FF700BF059FF02464D
S32D000102407B68DA6241F28440C1F6FF700BF060FF02467B681A6341F28440C1F6FF700BF057FF03461846FCF749
S32D0001026837FA02460B46104619463BA3D3E90023FCF782FA02460B461046194638A3D3E90023FCF7A3FB0246DB
S32D000102900B4610461946FCF755FD03467B617869FFF726F903463B617869FFF72FF90346FB607B689B6A18460B
S32D000102B8FCF70EFA04460D463869FCF709FA02460B46104619464FF000024FF0804303F5D013FCF751FA0246F6
S32D000102E00B4620462946FCF797F802460B4610461946FCF727FD02467B689A627B68DB6A1846FCF7E9F9044616
S32D000103080D46F868FCF7E4F902460B46104619464FF000024FF0804303F5D013FCF72CFA02460B462046294650
S32D00010330FCF772F802460B4610461946FCF702FD02467B68DA627B6803F11E03184606F0A7FF02467B685A63C0
S32D0001035807F11807BD46B0BDF1D4C853FB210940000000000080664080B48BB000AF786007F12C07BD4680BC24
S32D00010380704700BF80B582B000AF78603960786839680CF00BFA0346184607F10807BD4680BD00BF80B582B0BB
S32D000103A800AF78607B681846FEF74CF87B68044A1A607B68184607F10807BD4680BD00BF7802020000000000B7
S32D000103D090B589B000AF7860396007F10803184600F066FB3868FFF793FD3868FFF714FF3868FFF7DFFE034623
S32D000103F8FB613868FFF7E6FE0346BB612C4B7B612C4B3B61B8693969FCF7ECFC03461846FEF770FA0446F869E6
S32D000104207969FCF7E3FC03461846FEF767FA034620461946FFF7A6FF03461846FCF74CF902460B461046194626
S32D0001044817A3D3E90023FCF797F902460B461046194615A3D3E90023FCF7B8FA02460B4610461946FCF76AFC38
S32D000104700346FB604FF014000EF04CFA04461048F968FCF7B3FC034620461946FEF704FE07F108031846396876
S32D00010498224600F015FB07F12407BD4690BD00BF00000000008066404AD8124DFB21094000000C4200005041B0
S32D000104C000003443AFF3008080B483B000AF786039604FF00103184607F10C07BD4680BC704700BF80B483B025
S32D000104E800AF7860396007F10C07BD4680BC704780B483B000AF78604FF00003184607F10C07BD4680BC704735
S32D0001051090B5BDB002AF41F28440C1F6FF700BF007F941F21C40C1F6FF7008F00DF841F21C40C1F6FF704FF695
S32D000105384841C0F2010108F013FA41F26840C1F6FF700AF0CFF9034641F21C40C1F6FF70194608F0E7FA41F226
S32D000105601C40C1F6FF704FF65441C0F2010108F0FBF941F28440C1F6FF700BF0A9FD034641F21C40C1F6FF70B4
S32D00010588194608F0CFFA41F21C40C1F6FF704FF65841C0F2010108F0E3F941F28440C1F6FF700BF0A1FD03460A
S32D000105B041F21C40C1F6FF70194608F0B7FA07F1A4031846FEF7B0FF4FF008000EF0A2F904462046FE49FEF7F2
S32D000105D811FD7C604FF014000EF098F9044620464FF65C41C0F2010100F0F8FBBC604FF014000EF08BF90446C4
S32D0001060020464FF66C41C0F2010100F0EBFBFC604FF00C000EF07EF90446204600F020FB3C614FF020000EF018
S32D0001062875F904464FF0000300932046E749E84AE84BFEF74DFB7C614FF014000EF066F904462046E449FEF77F
S32D0001065023FDBC614FF004000EF05CF904462046FEF7B2FEFC614FF014000EF053F904462046DC49FEF710FD82
S32D000106783C624FF020000EF049F904464FF0000300932046D649D74AD24BFEF777F97C624FF004000EF03AF97D
S32D000106A004462046FFF77EFEBC624FF00C000EF031F904462046CE49CE4AFDF7B5FFFC624FF020000EF026F917
S32D000106C804464FF0010300932046C949C94ACA4BFEF754F93C634FF014000EF017F904462046C649FEF7D4FC7D
S32D000106F07C634FF00C000EF00DF904462046C249C24AFDF73FFFBC634FF00C000EF002F904462046BE49BF4A91
S32D00010718FDF786FFFC634FF020000EF0F7F804462046BB49AA4AAB4BFEF7A2FA3C644FF014000EF0EBF8044641
S32D000107402046A349FEF7A8FC7C644FF00C000EF0E1F804462046B149B14AFDF765FFBC644FF008000EF0D6F86D
S32D0001076804462046AD49FEF745FCFC644FF00C000EF0CCF804462046A649A94AFDF7FEFE3C654FF014000EF0A5
S32D00010790C1F804462046A549FEF77EFC7C654FF00C000EF0B7F804462046A1498F4AFDF7E9FEBC654FF00400E9
S32D000107B80EF0ACF80446204600F0AAF9FC654FF00C000EF0A3F8044620469849944AFDF7D5FE3C664FF00C00C5
S32D000107E00EF098F8044620469349944AFDF7CAFE7C664FF020000EF08DF804464FF00003009320468E497D4A4F
S32D000108087D4BFEF7BBF8BC664FF008000EF07EF8044620466C49FEF7EDFBFC664FF014000EF074F80446204663
S32D0001083084494FF00102FEF74FFC3C674FF00C000EF068F8044620467F49804AFDF7ECFE7C674FF00C000EF0B2
S32D000108585DF8044620467C497C4AFDF7E1FEBC674FF00C000EF052F8044620467849714AFDF784FEFC674FF014
S32D0001088014000EF047F8044620467449FEF704FCC7F880404FF00C000EF03CF8044620466149664AFDF76EFE30
S32D000108A8C7F884404FF008000EF030F804462046FDF7D8FDC7F888404FF014000EF026F8044620465D49FEF777
S32D000108D0E3FBC7F88C404FF008000EF01BF8044620465F49FEF78AFBC7F890404FF00C000EF010F804462046D6
S32D000108F853495A4AFDF794FEC7F894404FF00C000EF004F8044620465549544AFDF736FEC7F898404FF0080041
S32D000109200DF0F8FF04462046FDF712FFC7F89C404FF010000DF0EEFF04462046FDF7C6FEC7F8A0407B68C7F882
S32D00010948E4304FF00003C7F8E03020E0D7F8E0304FEA830307F1E802D31853F8E43CC7F8E43007F1A40341F2E0
S32D000109702810C1F6FF701946D7F8E42000F0A4F807F1A4031846FFF7F3FCD7F8E03003F10103C7F8E030D7F8E5
S32D00010998E4301B6803F10C031B68D7F8E4009847034683F00103DBB2002BCFD141F2A440C1F6FF700BF084FDB0
S32D000109C04FF00003184607F1EC07BD4690BD00BF000034436666A2410000A0C1CDCCCC3D000033430000354357
S32D000109E89A99C9410000F0419A99D93F00004842CDCC9C4100000CC2CDCC4C3E0000BE420000D041000034C22F
S32D00010A109A99193F0000000000002E4200002040000080C100008C420000C8410000904300008A41000040C0A6
S32D00010A38000020C1000034420000C0410000B4420000803F000020C20000C0400000C8C1000098410000A0425C
S32D00010A600000D642000020420000A0C080B582B000AF786039607B68012B0AD13A684FF6FF739A4205D141F2DE
S32D00010A882810C1F6FF7000F00FF807F10807BD4680BD00BF80B500AF4FF001004FF6FF71FFF7E0FF80BD00BF3A
S32D00010AB080B483B000AF78607B68184607F10C07BD4680BC704700BF80B584B000AFF860B9607A607B681B685F
S32D00010AD81B687868B968984700BF7B681B6803F104031B687868B9689847034683F00103DBB2002BF1D17B68EC
S32D00010B001B6803F108031B687868B968984707F11007BD4680BD00BF80B582B000AF78607B681846FDF792FC22
S32D00010B287B68044A1A607B68184607F10807BD4680BD00BFA8020200B0B584B000AF786039603B6803F10803A5
S32D00010B5018462F4900F0C0FC3B6818462D4900F0BBFC05F089FD02460B4610461946FCF7E9F80346FB6000BFD6
S32D00010B783B6803F12603184605F0F8FE0346002B27D005F075FD04460D46F868FBF7A0FD02460B462046294679
S32D00010BA0FBF73AFC02460B464FF001010C46104619464FF000024FF07E5303F5E003FCF751F80346002B02D16E
S32D00010BC84FF000031C46E3B2002B02D04FF0010301E04FF00003002BCAD109A1D1E9000105F01AFD3B6803F194
S32D00010BF00803184600F020FC3B68184600F01CFC07F11007BD46B0BD333333333333D33F00002CC20000A041C6
S32D00010C1880B483B000AF786039604FF00103184607F10C07BD4680BC704700BF80B483B000AF7860396007F146
S32D00010C400C07BD4680BC704780B483B000AF78604FF00003184607F10C07BD4680BC704780B582B000AF7860FF
S32D00010C687B681846FDF7EEFB7B68074A1A607B68064A5A607B68054A9A607B68184607F10807BD4680BD00BF31
S32D00010C90D80202000000000080B582B000AF786039603868FFF7B8FA3868FFF7A7FA02467B685A6005F0E0FC9D
S32D00010CB802460B461046194609A3D3E90023FBF7A9FB02460B4610461946FCF737F802467B689A6007F1080702
S32D00010CE0BD4680BDAFF300800000000000804640F0B585B000AF786039602BA1D1E9000105F08EFC3B6803F1E6
S32D00010D081E03184606F0C8FA0346FB6005F0B0FC04460D467B689B681846FBF7D9FC02460B464FF001010E466A
S32D00010D3020462946FBF7B4FF0346002B02D14FF000031E46F3B2002B1ED17B685B681846F968FCF74BF803468A
S32D00010D581846FBF7BDFC02460B464FF001010C461046194610A3D3E90023FBF795FF0346002B02D14FF00003E1
S32D00010D801C46E3B2002B02D04FF0010301E04FF00003FB727B68FA685A60FB7A184607F11407BD46F0BD00BF29
S32D00010DA89A9999999999C93F333333333333D33F80B483B000AF7860396007F10C07BD4680BC704780B483B04A
S32D00010DD000AF78604FF00003184607F10C07BD4680BC704780B582B000AF786039607B681846FDF72BFB7B6807
S32D00010DF8074A1A607B684FF000021A717B683A681A617B68184607F10807BD4680BD00BF1003020000000000F6
S32D00010E2080B582B000AF786039607B681B6941F21C40C1F6FF70194607F064FE04E028A1D1E9000105F0ECFB04
S32D00010E487B6803F108027B6803F10C0341F21C40C1F6FF7011461A4607F04EFC034683F00103DBB2002BE6D1D8
S32D00010E7004E01BA1D1E9000105F0D2FB7B6803F108027B6803F10C0341F21C40C1F6FF7011461A4607F034FCDC
S32D00010E980346002BE9D104E00FA1D1E9000105F0BBFB7B6803F108027B6803F10C0341F21C40C1F6FF70114630
S32D00010EC01A4607F01DFC034683F00103DBB2002BE6D107F10807BD4680BD00BFAFF300809A9999999999A93FBD
S32D00010EE880B483B000AF786039604FF00103184607F10C07BD4680BC704700BF80B582B000AF7860396041F239
S32D00010F101C40C1F6FF704FF68841C0F2010107F0F1FD07F10807BD4680BD00BF80B483B000AF78604FF0000353
S32D00010F38184607F10C07BD4680BC704780B500AF42F25C12C1F6FF7241F22813C1F6FF73D31A194641F228132C
S32D00010F60C1F6FF731A460B4610464FF000011A460CF02FFC80BD00BF0DF0B0FC00F0B0F9FFF7E0FF0DF082FCDD
S32D00010F880DF01EFC0DF0B6FC00F00CF84FF0000041F22C11C1F6FF71FFF7B6FA034618460CF0EEFB80B500AF94
S32D00010FB04FF4E043C4F204034FF4E042C4F2040202F5805202F13802126842F4785203F5805303F138031A60EA
S32D00010FD800F02EF900F094F841F26833C1F6FF734FF058021A6041F26833C1F6FF731B684FF47A7202FB03F2B2
S32D0001100041F26433C1F6FF731A6041F26433C1F6FF731B681A464FF4E043C4F2040303F5825303F104031B6810
S32D0001102803F070634FEA136303F10103B2FBF3F31A4641F26C33C1F6FF731A604FF4E043C4F204034FF4E0423C
S32D00011050C4F2040202F5805202F13C02126842F0225203F5805303F13C031A604FF4E043C4F204034FF4E0429B
S32D00011078C4F2040202F5805202F13002126842F0006203F5805303F130031A604FF45043C4F203034FF480725E
S32D000110A01A614FF0640005F035F94FF45043C4F203034FF45042C4F20302526922F010025A614FF45043C4F298
S32D000110C803034FF000021A604FF45043C4F203034FF010025A6106F011FA06F0B9FA41F26030C1F6FF7005F012
S32D000110F095F941F21C40C1F6FF7007F05DF841F2883005F073FA80BD80B400AF4FF48043C4F206034FF00002CF
S32D000111185A704FF48043C4F206034FF098021A704FF48043C4F206039B79DBB203F01003002B0CBF002301230D
S32D00011140DBB2002BF0D14FF48043C4F206039B79DBB203F00C034FEA9303022B0CBF00230123DBB2002BEED11A
S32D000111684FF48043C4F206034FF018021A714FF48043C4F206034FF000025A714FF4E043C4F2040303F58253EE
S32D0001119003F104034FF00002C0F213121A604FF48043C4F206034FF054025A7100BF4FF48043C4F206039B79E6
S32D000111B8DBB203F02003002B14BF00230123DBB2002BF0D100BF4FF48043C4F206039B79DBB203F04003002B21
S32D000111E014BF00230123DBB2002BF0D14FF48043C4F206034FF48042C4F206021278D2B202F03F02D2B21A7076
S32D000112084FF48043C4F206039B79DBB203F00C034FEA9303032B0CBF00230123DBB2002BEED14FF00003184629
S32D00011230BD4680BC704700BF80B400AF4FF44043C4F204034FF480725A634FF2C003C4F20F034FF2C002C4F2FD
S32D000112580F02526942F400525A614FF2C003C4F20F034FF2C002C4F20F02126842F400521A604FF44043C4F2CA
S32D00011280040340F20312C0F20A021A634FF46143CEF200034FF46142CEF20002D2F8882142F08062C3F8882179
S32D000112A84FF46143CEF200034FF46142CEF20002926842F080629A60BD4680BC704700BF80B483B000AF78601A
S32D000112D0FEE700BF80B400AF00BEBD4680BC704780B400AF4FF0E0224CF20003C0F20003C2F8083D4FF4005305
S32D000112F8C4F205034CF22052DA814FF40053C4F205034DF62812DA814FF40053C4F205034FF0D2021A80BD46CE
S32D0001132080BC704780B500AF4FF44043C4F20403D3F8A03003F48053002B0CBF00230123DBB2002B1FD04FF4B8
S32D000113484043C4F204034FF44042C4F20402D2F8A02022F48052C3F8A02041F2A440C1F6FF700BF0ADF84FF2AA
S32D00011370C003C4F20F034FF2C002C4F20F02126822F400521A6080BD90B585B000AFF8600B467A60FB72FB68E4
S32D00011398FA7A1A71FB684FF000025A714FF001031C4678682049FBF7E3FF0346002B02D14FF000031C46E3B276
S32D000113C0002B02D01A4B7B6011E04FF001031C4678681849FBF7BCFF0346002B02D14FF000031C46E3B2002B92
S32D000113E801D0124B7B607868FBF772F902460B46104619460AA3D3E90023FBF7BDF902460B4610461946FBF7CE
S32D0001141099FC0246FB681A60FB68184607F11407BD4690BDAFF30080ABAAAAAAAAAA2040000040410000803F10
S32D0001143880B582B000AF78607B685B79002B10D07B684FF000025A717B681B7941F26030C1F6FF7019464FF0E8
S32D0001146000024FF01E0305F023F807F10807BD4680BD00BF80B584B000AF786039603B687F2B03DD4FF07F036E
S32D00011488FB7309E03B6813F1800F03DA4FF08003FB7301E03B68FB737B685B79FA7B9A420FD07B68FA7B5A719F
S32D000114B07B681A79FB7B41F26030C1F6FF7011461A464FF01E0304F0F3FF07F11007BD4680BD00BF000000002D
S32D000114D8B0B584B000AF786039604FF001031C4638684D49FBF726FF0346002B02D14FF000031C46E3B2002B8F
S32D0001150002D0474B3B6011E04FF001031C4638684449FBF731FF0346002B02D14FF000031C46E3B2002B01D05C
S32D000115283E4B3B603868FBF7D3F804460D467B681B681846FBF7CCF802460B46104619464FF000024FF080436B
S32D0001155003F5B203FBF73EFA02460B4620462946FBF70EF902460B4610461946FBF7EAFB03463B604FF00103E2
S32D000115781C4638682A49FBF7F1FE0346002B02D14FF000031C46E3B2002B14D03868FBF79FF802460B46104647
S32D000115A019461DA3D3E90023FBF7EAF802460B4610461946FBF77EFB0346FB6022E03868FBF78AF802460B463E
S32D000115C8104619464FF000024FF0804303F5C003FBF7D2F802460B46104619464FF000024FF0804303F5B20347
S32D000115F0FBF7F0F902460B4610461946FBF75AFB0346FB607868F968FFF734FF07F11007BD46B0BDAFF30080AD
S32D0001161852B81E85EB51F43F0000C8C20000C84200000000AFF3008080B485B000AF02460B46FA71BB71BB7955
S32D00011640002B07D141F23013C1F6FF734FF000021A7006E041F23013C1F6FF734FF001021A704FF03803FB73D5
S32D0001166841F23013C1F6FF731A78FB7B1343FB734FF4C043C4F206034FF4C042C4F206029278D2B242F010020E
S32D00011690D2B29A704FF4C043C4F206034FF4C042C4F206029278D2B242F02002D2B29A704FF4C043C4F2060320
S32D000116B8FA7B1A7107F11407BD4680BC704700BF80B483B000AF4FF001037B6004E000BF7B6803F101037B60AE
S32D000116E07B68312BCCBF00230123DBB2002BF2D107F10C07BD4680BC704700BF80B582B000AF02460B46FA7175
S32D00011708BB7141F23113C1F6FF731B7818464FF00001FFF789FF4FF4C043C4F20603DB78DBB203F00203002B2F
S32D0001173014BF00230123DBB2002BF0D14FF4C043C4F206034FF4C042C4F20602D278D2B242F00202D2B2DA701D
S32D000117584FF4C043C4F20603FA791A714FF4C043C4F20603DB78DBB203F00203002B14BF00230123DBB2002B85
S32D00011780F0D14FF4C043C4F206034FF4C042C4F20602D278D2B242F00202D2B2DA704FF4C043C4F20603BA7967
S32D000117A81A714FF4C043C4F20603DB78DBB203F00203002B14BF00230123DBB2002BF0D14FF4C043C4F20603E7
S32D000117D04FF4C042C4F20602D278D2B242F00202D2B2DA704FF4C043C4F206034FF4C042C4F206029278D2B27F
S32D000117F822F02002D2B29A704FF4C043C4F206034FF4C042C4F206029278D2B222F01002D2B29A70FFF754FF6F
S32D0001182007F10807BD4680BD80B582B000AF0346FB71FB79184600F06BF807F10807BD4680BD00BF80B582B0F5
S32D0001184800AF02460B46FA71BB7100F039F8FB794FEA4303DBB21846FFF7E2FFBB791846FFF7DEFF00F03EF831
S32D0001187007F10807BD4680BD80B500AF4FF0FF0000F046F80346184680BD00BF80B584B000AF0346FB7100F052
S32D0001189817F8FB794FEA4303DBB243F00103DBB2DBB21846FFF7BCFFFFF7E2FF0346FB7300F018F8FB7B1846D0
S32D000118C007F11007BD4680BD80B400AF4FF24003C4F20F034FF24002C4F20F02926842F480129A60BD4680BC36
S32D000118E8704700BF80B400AF4FF24003C4F20F034FF24002C4F20F02526842F480125A60BD4680BC704700BFF1
S32D0001191080B485B000AF0346FB714FF00003BB7303E0FB7B03F10103FB734FF44043C4F20A03DB6A4FF000039C
S32D00011938002BF2D14FF44043C4F20A034FF44042C4F20A02D26A42F00042DA624FF44043C4F20A03FA795A63DD
S32D0001196000BF4FF44043C4F20A03DB6A03F40033002B14BF00230123DBB2002BF1D14FF44043C4F20A039B6B53
S32D00011988BB73BB7B184607F11407BD4680BC704780B582B000AF4FF4E043C4F204034FF4E042C4F2040202F514
S32D000119B0805202F13002126842F4805203F5805303F130031A604FF42043C4F204034FF480721A654FF2400388
S32D000119D8C4F20F034FF24002C4F20F02526942F480125A61FFF77EFF4FF42043C4F204034FF400725A654FF403
S32D00011A002043C4F204034FF400729A654FF42043C4F204034FF40072DA654FF44043C4F20A034FF44062C8F264
S32D00011A2800021A604FF44043C4F20A034FF00502C3F60062DA604FF000037B6007E04FF0FF00FFF7EDFE7B68E9
S32D00011A5003F101037B607B68092BCCBF00230123DBB2002BEFD104A1D1E9000104F0D8FD07F10807BD4680BDC3
S32D00011A789A9999999999B93F90B486B000AFF860B9607A60FA684FF42043C4F206039A4214D14FF4E043C4F298
S32D00011AA004034FF4E042C4F2040202F5805202F13402126842F4806203F5805303F134031A6083E0FA684FF4F3
S32D00011AC83043C4F206039A4214D14FF4E043C4F204034FF4E042C4F2040202F5805202F13402126842F40062B4
S32D00011AF003F5805303F134031A6067E0FA684FF44043C4F206039A4214D14FF4E043C4F204034FF4E042C4F22A
S32D00011B18040202F5805202F13402126842F4805203F5805303F134031A604BE0FA684FF45043C4F206039A42B6
S32D00011B4014D14FF4E043C4F204034FF4E042C4F2040202F5805202F13402126842F4005203F5805303F1340363
S32D00011B681A602FE0FA684FF42043C4F20E039A4214D14FF4E043C4F204034FF4E042C4F2040202F5805202F135
S32D00011B902802126842F4806203F5805303F128031A6013E04FF4E043C4F204034FF4E042C4F2040202F5805206
S32D00011BB802F12802126842F4006203F5805303F128031A60FB68DB78DBB223F00C03DAB2FB68DA70FB684FF02B
S32D00011BE000029A70BB684FF47A7202FB03F27B684FEA031392FBF3F39CB2FB681B78DBB223F01F03FB75234602
S32D00011C0803F4F8534FEA2323DBB203F01F03DAB2FB7D1343DAB2FB681A70E2B2FB685A70BB684FF4FA4202FB17
S32D00011C3003F27B684FEA031392FBF3F39AB2234619464FEAC121CB1A4FEA43139BB2D3189CB2FB689B7ADBB2BD
S32D00011C5823F01F03FB75E3B203F01F03DAB2FB7D1343DAB2FB689A72FB68DB78DBB243F00C03DAB2FB68DA70FB
S32D00011C8007F11807BD4690BC704700BF80B483B000AF786000BF7B681B79DBB203F02003002B14BF002301234D
S32D00011CA8DBB2002BF3D17B68DB79DBB2184607F10C07BD4680BC704780B483B000AF78600B46FB7000BF7B6822
S32D00011CD01B79DBB2DBB26FEA0303DBB24FEAD313DBB2002BF3D17B68FA78DA7107F10C07BD4680BC704700BF50
S32D00011CF880B487B000AFF860B9607A60FB687B61BB683B610BE03B691A787B691A707B6903F101037B613B696F
S32D00011D2003F101033B617B68002B0CBF00230123DBB27A6802F1FF327A60002BE7D107F11C07BD4680BC70477F
S32D00011D4880B487B000AFF860B9607A60FB687B6107E0BB68DAB27B691A707B6903F101037B617B68002B0CBF33
S32D00011D7000230123DBB27A6802F1FF327A60002BEBD107F11C07BD4680BC704780B489B000AFF860B9607A6031
S32D00011D98FB68FB61BB68BB614FF000037B617B68002B0CBF00230123DBB27A6802F1FF327A60002B19D0FB69FB
S32D00011DC01B781A46BB691B78D31A7B617B69002B14BF00230123DBB2FA6902F10102FA61BA6902F10102BA61E3
S32D00011DE8002B02D04FF0010301E04FF00003002BD5D17B69184607F12407BD4680BC704780B483B000AF78604F
S32D00011E10396003E07B6803F101037B607B681B78002B08D07B681B781A463B689A4202D04FF0010301E04FF06E
S32D00011E380003002BEAD17B681B78184607F10C07BD4680BC704700BF80B584B000AF786039607B681B6BFB60B1
S32D00011E60FA683B689A4264D07B681B79002B43D07B685A787B6803F1340310461946FA684FF0010304F0B4F8CC
S32D00011E880346002B0CBF00230123DBB2002B02D04FF001034BE07B684FF000021A717B685A6A7B681B6AD21805
S32D00011EB0FB689A4220D97B68DB78FB7214E07B681B6AFA68D318FB607B685A787B6803F1340310461946FA684A
S32D00011ED84FF0010304F088F8FB7A03F1FF33FB72FB7A012B94BF00230123DBB2002BE2D13B68002B19D07B68DC
S32D00011F005A787B6803F13403104619463A684FF0010303F05FFF0346002B0CBF00230123DBB2002B02D04FF098
S32D00011F28010304E07B683A681A634FF00003184607F11007BD4680BD80B584B000AF786078684FF00001FFF7AB
S32D00011F507FFF0346FB73FB7B002B40F0AE807B681B78032B40F095807B685B79002B00F090807B684FF000023F
S32D00011F781A637B6803F1340318464FF000014FF40072FFF7DDFE7B684FF0550283F832227B684FF0AA0283F8FA
S32D00011FA033227B684FF0520283F834207B684FF0520283F835207B684FF0610283F836207B684FF0410283F8FC
S32D00011FC837207B684FF0720283F818227B684FF0720283F819227B684FF0410283F81A227B684FF0610283F8E0
S32D00011FF01B227B681B69DAB27B6883F81C227B681B699BB24FEA2323DAB27B6883F81D227B681B694FEA1343A4
S32D00012018DAB27B6883F81E227B681B694FEA1363DAB27B6883F81F227B68DB68DAB27B6883F820227B68DB68B6
S32D000120409BB24FEA2323DAB27B6883F821227B68DB684FEA1343DAB27B6883F822227B68DB684FEA1363DAB234
S32D000120687B6883F823227B6859787B6803F134027B685B69084611461A464FF0010303F0B3FF7B684FF000022D
S32D000120905A717B685B7818464FF000014FF0000204F08CF80346002B0CBF00230123DBB2002B02D04FF00103F6
S32D000120B8FB73FB7B184607F11007BD4680BD00BF80B483B000AF786039603B68A3F102033B607B68DB69A3F190
S32D000120E002023B689A4202D84FF0000307E07B689B783A6802FB03F27B68DB6AD318184607F10C07BD4680BC06
S32D00012108704700BF80B586B000AF786039603B68012B04D97B68DA693B689A4202D84FF00103D3E07B681B7810
S32D00012130022B5FD0032B00F08A80012B40F0C8803B687B617B694FEA53037A69D3187B617B685A6A7B694FEAF8
S32D000121585323D31878681946FFF776FE0346002B0CBF00230123DBB2002B40F0A6807B694FEAC3534FEAD35328
S32D000121807A68D31893F834303B617B6903F101037B617B685A6A7B694FEA5323D31878681946FFF755FE03462A
S32D000121A8002B0CBF00230123DBB2002B40F087807B694FEAC3534FEAD3537A68D31893F834304FEA03233A698C
S32D000121D013433B613B6803F00103DBB2002B03D03B694FEA131304E03B694FEA03534FEA13536FE07B685A6A1A
S32D000121F83B684FEA1323D31878681946FFF724FE0346002B0CBF00230123DBB2002B58D13B684FEA43034FEAA2
S32D00012220C3534FEAD35303F130037A68D31803F10403FB60FB6803F101031B784FEA03239AB2FB681B781343EB
S32D000122489BB29BB242E07B685A6A3B684FEAD313D31878681946FFF7F7FD0346002B0CBF00230123DBB2002BF0
S32D000122702DD13B684FEA83034FEAC3534FEAD35303F130037A68D31803F10403FB60FB6803F103031B784FEABE
S32D000122980362FB6803F102031B784FEA03431A43FB6803F101031B784FEA03231A43FB681B78134323F070432B
S32D000122C008E000BF04E000BF02E000BF00E000BF4FF0FF33184607F11807BD4680BD00BF80B588B000AFF8600C
S32D000122E8B9607A60BB68012B04D9FB68DA69BB689A4203D84FF00203FB771AE1FB681B78022B00F08580032B31
S32D0001231000F0AD80012B40F00181BB68BB61BB694FEA5303BA69D318BB61FB685A6ABB694FEA5323D318F86842
S32D000123381946FFF789FD0346FB77FB7F002B40F0ED80BB694FEAC3534FEAD35303F13003FA68D31803F104035D
S32D000123607B61BB6803F00103DBB2002B0ED07B691B78DBB203F00F03DAB27B68DBB24FEA0313DBB21343DBB2FE
S32D00012388DBB201E07B68DBB27A691370BB6903F10103BB61FB684FF001021A71FB685A6ABB694FEA5323D31895
S32D000123B0F8681946FFF74CFD0346FB77FB7F002B40F0B280BB694FEAC3534FEAD35303F13003FA68D31803F104
S32D000123D804037B61BB6803F00103DBB2002B04D07B684FEA1313DBB20FE07B691B78DBB223F00F03DAB27B68F7
S32D000124004FEA1323DBB203F00F03DBB21343DBB2DBB27A6913708CE0FB685A6ABB684FEA1323D318F86819467A
S32D00012428FFF712FD0346FB77FB7F002B7AD1BB684FEA43034FEAC3534FEAD35303F13003FA68D31803F1040316
S32D000124507B617B68DAB27B691A707B6903F101037A6892B24FEA2222D2B21A7061E0FB685A6ABB684FEAD3136D
S32D00012478D318F8681946FFF7E7FC0346FB77FB7F002B51D1BB684FEA83034FEAC3534FEAD35303F13003FA6817
S32D000124A0D31803F104037B617B6903F103031B784FEA03627B6903F102031B784FEA03431A437B6903F1010314
S32D000124C81B784FEA03231A437B691B78134303F070437A6813437B607B68DAB27B691A707B6903F101037A6875
S32D000124F092B24FEA2222D2B21A707B6903F102037A684FEA1242D2B21A707B6903F103037A684FEA1262D2B2A3
S32D000125181A700AE04FF00203FB7706E000BF04E000BF02E000BF00E000BFFB684FF001021A71FB7F184607F1E2
S32D000125402007BD4680BD00BF80B584B000AF786039603B68012B04D97B68DA693B689A4203D84FF00203FB73DF
S32D0001256845E04FF00003FB7333E078683968FFF7C9FD0346BB60BB68002B35D0BB68012B03D14FF00203FB7393
S32D0001259031E0BB68B3F1FF3F03D14FF00103FB7329E0786839684FF00002FFF799FE0346FB73FB7B002B1DD1E3
S32D000125B87B681B69B3F1FF3F09D07B681B6903F101027B681A617B684FF001025A71BB683B607B68DA693B689F
S32D000125E09A4294BF00230123DBB2002BC1D102E000BF00E000BFFB7B184607F11007BD4680BD00BF80B586B07F
S32D0001260800AF786039603B68002B0ED17B68DB683B613B69002B04D07B68DA693B699A4218D84FF001033B61FC
S32D0001263014E078683968FFF769FD0346BB60BB68012B02D84FF001036EE07B68DA69BB689A4201D9BB6867E023
S32D000126583B683B613B697B6100E000BF7B6903F101037B617B68DA697B699A4209D84FF002037B617A693B69CF
S32D000126809A4202D94FF000034EE078687969FFF73DFD0346BB60BB68002B0FD0BB68B3F1FF3F02D0BB68012B5B
S32D000126A801D1BB683CE07A693B699A42D5D14FF0000335E000BF786879696FF07042FFF70BFE0346FB73FB7BD4
S32D000126D0002B09D13B68002B06D0786839687A69FFF7FEFD0346FB73FB7B002B12D17B687A69DA607B681B693B
S32D000126F8B3F1FF3F13D07B681B6903F1FF327B681A617B684FF001025A7108E0FB7B012B02D14FF0FF3301E065
S32D000127204FF001037B617B69184607F11807BD4680BD00BF80B487B000AF786039607B685B6A03F104033B6149
S32D000127483B684FEA53227B681B689B78B2FBF3F37B613B691B68FB603B6903F104033B61FB68002B02D14FF0CC
S32D00012770000311E07A69FB689A4208D37A69FB68D31A7B613B6903F104033B61E5E700BF3B691A687B69D3187F
S32D00012798184607F11C07BD4680BC704780B584B000AF78600B467B807B687A88DA807B689B68FB60FB68012B58
S32D000127C005D07B681B68DA69FB689A4202D84FF0020373E0FB68002B08D17B681B681B78032B03D17B681B68F4
S32D000127E89B6AFB60FB68002B16D17B68FA68DA607B681B681B897A889A4202D34FF0020358E07B681B689A6ACB
S32D000128107B884FEA13139BB2D2187B681A613FE07B681B689B784FEA03137B811EE07B681B681846F968FFF7A6
S32D0001283869FC0346FB60FB68B3F1FF3F02D14FF0010337E0FB68012B05D97B681B68DA69FB689A4202D84FF088
S32D0001286002032BE07A887B89D31A7B807A887B899A4234BF00230123DBB2002BD7D17B68FA68DA607B681B68EA
S32D000128881846F968FFF71CFC02467B884FEA13139BB2D2187B681A617B681B6803F134027B8803F00F034FEA44
S32D000128B04313D2187B685A614FF00003184607F11007BD4680BD00BF90B585B000AF786039607B68DB8803F199
S32D000128D801033B813B89002B03D07B681B69002B02D14FF00403E4E03B8903F00F03002B40F0CE807B681B6907
S32D0001290003F101027B681A617B68DB68002B09D17B681B681B893A899A42C0F0BD804FF00403CAE03B894FEAA5
S32D0001292813139BB21A467B681B689B7803F1FF331340002B40F0AC807B681A687B68DB6810461946FFF7DEFB25
S32D000129500346FB60FB68012B02D84FF00203ACE0FB68B3F1FF3F02D14FF00103A5E07B681B68DA69FB689A42B3
S32D0001297800F282803B68002B02D14FF0040398E07B681A687B68DB6810461946FFF736FE0346FB60FB68002B41
S32D000129A002D14FF0070388E0FB68012B02D14FF0020382E0FB68B3F1FF3F02D14FF001037BE07B681B68184602
S32D000129C84FF00001FFF740FA0346002B0CBF00230123DBB2002B02D04FF0010369E07B681B6803F134031846E5
S32D000129F04FF000014FF40072FFF7A6F97B681C687B681B681846F968FFF75EFB034623634FF00003FB7220E0D5
S32D00012A187B681B684FF001021A717B681B6818464FF00001FFF710FA0346002B0CBF00230123DBB2002B02D048
S32D00012A404FF0010339E07B681B681A6B02F101021A63FB7A03F10103FB727B681B689B78FA7A9A422CBF0023FC
S32D00012A680123DBB2002BD3D17B681B687A681268116BFA7A8A1A1A637B68FA68DA607B681B681846F968FFF752
S32D00012A901BFB02467B681A617B683A89DA807B681B6803F134023B8903F00F034FEA4313D2187B685A614FF0AC
S32D00012AB80003184607F11407BD4690BD80B586B000AF786078684FF00001FFF767FE0346FB75FB7D002B01D091
S32D00012AE0FB7D47E07B681A687B681B6910461946FFF7AEF90346FB75FB7D002B36D17B685B693B613B691B782D
S32D00012B08FB73FB7B002B03D14FF00403FB752CE03B6903F10B031B7803F00803002B0DD17B689B6938691946D2
S32D00012B304FF00B02FFF72AF90346002B02D14FF0010301E04FF00003002B11D178684FF00001FFF7B9FE034641
